:020000040000FA
:040000008A011B282E
:08000800F700030E031383123D
:10001000CD000A08CE000408CF00332B82073F34FE
:1000200006345B344F3466346D347D3407347F34AA
:100030006F343834763403138312640000308B003D
:10004000850186018701880189018C018D010F30AE
:1000500090001E2427240C30AE001C309F00031398
:1000600083168030910050309F0007309C00613033
:100070008F0000308C0000308D00C13085000030D2
:100080008600073087003E308800FE3089008030CF
:10009000810003178312A001A101A201173087007C
:1000A00080300338880080308804FF309C000F3097
:1000B0009D009E01123085009001910193019401F1
:1000C0009601970199019A018717031383126030F3
:1000D000A20085150330F1000230F200F316F2158C
:1000E0002C170C30BC000130BD002030BE000630A3
:1000F00092000313831245188C28AB188C2800003B
:100100008B130B1783160D16000000006300000010
:1001100000000D1283120B130D1E8C28000000002E
:10012000451CA220AD224723D5223E302B05031DBE
:10013000082173197928AB1C492224238C229B2285
:100140004723792845180729B6080319AC28BA0BA4
:100150000729B60BFA2807292C1CB12800302C10CF
:10016000CC28AC1CB6287608AC10CC28AC1FBB2819
:100170007608AC13D0282C1DC0280A302C11CC28AE
:10018000AC1DC5287608AC11CC28AC1EC92800309F
:10019000D0282C1F07290030A0000230B600D32839
:1001A000A0000330B600A00DA00DA00DF830200572
:1001B000C30073184315AC1AC3147310AC12FF2795
:1001C000A0000F302005BF04FE27C000FD27C1009E
:1001D000FC27C2003F12C4013F3084000530A0005C
:1001E0000008C407840AA00BF0282C1FFA28C40AB0
:1001F0002C13B601051083160510831205103C3030
:10020000A000A00B01298B170130BA003024080090
:100210002B1F182904302906031D15292B13AB1792
:100220001E30AF00AB1071132C2A2B17AB10302AE5
:10023000AB198129AB1A032A06302906031D24298C
:100240007314AC16AB10302AA91C3C29721C2F2A3F
:10025000F3192F2AF3152C15F116731472150A30A1
:10026000F6001E30B2002308B3007313F313F21527
:1002700047234723AB10302A291D7429F218472938
:1002800071195629F1196029711A6A292F2A01302A
:10029000B0003408F6007214F116F2107115F11165
:1002A0007112AC1473143322B7016D290330B000FE
:1002B0007214F2107111F11571127314AC176D29CB
:1002C0000C30B0007214F2107111F1117116731428
:1002D000AC176D29382273146F293C30B100F21528
:1002E00047234723AB10302AA91EF529AB15F31677
:1002F0000230AD001030A8007114F21547234723D7
:10030000302A2D08023A03198A292D08033A0319C5
:10031000BD292F2AA80B92290130F1061030A80020
:10032000F21547234922AB142B18302AAA01291AA7
:100330009C29A919A629B129A40A24083C3C031C1C
:10034000A4290319A429A529A401AC29A408031DE3
:10035000AB293C30A400A403F2152408E923F400DF
:10036000302A291D322A71141030A8000330AD0044
:10037000F21547234723F114302AA80BC529023070
:10038000F1061030A800F21547234922AB142B18B0
:10039000302AAA01291ACF29A919D929E729A50A9A
:1003A00025082E020318D5290319D8290130A500E4
:1003B000E1292508013C031CE0290C30A500E129B6
:1003C000A503F114F2152508E923F500302A291DAB
:1003D000322A7114F114AB10AB11AD01A30120301E
:1003E000BE00F21547234723302A721C2F2A2B1BED
:1003F0002F2AF3192F2A291AFF29A91D2F2AAB16F4
:10040000F1160930B5002B182F2A291A0A2AA91922
:10041000122A232A7608093C031C102AF60A1A2AF3
:10042000F6011A2A7608003A0319182AF6031A2A3E
:100430000A30F6007608B4000930B500F2154723FB
:100440004723AA012F2AB50B322AAC147314AB121E
:10045000AB103322AA01302AF2154723302AAB1001
:100460001E30AF0008000430B9008430B800080026
:10047000B0017210721286136030A200F112F311F3
:100480007211F2147111F11171122C141E30B70097
:100490000800AB1085110530A000A00B4D2A0808FC
:1004A000A9002917A91729142B1A652AAB1B652A3D
:1004B0008918602A2B1B652A2B177117F215652ADC
:1004C0002B1F652A2B137113F215731E8515FF3030
:1004D000A9062B1C762A29082A06031D8A2AA60BA0
:1004E0008B2A06171E30A700AB148A2A29082A0671
:1004F00003198A2A2B142908AA002B1F822A4030AC
:10050000A6008B2AAB1E872A0C30A6008B2A063049
:10051000A6008B2A2B100800721C9A2AA20B9A2A7A
:10052000721A962A721686170930992A7212861341
:100530006030A2000800F31CA62ABB0BAC2A1030C6
:10054000BB008030F106F2154723AC2A731DAB2A9D
:10055000F117F215AC2AF1130800BE0BD42AAB191F
:10056000B62A2030BE002030F306F215C0307305E5
:100570000319CB2AB30BD42A7211F3113408F600F5
:100580007310AC15731FC92A0F30B3007313F31720
:10059000D42AF313D42A721CD42AB80BD42AB90B48
:1005A000D42A33227310AC1708000C1C232B0C1018
:1005B000A30AA30AA7080319E32AA70BE02AE22A41
:1005C000A70BE32A0613AB1FEE2AAF0BE82AEA2A91
:1005D000AF0BEE2A7117F2152B17AB1323083B3C18
:1005E000031CF32A232BA301A40AF215B70803194D
:1005F000FD2AB70BFD2A73102C14721C0A2BB10BA9
:100600000A2BB00B042B072B3C30B1000A2B3822ED
:100610007608B400721D0F2BB20B0F2B7317240832
:100620003B3C031C142B232BA401A50A25082E02F6
:1006300003181B2B03191E2B0130A500BC0B232B09
:100640002C170C30BC0008001F302B05031D322B6B
:10065000F21D322B71142408E923F4002508E92344
:10066000F500F11408000B198B1E3C2B0B11451CD7
:100670003C2BC83081027E24031383124F08840070
:100680004E088A004D0E8300F70E770E09000317FF
:100690008312871303130D1203178717F21DE62B1E
:1006A0000130A2060319E62B871E592B8712081E5C
:1006B000E62BF211A10A9001910193019401960198
:1006C000970199019A01711C8D2B00308A007408E2
:1006D0000F390E20A30023181014A3181314231984
:1006E0001614A3191914231A9614A31A9014231B71
:1006F000931400308A00740E0F390E20A3002318C3
:100700001015A318131523191615A3191915231A53
:100710009615A31A9015231B9315F31A1916F11C9D
:10072000B92B00308A0075080F390E20A30023185A
:100730001016A318131623191616A3199916231A9F
:100740009616A31A9016231B931600308A00750E76
:100750000F390E20A30023189017A31893172319FD
:100760009617A3191917231A1617A31A1017231B64
:10077000131771199917F1191A14711A9914F11E96
:10078000DC2B7608A40076080A3A031DC92B0B302F
:10079000A40000308A0024080E20A30023189A1415
:1007A000A318971423199414A3199114231A141538
:1007B000A31A1A15231B1715711B1114F11B111500
:1007C00072181414F2189415721917140313831263
:1007D0000800A001F63E031CEF2BA00AEA2B0A3EFC
:1007E000A00E200408009F149F18F42B000085150C
:1007F000731200001E08993C031C132C1E08873C32
:10080000031C0E2CBD080319172C3822F117711088
:10081000F1107315F310F215BD03172CF3147311B7
:100820001030BB00172CF113F3107311F2150C30BC
:10083000BC000800731685111F1408001F308400C7
:10084000840A80017F300406031D202C08009F309D
:100850008400840A8001EF300406031D292C08005F
:10086000C6011730CC003F30C9003F08CB0008302C
:10087000CA0072244514080080308806CC0B432C33
:100880000A30CC00C60A872C00008813CC0B4B2CF6
:100890003030CC00C60A872C000088176424C60AB2
:1008A0004C0303191A24872CC5188813C60A4C0355
:1008B0000319F323872C00008813C603C603CC0B4F
:1008C000632C45107724872CC510CB0C0318C51456
:1008D000CA0B712CC90A490884000008CB000830F3
:1008E000CA000800383081000B118B1608008B12EB
:1008F00045100514831605148312080004308A007D
:10090000460882073C2C442C4C2C542C5B2C0800B1
:080FF800A834CB34ED340F34B2
:021000000000EE
:084000000000010001000000B6
:02400E00E43C90
:00000001FF
