:020000040000FA
:06000000E6EF13F0120010
:0600080049EF0DF01200AB
:06002A000300ED270000B9
:10003000E000000017000000E727000000020000B9
:1000400006000000E4270000FB01000003000000A0
:10005000D9CFE6FFE1CFD9FF040EE126020EDB6A1D
:10006000BEC1F6FFBFC1F7FF030EF626000EF72252
:100070000800F550080B01E1BCD00B0E01018619F8
:1000800002E1100E871905E1885103E1030EDB6AD6
:100090007ED0170E861902E1100E871908E18851EB
:1000A00006E1020EF36E030EF3CFDBFF70D0180EE5
:1000B000861902E1100E871924E18851040A1AE01A
:1000C000070A12E0010A0AE0030A02E0080E94D0CF
:1000D000060EF36E030EF3CFDBFF12D00A0EF36EA3
:1000E000030EF3CFDBFF0CD00E0EF36E030EF3CF37
:1000F000DBFF06D0120EF36E030EF3CFDBFF00D052
:1001000046D0865102E1200E871908E1885106E1A8
:10011000160EF36E030EF3CFDBFF39D0865102E1EA
:10012000200E871908E1880506E1180EF36E030E0C
:10013000F3CFDBFF2CD0865102E1200E871909E1B5
:10014000020E885D06E1190EF36E030EF3CFDBFF9E
:100150001ED0865102E1200E871909E1030E885D49
:1001600006E11A0EF36E030EF3CFDBFF10D08651BB
:1001700002E1200E871909E1040E885D06E11B0EDD
:10018000F36E030EF3CFDBFF02D0120E35D0DE6A22
:10019000DD6ADECF00F0DDCF01F0FB0EDBCF02F039
:1001A000FC0EDBCF03F001500318E8AE02D003349D
:1001B00004D00250005C035001581BE2FD0EDBCF5F
:1001C000E9FFFE0EDBCFEAFFEF50E66E030EDBCF5A
:1001D000E6FF1EEC0FF0E552E552FD0EDB2AFE0EA7
:1001E00001E3DB2A030EDB2ADF2A010E01E3DB2A0F
:1001F000D0D7020EDB5000D0006E040EE15C02E2AC
:10020000E16AE552E16E0050E552E7CFD9FF1200F6
:10021000D9CFE6FFE1CFD9FF030EE126DE6ADD6A22
:10022000DECF00F0DDCF01F0F90EDBCF02F0FA0EE9
:10023000DBCF03F001500318E8AE02D0033404D042
:100240000250005C0350015820E2FD0EDBCFE9FFB5
:10025000FE0EDBCFEAFFEF50E66EFB0EDBCFE9FFD1
:10026000FC0EDBCFEAFFE552E750EF6EFD0EDB2A16
:10027000FE0E01E3DB2AFB0EDB2AFC0E01E3DB2A88
:10028000DF2A010E01E3DB2ACBD7030EE15C02E299
:10029000E16AE552E16EE552E7CFD9FF1200D9CF0E
:1002A000E6FFE1CFD9FF030EE126DE6ADD6ADECF8D
:1002B00000F0DDCF01F0F90EDBCF02F0FA0EDBCF5C
:1002C00003F001500318E8AE02D0033404D002500A
:1002D000005C0350015820E2FD0EDBCFE9FFFE0E6B
:1002E000DBCFEAFFEF50E66EFB0EDBCFE9FFFC0E43
:1002F000DBCFEAFFE552E750EF6EFD0EDB06FE0EA8
:1003000001E2DB06FB0EDB2AFC0E01E3DB2ADF2A1F
:10031000010E01E3DB2ACBD7030EE15C02E2E16AC6
:10032000E552E16EE552E7CFD9FF1200D9CFE6FFE3
:10033000E1CFD9FF030EE126DE6ADD6ADECF00F0F1
:10034000DDCF01F0F90EDBCF02F0FA0EDBCF03F0C8
:1003500001500318E8AE02D0033404D00250005C10
:100360000350015820E2FD0EDBCFE9FFFE0EDBCF8C
:10037000EAFFEF50E66EFB0EDBCFE9FFFC0EDBCFB2
:10038000EAFFE552E750EF6EFD0EDB2AFE0E01E3B9
:10039000DB2AFB0EDB06FC0E01E2DB06DF2A010E88
:1003A00001E3DB2ACBD7030EE15C02E2E16AE5520E
:1003B000E16EE552E7CFD9FF1200D9CFE6FFE1CFDA
:1003C000D9FF020EE126DE6ADD6ADECF00F0DDCF66
:1003D00001F0F90EDBCF02F0FA0EDBCF03F0015093
:1003E0000318E8AE02D0033404D00250005C03507E
:1003F000015821E2FD0EDBCFF6FFFE0EDBCFF7FF4B
:100400000800F550E66EFB0EDBCFE9FFFC0EDBCFFC
:10041000EAFFE552E750EF6EFD0EDB2AFE0E01E328
:10042000DB2AFB0EDB06FC0E01E2DB06DF2A010EF7
:1004300001E3DB2ACAD7020EE15C02E2E16AE5527F
:10044000E16EE552E7CFD9FF1200D9CFE6FFE1CF49
:10045000D9FF0D0EE126DF6A010EDB6A020EDB6AB0
:10046000030EDB6A040EDB6A050EDB6A060EDB6A2E
:10047000070EDB6AD950FA0FE96EFF0EDA20EA6E3A
:10048000EF50E00BE842E842E842E842E842040A62
:1004900002E1FBEF06F0070A01E1B9D3010A01E12D
:1004A000A0D2020A01E187D1010A02E0FEEF06F0C4
:1004B0000101925113E0030EE66EF70EDBCFE6FF6B
:1004C000F80EDBCFE6FFF90EDBCFE6FF28EC0AF0F3
:1004D000E552E552E552E5520CEF07F0F80EDB501D
:1004E000006E016A00C001F0006AF90EDB500101E4
:1004F0000024866F000E0120876FF70EDBCF88F196
:1005000088C1E6FF86C1E6FF87C1E6FF16EC07F06B
:10051000E552E552E552E76E0A0EE7CFDBFFDB500E
:1005200001E036D1BEC1F6FFBFC1F7FF040EF626CB
:10053000000EF7220900F5CF89F10A00F5CF8AF104
:100540000101946B010195699669BEC1F6FFBFC1B7
:10055000F7FF030EF626000EF7220800F550020BF7
:1005600001E104D1D950FA0FE96EFF0EDA20EA6EEC
:10057000D950FA0FE96EFF0EDA20EA6EEF50020B47
:1005800001E0010E000A01E1A3D0010A01E0D3D08D
:10059000040E006ED950FA0FE96EFF0EDA20EA6EF3
:1005A000EF500C0BE842E842005CE76E080EE7CF24
:1005B000DBFFDBCF00F0BEC1F6FFBFC1F7FF040ECB
:1005C000F626000EF7220900F5CF01F00800F5CF5E
:1005D00002F00050015C000E025868E30101D9509E
:1005E000F60FCB6FFF0EDA20CC6F080EDBCFE6FFE5
:1005F000E66A600EE66E000EE66ECBC1E6FFCCC189
:10060000E6FF4DDE006E060EE15E0050080EDBCF09
:10061000E6FFE66A600EE66E000EE66E19DDE55254
:10062000E552E552E552E76E0A0EE7CFDBFFDB50FD
:100630002AE1080EDBCFE6FFE66ABEC1F6FFBFC1C6
:10064000F7FF060EF626000EF7220900F5CFE6FFAB
:100650000800F5CFE6FF600EE66E000EE66ED8DD10
:10066000006E060EE15E0050F70EDBCFE6FFF80EDF
:10067000DBCFE6FFF90EDBCFE6FFD1EC09F0E55268
:10068000E552E55212D00A0EDBCFE6FFF70EDBCFC4
:10069000E6FFF80EDBCFE6FFF90EDBCFE6FF28EC36
:1006A0000AF0E552E552E552E55211D0040EE66E2D
:1006B000F70EDBCFE6FFF80EDBCFE6FFF90EDBCF60
:1006C000E6FF28EC0AF0E552E552E552E5524DD03E
:1006D000F50EDB50006E016A00C001F0006AF60EF4
:1006E000DB500024956F000E0120966FBEC1F6FF0F
:1006F000BFC1F7FF040EF626000EF7220900F5CF62
:1007000000F00800F5CF01F09551005C96510158BA
:1007100012E2040EE66EF70EDBCFE6FFF80EDBCF3B
:10072000E6FFF90EDBCFE6FF28EC0AF0E552E552D2
:10073000E552E55271D3080EDB6A0101936B0101AA
:10074000010E926F0101E80EA26F030EA36FF70E68
:10075000DBCFE6FFF80EDBCFE6FFF90EDBCFE6FFDF
:10076000D1EC09F0E552E552E55211D0070EE66EE4
:10077000F70EDBCFE6FFF80EDBCFE6FFF90EDBCF9F
:10078000E6FF28EC0AF0E552E552E552E55212D0B8
:100790000A0EDBCFE6FFF70EDBCFE6FFF80EDBCF6E
:1007A000E6FFF90EDBCFE6FF28EC0AF0E552E55252
:1007B000E552E55231D30101920514E00101936B3A
:1007C000030EE66EF70EDBCFE6FFF80EDBCFE6FF9B
:1007D000F90EDBCFE6FF28EC0AF0E552E552E552D0
:1007E000E5521AD3070E006ED950FA0FE96EFF0ECC
:1007F000DA20EA6EEF500E0BE842005CE76E080E5E
:10080000E7CFDBFFDB5001019325006E00500101B3
:10081000895D000E8A590FE2040EE66E88C1E6FF7C
:1008200086C1E6FF87C1E6FF28EC0AF0E552E552F3
:10083000E552E552F1D20101951D01E1961D1AE044
:10084000080EDB5001019325006E00500101955DFB
:10085000000E96590FE2040EE66E88C1E6FF86C1CF
:10086000E6FF87C1E6FF28EC0AF0E552E552E552C3
:10087000E552D2D2D950FA0FE96EFF0EDA20EA6EB5
:10088000EF50100B01E0010E0101945D0FE0010E2D
:10089000E66E88C1E6FF86C1E6FF87C1E6FF28EC69
:1008A0000AF0E552E552E552E552B6D20101D950BF
:1008B000F90FCB6FFF0EDA20CC6F080EDBCFE6FF0F
:1008C000E66A01019351016A600F006E000E012279
:1008D00000C0E6FF01C0E6FFCBC1E6FFCCC1E6FFEA
:1008E000DEDC026E060EE15E0250080EDB500101F6
:1008F00093270101010E926FD950FA0FE96EFF0E96
:10090000DA20EA6EEF50010B5FE00101951D01E175
:10091000961D0FE0951D01E1961D47E001019351E1
:10092000006E016A00500101951902E1015096190B
:100930003CE101019351E66EE66A600EE66E000E40
:10094000E66E28EC00F0E552E552E552E552E76E1E
:100950000A0EE7CFDBFFDB5025E188C1E6FF86C149
:10096000E6FF87C1E6FF62DAE552E552E552010192
:100970009351E66EE66ABEC1F6FFBFC1F7FF060EF1
:10098000F626000EF7220900F5CFE6FF0800F5CFA6
:10099000E6FF600EE66E000EE66E3ADC006E060EB6
:1009A000E15E00500101926B0FD00E0EE66E88C121
:1009B000E6FF86C1E6FF87C1E6FF28EC0AF0E552B4
:1009C000E552E552E55228D294C1E6FFECEC09F07D
:1009D000E5520101E80EA26F030EA36F01019471AD
:1009E0001BD20101925113E0926B030EE66EF70EDB
:1009F000DBCFE6FFF80EDBCFE6FFF90EDBCFE6FF3D
:100A000028EC0AF0E552E552E552E55205D2F80E1F
:100A1000DB50006E016A00C001F0006AF90EDB5085
:100A200001010024866F000E0120876FF70EDBCFD7
:100A300088F188C1E6FF86C1E6FF87C1E6FFF6D9E7
:100A4000E552E552E552E76E0A0EE7CFDBFFDB50D9
:100A500001E0CAD0BEC1F6FFBFC1F7FF040EF62603
:100A6000000EF7220900F5CF89F10A00F5CF8AF1CF
:100A7000BEC1F6FFBFC1F7FF030EF626000EF72238
:100A80000800F550010B01E19DD001011391139372
:100A9000139513971399F90EDBCF12F1F80EDBCFF4
:100AA00011F188C110F11381BEC1F6FFBFC1F7FF7C
:100AB000040EF626000EF7220800080EF5CFDBFF25
:100AC000DB50040857E3080EDBCFE6FF040EE552C7
:100AD000D880E754030BF36EF346F346F30E131579
:100AE000F310136F13830101926BBEC1F6FFBFC1F8
:100AF000F7FF030EF626000EF7220800F550040B50
:100B00001CE0080EDBCFE6FFE66A0F0EE66E010E74
:100B1000E66EBEC1F6FFBFC1F7FF060EF626000E59
:100B2000F7220900F5CFE6FF0800F5CFE6FF45DC28
:100B3000006E060EE15E00501CD0080EDBCFE6FF13
:100B4000E66A0F0EE66E010EE66EBEC1F6FFBFC18D
:100B5000F7FF060EF626000EF7220900F5CFE6FF96
:100B60000800F5CFE6FF96EC01F0006E060EE15EA0
:100B7000005020D0139513971393040EE66EE66A87
:100B80000F0EE66E010EE66ED9CFE6FFDACFE6FF76
:100B900096EC01F0006E060EE15E0050080EDBCF11
:100BA0000FF10101020E926F0101936B0101946B31
:100BB000090EDB6A02EC0AF00101E80EA26F030ED7
:100BC000A36F11D0060EE66EF70EDBCFE6FFF80E30
:100BD000DBCFE6FFF90EDBCFE6FF28EC0AF0E552AB
:100BE000E552E552E55212D00A0EDBCFE6FFF70ED2
:100BF000DBCFE6FFF80EDBCFE6FFF90EDBCFE6FF3B
:100C000028EC0AF0E552E552E552E55205D1020E14
:100C10000101925D12E0030EE66EF70EDBCFE6FFF8
:100C2000F80EDBCFE6FFF90EDBCFE6FF28EC0AF08B
:100C3000E552E552E552E552EFD0D950FA0FE96E90
:100C4000FF0EDA20EA6EEF50100B01E0010E0101F9
:100C5000945D0FE0010EE66E88C1E6FF86C1E6FFF7
:100C600087C1E6FF28EC0AF0E552E552E552E5526D
:100C7000D3D001019351026E036A01010250895DD4
:100C8000006E03508A59016E070E005C000E015879
:100C900008E3090EDB6A070EF36E080EF3CFDBFFE5
:100CA00015D001019351026E036A01010250895D62
:100CB000006E03508A59016E080E00C0DBFF010E62
:100CC000F36E090EF3CFDBFF0101926B080EE66EA7
:100CD000E66A120EE66E010EE66ED9CFE6FFDACFB7
:100CE000E6FF96EC01F0006E060EE15E005088C152
:100CF000E6FF86C1E6FF87C1E6FF98D8E552E552D8
:100D0000E552E76E0A0EE7CFDBFFBEC1F6FFBFC1BB
:100D1000F7FF030EF626000EF7220800F550040B2D
:100D200027E0080EDBCFE6FFE66A120EE66E010E44
:100D3000E66E01019351026E036ABEC1F6FFBFC1A8
:100D4000F7FF060EF626000EF7220900F5500224E2
:100D5000006E0900F5500320016E00C0E6FF01C0DF
:100D6000E6FFDDEC01F0046E060EE15E045026D0D5
:100D7000080EDBCFE6FFE66A120EE66E010EE66EA7
:100D800001019351026E036ABEC1F6FFBFC1F7FFB6
:100D9000060EF626000EF7220900F5500224006E1A
:100DA0000900F5500320016E00C0E6FF01C0E6FF18
:100DB00096EC01F0046E060EE15E0450070E010190
:100DC0009327090EDBCFE6FF94C1E6FF080EDBCFC9
:100DD000E6FF070EE552D880E754E66E08EC0AF00D
:100DE000E552E552E552010194710101E80EA26F4E
:100DF000030EA36F11D00101926B0ED0050EE66EAB
:100E000088C1E6FF86C1E6FF87C1E6FF28EC0AF04D
:100E1000E552E552E552E5520D0EE15C02E2E16A6F
:100E2000E552E16EE552E7CFD9FF1200D9CFE6FFD8
:100E3000E1CFD9FF070EE126050EDB6A060EDB6A5D
:100E40000400050EDB6A060EDB6A080EF36E020E66
:100E5000F3CFDBFFBF0EDE6E230EDD6E650EF36E8D
:100E6000030EF3CFDBFF040EDB6ADECFF6FFDDCF30
:100E7000F7FF0900F5CF00F00800F5CF01F0FD0EF7
:100E8000DBCF02F0FE0EDBCF03F00050025C01501E
:100E9000035834E3050EDBCF04F0060EDBCF05F07C
:100EA000030EDBCF06F0040EDBCF07F00650045C28
:100EB0000750055823E2DECFF6FFDDCFF7FF09002C
:100EC000F5CF00F00800F5CF01F0FD0EDB50001863
:100ED00003E1FE0EDB50011803E1020EDB6A0ED0C7
:100EE000D9CFE9FFDACFEAFF080EEE26000EEF2297
:100EF000050EDB2A060E01E3DB2AB7D7020EDB5014
:100F000066E1110EF36E020EF3CFDBFFDECFF6FFCC
:100F1000DDCFF7FF0900F5CF00F00800F5CF01F0B5
:100F2000FD0EDB50001803E1FE0EDB50011818E146
:100F3000DECFF6FFDDCFF7FF020EF626000EF7221A
:100F40000800F5CF02F0FC0EDB50025C09E2D9CFBD
:100F5000E9FFDACFEAFF080EEE26000EEF22D6D721
:100F6000DECFF6FFDDCFF7FF020EF626000EF722EA
:100F70000800F550E66ED950050FE96EDACFEAFFAA
:100F8000E552E750EE6EED6ADECFF6FFDDCFF7FFFC
:100F90000900F5CF00F00800F5CF01F0FD0EDB50A1
:100FA000001803E1FE0EDB50011811E1DECFF6FF61
:100FB000DDCFF7FF020EF626000EF7220800F5CF70
:100FC00002F0FC0EDB50025C02E1020EDB6A020E54
:100FD000DB5004E1DECFBEF1DDCFBFF1020EDB500E
:100FE00000D0006E070EE15C02E2E16AE552E16EBC
:0A0FF0000050E552E7CFD9FF1200D0
:060FFA00F80E741400085B
:101000000FE2010185890101FD5109E10101810E14
:101010009F6F200EA06FB2D90101010EFD6F04D0A9
:101020000101FD6B0101859912000101B05127E01A
:10103000B00503E1A9C12AF117D0020EB05D03E1AA
:10104000AAC12AF111D0030EB05D03E1ABC12AF1B0
:101050000BD0040EB05D03E1ACC12AF105D0050E42
:10106000B05D02E1ADC12AF1020E2C6F2E6B2D6B2B
:101070002D6B010E2B6F2F8FB00701E1AF6B1200AC
:10108000D9CFE6FFE1CFD9FFE6520F0140B76DD1CE
:10109000A4B6A496A1C1DFFFDFCF00F0050EE76E76
:1010A0000018E8AE02D0E73402D0E750005C01E35C
:1010B0004ED1DFCFE9FFEA6AE9BEEA680C0EEA0228
:1010C000F3CFEAFF0C0EE902F3CFE9FFF450EA2672
:1010D000000EE926010EEA220B0EE926000EEA2296
:1010E000EF50800B01E131D1DFCFE9FFEA6AE9BEC1
:1010F000EA680C0EEA02F3CFEAFF0C0EE902F3CF26
:10110000E9FFF450EA26000EE926010EEA220B0E52
:10111000E926000EEA22EF9EDFCFE9FFEA6AE9BE88
:10112000EA680C0EEA02F3CFEAFF0C0EE902F3CFF5
:10113000E9FFF450EA26000EE926010EEA22090E24
:10114000E926000EEA22EFCF42FFDFCFE9FFEA6A8D
:10115000E9BEEA680C0EEA02F3CFEAFF0C0EE902E0
:10116000F3CFE9FFF450EA26000EE926010EEA2249
:101170000A0EE926000EEA22EFCF41FFDFCFE9FF9A
:10118000EA6AE9BEEA680C0EEA02F3CFEAFF0C0E47
:10119000E902F3CFE9FFF450EA26000EE926010E3A
:1011A000EA22080EE926000EEA22EFCF45FFDFCF44
:1011B000E9FFEA6AE9BEEA680C0EEA02F3CFEAFF49
:1011C0000C0EE902F3CFE9FFF450EA26000EE926FF
:1011D000010EEA22070EE926000EEA22EFCF46FFB3
:1011E000DFCFE9FFEA6AE9BEEA680C0EEA02F3CF54
:1011F000EAFF0C0EE902F3CFE9FFF450EA26000EF5
:10120000E926010EEA22060EE926000EEA22EFCFB9
:1012100047FFDFCFE9FFEA6AE9BEEA680C0EEA029F
:10122000F3CFEAFF0C0EE902F3CFE9FFF450EA2610
:10123000000EE926010EEA22050EE926000EEA223A
:10124000EFCF48FFDFCFE9FFEA6AE9BEEA680C0E9C
:10125000EA02F3CFEAFF0C0EE902F3CFE9FFF45004
:10126000EA26000EE926010EEA22040EE926000E07
:10127000EA22EFCF49FFDFCFE9FFEA6AE9BEEA6879
:101280000C0EEA02F3CFEAFF0C0EE902F3CFE9FFFE
:10129000F450EA26000EE926010EEA22030EE926A2
:1012A000000EEA22EFCF4AFFDFCFE9FFEA6AE9BE8C
:1012B000EA680C0EEA02F3CFEAFF0C0EE902F3CF64
:1012C000E9FFF450EA26000EE926010EEA22020E9A
:1012D000E926000EEA22EFCF4BFFDFCFE9FFEA6AF3
:1012E000E9BEEA680C0EEA02F3CFEAFF0C0EE9024F
:1012F000F3CFE9FFF450EA26000EE926010EEA22B8
:10130000EE52EFCF4CFFDFCFE9FFEA6AE9BEEA68B1
:101310000C0EEA02F3CFEAFF0C0EE902F3CFE9FF6D
:10132000F450EA26000EE926010EEA22EFCF4DFF27
:101330000F01408704000F0140B7FDD7A4B4A49467
:10134000DF50DF2A0101A16F02D0DF2AA5D6DFCF4F
:1013500000F0050EE76E0018E8AE02D0E73402D0C8
:10136000E750005C02E30101A16BE552E552E7CFD3
:10137000D9FF120001011F6B238F12009FC12BF1B7
:10138000A0C12AF185C129F10101286B276B266BC9
:101390002F8F9F6BA06B1200FBC11FF10101238FE8
:1013A0001200D9CFE6FFE1CFD9FF0101138B138DD6
:1013B000139F13911393139513971399FD0EDBCF7E
:1013C00011F1FE0EDBCF12F1FC0EDBCF10F1178F07
:1013D000E552E7CFD9FF1200D9CFE6FFE1CFD9FF21
:1013E0000101138B139D139FFE0EDB501399E8B080
:1013F00013891391139313951397178FE552E7CF22
:10140000D9FF12000101139B138D139F178F120038
:10141000D9CFE6FFE1CFD9FF0101139B139D139FA5
:10142000FE0EDB50070BF36EF346F10E1315F310AF
:10143000136FFD0EDB501399E8B01389FC0EDB50DF
:101440001391E8B01381178FE552E7CFD9FF12004F
:10145000D9CFE6FFE1CFD9FF040EE126FB0EDB502A
:101460001A0A01E15FD1030A01E151D1010A01E148
:1014700043D10F0A01E135D1010A01E12AD1030A62
:1014800001E11BD1010A01E10CD1070A01E1FDD004
:10149000010A01E1EED0030A01E1DFD0010A01E116
:1014A000D0D01F0A01E1C1D0010A01E1B2D0030A84
:1014B00001E1A7D0010A01E198D0070A01E189D032
:1014C000010A01E17AD0030A6CE0010A61E00F0A27
:1014D00054E0010A46E0030A3BE0010A2EE0070A55
:1014E00020E0010A15E0030A0AE0010A01E025D123
:1014F000DE6ADD6A020EDB6A030EDB6A3DD1030E93
:10150000DE6E050EDD6E020EDB6A030EDB6A15D1A0
:10151000040EDE6E050EDD6E020EDB6A030EDB6A64
:101520000CD1040EDE6E050EDD6E010EF36E020EA2
:10153000F3CFDBFF030EDB6A00D1040EDE6E050E77
:10154000DD6EF36E020EF3CFDBFF030EDB6AF5D028
:10155000010EDE6E060EDD6E020EDB6A030EDB6A26
:10156000ECD0010EDE6E060EDD6E010EF36E020E85
:10157000F3CFDBFF030EDB6AE0D0010EDE6E060E5A
:10158000DD6E020EF36EF3CFDBFF030EDB6AD5D008
:10159000020EDE6E060EDD6E020EDB6A030EDB6AE5
:1015A000CCD0040EDE6E060EDD6E410EF36E020E22
:1015B000F3CFDBFF030EDB6AC0D0040EDE6E060E37
:1015C000DD6E420EF36E020EF3CFDBFF030EDB6A1D
:1015D000B4D0040EDE6E060EDD6E470EF36E020E04
:1015E000F3CFDBFF030EDB6AA8D0040EDE6E060E1F
:1015F000DD6E430EF36E020EF3CFDBFF030EDB6AEC
:101600009CD0060EDE6EDD6E020EDB6A030EDB6A18
:1016100094D0070EDE6E060EDD6E100EF36E020E17
:10162000F3CFDBFF030EDB6A88D0070EDE6E060EFB
:10163000DD6E120EF36E020EF3CFDBFF030EDB6ADC
:101640007CD0070EDE6E060EDD6E130EF36E020EFC
:10165000F3CFDBFF030EDB6A70D0090EDE6E060EE1
:10166000DD6E110EF36E020EF3CFDBFF030EDB6AAD
:1016700064D0090EDE6E060EDD6E300EF36E020EC5
:10168000F3CFDBFF030EDB6A58D0090EDE6E060EC9
:10169000DD6E310EF36E020EF3CFDBFF030EDB6A5D
:1016A0004CD0090EDE6E060EDD6E320EF36E020EAB
:1016B000F3CFDBFF030EDB6A40D0090EDE6E060EB1
:1016C000DD6E360EF36E020EF3CFDBFF030EDB6A28
:1016D00034D0DE6A080EDD6E020EDB6A030EDB6AB2
:1016E0002CD0DE6A080EDD6E200EF36E020EF3CFF4
:1016F000DBFF030EDB6A21D0DE6A080EDD6E150EFD
:10170000F36E020EF3CFDBFF030EDB6A16D0DE6A48
:10171000080EDD6E160EF36E020EF3CFDBFF030E26
:10172000DB6A0BD0DE6A080EDD6E170EF36E020E5A
:10173000F3CFDBFF030EDB6A00D00101139B139D87
:10174000138F13911393139513971399FD0EDBCFFA
:1017500011F1FE0EDBCF12F1FC0EDBCF10F1020E09
:10176000DBCF0FF1030EDBCF0EF1DFCF0DF1010E5A
:10177000DBCF0CF1178F926B040EE15C02E2E16AA1
:10178000E552E16EE552E7CFD9FF1200D9CFE6FF6F
:10179000E1CFD9FF030EE12601016BAD4DD06B9D6A
:1017A0006751810A37E0010A25E0820A13E0030A43
:1017B00001E042D0665109E06651006E016A8D5128
:1017C000001802E18E51011804E10101050EFB6FC2
:1017D0006AD832D0665109E06651006E016A8D51B7
:1017E000001802E18E51011804E10101040EFB6FA3
:1017F0005BD822D0665109E06651006E016A8D51B6
:10180000001802E18E51011804E101017F0EFB6F07
:101810004BD812D0665109E06651006E016A8D51B5
:10182000001802E18E51011806E101017F0EFB6FE5
:101830003BD84CEC0FF000D0010147AD02D0479DE2
:101840009DDD010153BD539D5FAD23D05F9D050E0E
:101850000101FB5D1EE154C1E6FF55C1E6FF56C123
:10186000E6FF57C1E6FF58C1E6FF59C1E6FF5AC17E
:10187000E6FF5BC1E6FF5CC1E6FF5DC1E6FF5EC15E
:10188000E6FF5FC1E6FF25EC02F0006E0C0EE15EA4
:101890000050030EE15C02E2E16AE552E16EE552BE
:1018A000E7CFD9FF120012001200D9CFE6FFE1CF37
:1018B000D9FF040EE126010EDB6A0101B10518E132
:1018C0008451010B15E0A9C18BF1010E086F030EC5
:1018D000F0C0DBFFDBCFE7FF0001F151E71A030E99
:1018E000E7CFDBFF020EDB6ADE52010EDD6E47D072
:1018F000020EB15D0FE18451020B0CE0AAC18BF125
:10190000020EF7C0DBFF030EF8C0DBFFDE52010E54
:10191000DD6E35D0030EB15D0FE18451040B0CE098
:10192000ABC18BF1020EF9C0DBFF030EFAC0DBFF87
:10193000DE52010EDD6E23D0040EB15D0FE1845145
:10194000080B0CE0ACC18BF1020EFBC0DBFF030EF9
:10195000FCC0DBFFDE52010EDD6E11D0050EB15D65
:101960000EE18451100B0BE0ADC18BF1020EFDC0F6
:10197000DBFF030EFEC0DBFFDE52010EDD6E010E4B
:10198000DB501BE00101020E8C6F050ED8908B37E7
:101990008C37E806FBE18CC100F0016A00500101C0
:1019A0000A6FE00E8B15096F020E086F030EDBCF76
:1019B00007F1020EDBCF06F10B8F0101B12BA8510D
:1019C000D880B15502E2010EB16F040EE15C02E273
:1019D000E16AE552E16EE552E7CFD9FF12004CEC27
:1019E0000FF0040040EC08F0D1DED7EC13F0010159
:1019F000AF5103E015EC08F005D00101B151010829
:101A000001E253DF0101F00542E10101F06BE0EC7E
:101A100013F001019907000E9A5B010199519A1187
:101A200007E1BADC9BC199F19CC19AF1FDEC07F08A
:101A3000050E0101FB5D11E10101AF510EE1010154
:101A40009D07000E9E5B01019D519E1106E12DDF59
:101A50000101A00E9D6F0F0E9E6F0101925117E0C4
:101A60000101A207000EA35B0101A251A3110FE126
:101A70000101926B020EE66E88C1E6FF86C1E6FFA9
:101A800087C1E6FFE5DCE552E552E552E552A9D70C
:021A9000120042
:0E1A9200DACFE4FFE2CFDAFFE9CFE4FFEACFDC
:101AA000E4FFF3CFE4FFF4CFE4FFE652D9CFE6FF43
:101AB000E1CFD9FF030EE126010E6ECFDBFF020E50
:101AC0006FCFDBFF60AE1FD066CFDAF167CFDBF1FF
:101AD00068CFDCF169CFDDF16ACFDEF16BCFDFF1EA
:101AE0006CCFE0F16DCFE1F16050080B01E0010E29
:101AF0000101E26F62CFE3F161CFE4F165CFE5F17F
:101B0000609EA49020D056CFDAF157CFDBF158CFAA
:101B1000DCF159CFDDF15ACFDEF15BCFDFF15CCFE5
:101B2000E0F15DCFE1F10F015051080B01E0010E32
:101B30000101E26F52CFE3F151CFE4F155CFE5F16E
:101B40000F01509FA492DF6ADFCF0AF0050EE76E07
:101B50000A18E8AE02D0E73402D0E7500A5C01E38D
:101B600044D1DFCFE9FFEA6AE9BEEA680C0EEA0277
:101B7000F3CFEAFFE902F3CFE9FFF450EA263C0E87
:101B8000E926010EEA22090EE926000EEA22EF50AC
:101B90000101E35D01E027D1DFCFE9FFEA6AE9BE99
:101BA000EA680C0EEA02F3CFEAFFE902F3CFE9FF9D
:101BB000F450EA263C0EE926010EEA220A0EE92636
:101BC000000EEA22EF50E45D01E00DD1DFCFE9FF26
:101BD000EA6AE9BEEA680C0EEA02F3CFEAFFE9021C
:101BE000F3CFE9FFF450EA263C0EE926010EEA2283
:101BF000070EE926000EEA22DAC1EFFFDFCFE9FF88
:101C0000EA6AE9BEEA680C0EEA02F3CFEAFFE902EB
:101C1000F3CFE9FFF450EA263C0EE926010EEA2252
:101C2000060EE926000EEA22DBC1EFFFDFCFE9FF57
:101C3000EA6AE9BEEA680C0EEA02F3CFEAFFE902BB
:101C4000F3CFE9FFF450EA263C0EE926010EEA2222
:101C5000050EE926000EEA22DCC1EFFFDFCFE9FF27
:101C6000EA6AE9BEEA680C0EEA02F3CFEAFFE9028B
:101C7000F3CFE9FFF450EA263C0EE926010EEA22F2
:101C8000040EE926000EEA22DDC1EFFFDFCFE9FFF7
:101C9000EA6AE9BEEA680C0EEA02F3CFEAFFE9025B
:101CA000F3CFE9FFF450EA263C0EE926010EEA22C2
:101CB000030EE926000EEA22DEC1EFFFDFCFE9FFC7
:101CC000EA6AE9BEEA680C0EEA02F3CFEAFFE9022B
:101CD000F3CFE9FFF450EA263C0EE926010EEA2292
:101CE000020EE926000EEA22DFC1EFFFDFCFE9FF97
:101CF000EA6AE9BEEA680C0EEA02F3CFEAFFE902FB
:101D0000F3CFE9FFF450EA263C0EE926010EEA2261
:101D1000EE52E0C1EFFFDFCFE9FFEA6AE9BEEA6811
:101D20000C0EEA02F3CFEAFFE902F3CFE9FFF45029
:101D3000EA263C0EE926010EEA22E1C1EFFFDFCFE1
:101D4000E9FFEA6AE9BEEA680C0EEA02F3CFEAFFAD
:101D5000E902F3CFE9FFF450EA263C0EE926010E32
:101D6000EA22080EE926000EEA22E5C1EFFFDFCFE6
:101D7000E9FFEA6AE9BEEA680C0EEA02F3CFEAFF7D
:101D8000E902F3CFE9FFF450EA263C0EE926010E02
:101D9000EA220B0EE926000EEA22EF8CE2510A6ECF
:101DA000DFCFE9FFEA6AE9BEEA680C0EEA02F3CF88
:101DB000EAFFE902F3CFE9FFF450EA263C0EE926F8
:101DC000010EEA220B0EE926000EEA220A50010B50
:101DD000F36EF346F346F346F346F346DF0EEF1495
:101DE000F310EF6E02D0DF2AAFD6C00E741402E0FB
:101DF000749E749CF10E6F16010EDB90DB98DB9ADB
:101E0000DB9CDB9EDB506F12F10E6F16020EDB5077
:101E10006F12030EE15C02E2E16AE552E16EE55207
:101E2000E7CFD9FFE552E5CFF4FFE5CFF3FFE5CFEC
:101E3000EAFFE5CFE9FFE5CFDAFF1100D9CFE6FFF2
:101E4000E1CFD9FFA6B2FED7FE0EDB50A96EFD0E84
:101E5000DB50A86EA69EA69CA684F29E550EA76E89
:101E6000AA0EA76EA682F28EA694E552E7CFD9FFFE
:101E70001200D9CFE6FFE1CFD9FFA694A6B0FED7D6
:101E8000FE0EDB50A96EA69EA69CA680A85000D090
:101E9000E552E7CFD9FF1200D9CFE6FFE1CFD9FF56
:101EA000050EE1260101830EFB6FC26A0F0EC16EA3
:101EB000BD6A806A816A826A92680B0E936E100E08
:101EC000946E070EB46E836A846A956A966AF26AA3
:101ED000C76AC66AC56AE66ACCDFE552A850010146
:101EE0008D6F8E6B020EE66EC4DFE552A8CF9BF1BC
:101EF000A8CF99F1030EE66EBCDFE552A8CF9CF1A6
:101F0000A8CF9AF1060EE66EB4DFE5520101D66F56
:101F1000070EE66EAEDFE5520101D76F080EE66EE2
:101F2000A8DFE5520101D86F090EE66EA2DFE55287
:101F30000101D96FD6C1E0F0D7C1E1F0D8C1E2F01C
:101F4000D9C1E3F00A0EE66E94DFE5520101D66FC7
:101F50000B0EE66E8EDFE5520101D76F0C0EE66EBA
:101F600088DFE5520101D86F0D0EE66E82DFE55283
:101F70000101D96FD6C1E4F0D7C1E5F0D8C1E6F0D0
:101F8000D9C1E7F00E0EE66E74DFE5520101D66F9F
:101F90000F0EE66E6EDFE5520101D76F100EE66E92
:101FA00068DFE5520101D86F110EE66E62DFE5527F
:101FB0000101D96FD6C1E8F0D7C1E9F0D8C1EAF084
:101FC000D9C1EBF0120EE66E54DFE5520101D66F77
:101FD000130EE66E4EDFE5520101D76F140EE66E6A
:101FE00048DFE5520101D86F150EE66E42DFE5527B
:101FF0000101D96FD6C1ECF0D7C1EDF0D8C1EEF038
:10200000D9C1EFF09BC104F29CC105F2010EE66E4E
:1020100030DFE552E76E020EE7CFDBFF160EE66E0D
:1020200028DFE5520101A86F170EE66E22DFE552A8
:102030000101A96F180EE66E1CDFE5520101AA6FBF
:10204000190EE66E16DFE5520101AB6F1A0EE66E51
:1020500010DFE5520101AC6F1B0EE66E0ADFE552A0
:102060000101AD6F020EDB50060A29E0030A21E0F0
:10207000010A19E0070A11E0010A09E0030A01E078
:1020800024D0400EF36E020EF3CFDBFF23D0410EBF
:10209000F36E020EF3CFDBFF1DD0430EF36E020E84
:1020A000F3CFDBFF17D0440EF36E020EF3CFDBFF4E
:1020B00011D0490EF36E020EF3CFDBFF0BD0580E9A
:1020C000F36E020EF3CFDBFF05D0410EF36E020E6E
:1020D000F3CFDBFF8DC18BF101018C6F050ED89022
:1020E0008B378C37E806FBE18CC100F0016A0050A9
:1020F0000101466FE00E01018B150101456F476B31
:102100008DC18BF10101030E8C6F050ED8908B37BA
:102110008C37E806FBE18CC100F0016A0050010138
:10212000526FE00E01018B150101516F536B8DC190
:102130008BF10101060E8C6F050ED8908B378C3712
:10214000E806FBE18CC100F0016A005001015E6FFE
:10215000E00E01018B1501015D6F5F6B6A6B696BAE
:102160006B6B8DC18BF10101020E8C6F050ED89047
:102170008B378C37E806FBE18CC100F0016A005018
:1021800001010A6FE00E01018B150101096F020EBA
:10219000086F0B6B8DC18BF10101070E8C6F050E63
:1021A000D8908B378C37E806FBE18CC100F0016AD0
:1021B00000500101226FE00E01018B150101216F1A
:1021C000010E206F1F6B1E6B1D6B1C6B1B6B1A6B44
:1021D000196B186B236B800E01018D2501018B6F2C
:1021E0008C6B050ED8908B378C37E806FBE18CC1E1
:1021F00000F0016A005001012E6FE00E01018B1505
:1022000001012D6F080E2C6F2F6B800E01018D25A3
:1022100001018B6F050E8C6FD8908B378C37E806D9
:10222000FBE18CC100F0016A00500101166FE00E65
:1022300001018B150101156F080E146F136B116BE3
:10224000126B106B0F6B0E6B0D6B0C6B176B300EF4
:102250006F6E6EAAFED7800E6F6E6EAEFED7020E48
:10226000DB50706EBF0E716E070E726E200E736EB5
:10227000776A0F01186919691A6B1B6B1C691D6954
:102280001E6B1F6B036B026B076B066B0B6B0A6B92
:102290000F6B0E6B136B126B176B166B608A508B88
:1022A000608446C100FF45C101FF52C104FF51C116
:1022B00005FF6AC108FF69C109FF5EC10CFF5DC16E
:1022C0000DFF0CCF10FF0DCF11FF0CCF14FF0DCF62
:1022D00015FF6F6E6F6A6EBEFED7C50ED56EA00E6F
:1022E000D66EB50ECD6E0101F30E976FFC0E986F92
:1022F00098C1CFFF97C1CEFF0101A16BF28CF28E86
:10230000A56A030EA36E0101926B0101856B0101A9
:102310009F6BA06B01011F0E846F0001F06B000129
:10232000F76BF86B0001F96BFA6B0001FB6BFC6B50
:102330000001FD6BFE6B0101010EB16F0101A00EEA
:102340009D6F0F0E9E6F0101858101019F6BA06B38
:1023500001018591E4EC13F00101010EAE6FAE5165
:102360000BE00101050EFB6F0101010EAF6FA8C16B
:10237000B0F115EC08F007D001017F0EFB6FBAEC4D
:1023800009F040EC08F0050EE15C02E2E16AE5527A
:0A239000E16EE552E7CFD9FF12001D
:06239A00030006800500AF
:1023A000020003800100008002FF00010408020017
:1023B0000000000801006008010062080000000140
:1023C0000000260100AF23020000260100AF230316
:1023D0000000260200AF23040000260400AF2305FE
:1023E0000000260100AF23060000260200AF2307ED
:1023F0000000260400AF230010000504008627011A
:1024000010000101008501021000010400B2010565
:10241000100013040000020810000518008A2709A4
:102420001000050400A3270A1000050400A8270BCC
:1024300010000B01008D010C100013020001020DB1
:10244000100013010003021710000B020004021811
:102450001000010100AD271810010B0400E0001866
:1024600010020B0400E4001810030B0400E800182D
:1024700010040B0400EC000012000501009A230078
:1024800012011104009B230012021104009D23007D
:102490001400050100AB230014010104009F230177
:1024A0001400010100AF23021400010100AF230357
:1024B0001400010100AF23001600050100AD230048
:1024C0001601050400B723001602050400BB230013
:1024D0001603050400BB23001604050400BB2300FB
:1024E0001605050400BB23001606050400BB2300E7
:1024F0001607050400BB23001608050400BB2301D2
:102500001600010100AF23021600010100AF2303F2
:102510001600010100AF23001800050100AE2300E2
:102520001801110400A323001802110100A52301C2
:102530001800010100AF23021800010100AF2303BE
:102540001800010100AF23001A00050100AD2300AF
:102550001A01050400B323001A02050400BB23007E
:102560001A03050400BB23001A04050400BB230062
:102570001A05050400BB23001A06050400BB23004E
:102580001A07050400BB23001A08050400BB230139
:102590001A00010100AF23021A00010100AF23035A
:1025A0001A00010100AF230020000B0100A8010068
:1025B00020010B0100A9010020020B0100AA01006B
:1025C00020030B0100AB010020040B0100AC010053
:1025D00020050B0100AD01003000000100AF230019
:1025E0004000000100AF23004000000100AF2300C5
:1025F0005000000100AF23005000000100AF230095
:102600006000010100AB23006001010100F0000245
:102610006000050100AB23026001030100F100032B
:102620006000050100AB23036001010100F2000519
:102630006000050100AB23056001010100F3000605
:102640006000050100AB23066001010100F40007F2
:102650006000050100AB23076001010100F50008DF
:102660006000050100AB23086001010100F60001D4
:102670006400010100AC23016401010200F70001C4
:102680006402010200F900016403010200FB000181
:102690006404010200FD00116400010100AC23117B
:1026A0006401010200F700116402010200F9001147
:1026B0006403010200FB00116404010200FD00003C
:1026C0007000000100AF23008000000100AF230074
:1026D0008000000100AF23009000000100AF230044
:0726E0000000000100AF2320
:0826E8002A0EF66E000EF76EDB
:1026F000000EF86E01010900F550F66F0900F55063
:10270000F76F03E1F66701D03DD00900F550F16F96
:102710000900F550F26F0900F550F36F0900090048
:10272000F550E96E0900F550EA6E0900090009004C
:10273000F550F46F0900F550F56F09000900F6CF68
:10274000F8F1F7CFF9F1F8CFFAF1F1C1F6FFF2C1E4
:10275000F7FFF3C1F8FF0101F45302E1F55307E07D
:102760000900F550EE6EF407F8E2F507F9D7F8C165
:10277000F6FFF9C1F7FFFAC1F8FF0101F607000EF5
:06278000F75BBFD7120059
:0A278600910107014A6F797374692D
:10279000636B5F5F5F434F5F4974616C69612020C9
:0E27A00020200056312E300056312E3000041D
:0227AE00F2A493
:1027B00006D0A00ED66EF2940101010EF06F120049
:0C27C00000D0120000D0120000D0120067
:0427CC0015EE00F016
:1027D00025EE00F0F86A099C74EC13F0EFEC0CF0B5
:0427E000FDD712000F
:0327E400000A00E8
:0627E70080000000D00795
:0327ED00785634E7
:1027F000122143658778563412214365870000FF14
:0428000000000000D4
:020000040030CA
:0100010002FC
:0100020016E7
:010003000EEE
:01000500807A
:0100060001F8
:0100080000F7
:010009008076
:01000A0000F5
:01000B008074
:01000C0000F3
:01000D0000F2
:0200000400F00A
:100000007F02E80400031234567812345678000058
:0E001000000101020304050102030405E803D8
:00000001FF
