:020000040000FA
:0600000037EF0BF01200C7
:0600080022EF00F01200DF
:06002A000200A516000013
:10003000180100000200000086160000E100000028
:040040001F0000009D
:0C004400DACFE4FFE2CFDAFFE9CFE4FFFF
:10005000EACFE4FFF3CFE4FFF4CFE4FFE652D9CFD9
:10006000E6FFE1CFD9FF030EE126010E6ECFDBFFE5
:10007000020E6FCFDBFF60AE1FD066CF02F167CFFD
:1000800003F168CF04F169CF05F16ACF06F16BCFB8
:1000900007F16CCF08F16DCF09F16050080B01E05A
:1000A000010E01010A6F62CF0BF161CF0CF165CF38
:1000B0000DF1609EA49020D056CF02F157CF03F1EE
:1000C00058CF04F159CF05F15ACF06F15BCF07F1B4
:1000D0005CCF08F15DCF09F10F015051080B01E031
:1000E000010E01010A6F52CF0BF151CF0CF155CF28
:1000F0000DF10F01509FA492DF6ADFCF06F0040ECE
:10010000E76E0618E8AE02D0E73402D0E750065C8E
:1001100001E344D1DFCFE9FFEA6AE9BEEA680C0EE9
:10012000EA02F3CFEAFFE902F3CFE9FFF450EA264F
:10013000900EE926000EEA22090EE926000EEA22B8
:10014000EF5001010B5D01E027D1DFCFE9FFEA6A43
:10015000E9BEEA680C0EEA02F3CFEAFFE902F3CF48
:10016000E9FFF450EA26900EE926000EEA220A0E74
:10017000E926000EEA22EF500C5D01E00DD1DFCF41
:10018000E9FFEA6AE9BEEA680C0EEA02F3CFEAFF89
:10019000E902F3CFE9FFF450EA26900EE926000EBB
:1001A000EA22070EE926000EEA2202C1EFFFDFCFA6
:1001B000E9FFEA6AE9BEEA680C0EEA02F3CFEAFF59
:1001C000E902F3CFE9FFF450EA26900EE926000E8B
:1001D000EA22060EE926000EEA2203C1EFFFDFCF76
:1001E000E9FFEA6AE9BEEA680C0EEA02F3CFEAFF29
:1001F000E902F3CFE9FFF450EA26900EE926000E5B
:10020000EA22050EE926000EEA2204C1EFFFDFCF45
:10021000E9FFEA6AE9BEEA680C0EEA02F3CFEAFFF8
:10022000E902F3CFE9FFF450EA26900EE926000E2A
:10023000EA22040EE926000EEA2205C1EFFFDFCF15
:10024000E9FFEA6AE9BEEA680C0EEA02F3CFEAFFC8
:10025000E902F3CFE9FFF450EA26900EE926000EFA
:10026000EA22030EE926000EEA2206C1EFFFDFCFE5
:10027000E9FFEA6AE9BEEA680C0EEA02F3CFEAFF98
:10028000E902F3CFE9FFF450EA26900EE926000ECA
:10029000EA22020EE926000EEA2207C1EFFFDFCFB5
:1002A000E9FFEA6AE9BEEA680C0EEA02F3CFEAFF68
:1002B000E902F3CFE9FFF450EA26900EE926000E9A
:1002C000EA22EE5208C1EFFFDFCFE9FFEA6AE9BE9A
:1002D000EA680C0EEA02F3CFEAFFE902F3CFE9FF86
:1002E000F450EA26900EE926000EEA2209C1EFFF3B
:1002F000DFCFE9FFEA6AE9BEEA680C0EEA02F3CF53
:10030000EAFFE902F3CFE9FFF450EA26900EE9266E
:10031000000EEA22080EE926000EEA220DC1EFFFC8
:10032000DFCFE9FFEA6AE9BEEA680C0EEA02F3CF22
:10033000EAFFE902F3CFE9FFF450EA26900EE9263E
:10034000000EEA220B0EE926000EEA22EF8C0A517B
:10035000066EDFCFE9FFEA6AE9BEEA680C0EEA0240
:10036000F3CFEAFFE902F3CFE9FFF450EA26900E5B
:10037000E926000EEA220B0EE926000EEA220650BC
:10038000010BF36EF346F346F346F346F346DF0EF6
:10039000EF14F310EF6E02D0DF2AAFD6C00E741444
:1003A00002E0749E749CF10E6F16010EDB90DB98D8
:1003B000DB9ADB9CDB9EDB506F12F10E6F16020E98
:1003C000DB506F12030EE15C02E2E16AE552E16E7E
:1003D000E552E7CFD9FFE552E5CFF4FFE5CFF3FFD4
:1003E000E5CFEAFFE5CFE9FFE5CFDAFF1100D9CF8E
:1003F000E6FFE1CFD9FFA6B2FED7FE0EDB50A96E15
:10040000FD0EDB50A86EA69EA69CA684F29E550EFD
:10041000A76EAA0EA76EA682F28EA694E552E7CF2B
:10042000D9FF1200D9CFE6FFE1CFD9FFA694A6B03D
:10043000FED7FE0EDB50A96EA69EA69CA680E552B6
:10044000E7CFD9FF1200D9CFE6FFE1CFD9FF0A0EDF
:10045000E126020EDB6A030EDB6A090EDB6A00018D
:10046000E16B800E6F6E6EAEFED7430E706EBF0EE8
:10047000716E070E726E200E736E030EA56E030E64
:10048000A36EDE6A9F0EDD6EDECF00F0DDCF01F0E1
:1004900001C000F0016A00500001B26FDECF00F031
:1004A000DDCF01F0E00E00140001B16F0001B39D3B
:1004B000B2C000FFB1C001FF608A0F01508B0F0175
:1004C00018690F0119690F011A6B0F011B6B0F01DE
:1004D0001C690F011D690F011E6B0F011F6B0F01BE
:1004E000036B0F01026B0F01076B0F01066B0F010E
:1004F0000B6B0F010A6B0F010F6B0F010E6B0F01DE
:10050000136B0F01126B0F01176B0F01166B00CFEE
:1005100004FF01CF05FF00CF08FF01CF09FF00CF87
:100520000CFF01CF0DFF00CF10FF01CF11FF00CF57
:1005300014FF01CF15FF0F0E6F166EBEFED7F28CA3
:10054000F28EF80EDE6E030EDD6ED9CFE9FFDACF44
:10055000EAFF050ED890EE36ED36E806FBE1DECF79
:1005600000F0DDCF01F001C000F0016A00500F0182
:10057000416FDECF00F0DDCF01F0E00E00140F017F
:10058000426F0F01060E456F0F01466B0F01476B5F
:100590000F01486B0F01496B0F014A6B0F014B6B49
:1005A000040EDB6A050EDB6A060EDB6A070EDB6AE9
:1005B000020EDB6A030EDB6A0400020E846ED95061
:1005C000040FE96EDACFEAFFEFCF00F0EE2A000E5B
:1005D000EFCF01F0EE22EFCF02F0EE22EFCF03F0EB
:1005E000EF22800E005C380E0158010E0258000EFA
:1005F00003580AE3831E821E040EDB6A050EDB6AC3
:10060000060EDB6A070EDB6A0001B3AD57D00001AE
:10061000B39D0001AF510001C06FC16B00010F0E0F
:10062000D880C055000EC1553BE3010EF36E090E94
:10063000F3CFDBFFC0C0E6FFE66AD9DEE552E55244
:10064000AEC0E6FF010EE66ED2DEE552E552ADC069
:10065000E6FF020EE66ECBDEE552E552ACC0E6FFE9
:10066000030EE66EC4DEE552E552ABC0E6FF040EB3
:10067000E66EBDDEE552E552AAC0E6FF050EE66E67
:10068000B6DEE552E552AFC046FFAEC047FFADC093
:1006900048FFACC049FFABC04AFFAAC04BFF0ED019
:1006A000080EDB6A080EDB50020808E30F0140B7B2
:1006B000FDD70F014087080EDB2AF4D7090EDB5067
:1006C00001E17AD7040EDB6A050EDB6A060EDB6AEF
:1006D000070EDB6A020EDB68030EDB6A8368826842
:1006E0000400D950040FE96EDACFEAFFEE2A000EBB
:1006F000EE22EE22EE22D950040FE96EDACFEAFFA5
:10070000D880500EEE54C30EEE54000EEE54000E80
:10071000EE54E7E2040EDB6A050EDB6A060EDB6AC6
:10072000070EDB6A020EDB50826E020EDB50836E18
:10073000D950020FE96EDACFEAFF010ED890EE36FB
:10074000ED36E806FBE1D950020FE96EDACFEAFF99
:10075000EE90ED6AD950020FE96EDACFEAFFEE5063
:10076000ED1004E1020EDB68030EDB6A0F0140B7F7
:1007700002D00F014087B4D70A0EE15C02E2E16AC1
:10078000E552E16EE552E7CFD9FF1200D9CFE6FF7F
:10079000E1CFD9FF030EE1260001830EE16FC26AAB
:1007A0000F0EC16E070EB46EBD6A92680B0E936E8B
:1007B000946A956A966A806A816A826A836A846AA0
:1007C0000001030EFC6F45EC08F00001E651200B20
:1007D00004E0E651400B01E036DEA694E66A22DE34
:1007E000E552A8500001C06FC16B020EE66E1ADE22
:1007F000E552A8CFC6F0A8CFC4F0030EE66E12DE15
:10080000E552A8CFC5F0A8CFC3F0050EE66E0ADE0C
:10081000E552A828FE0BE8420001C86FA828FE0B8D
:10082000E8420001C76F010EE66EFCDDE552020EE4
:10083000A8CFDBFFDB50060A29E0030A21E0010A0A
:1008400019E0070A11E0010A09E0030A01E024D0D7
:10085000400EF36E020EF3CFDBFF23D0410EF36E9A
:10086000020EF3CFDBFF1DD0430EF36E020EF3CF6B
:10087000DBFF17D0440EF36E020EF3CFDBFF11D077
:10088000490EF36E020EF3CFDBFF0BD0580EF36E62
:10089000020EF3CFDBFF05D0410EF36E020EF3CF55
:1008A000DBFFC76AC66AC56AC0C000F10101016FFB
:1008B000050ED89000370137E806FBE101C100F0D2
:1008C000016A005000019A6FE00E0101001500015D
:1008D000996F9B6BC0C000F10101030E016F050E03
:1008E000D89000370137E806FBE101C100F0016A4A
:1008F00000500001A66FE00E010100150001A56F78
:10090000A76BB26BB16BB36B300E6F6E6EAAFED776
:10091000800E6F6E6EAEFED7020EDB50706EBF0E95
:10092000716E070E726E200E736E030EA56EA36EAF
:100930000F01186919691A6B1B6B1C691D691E6B05
:100940001F6B036B026B076B066B0B6B0A6B0F6BFA
:100950000E6B136B126B176B166B608A6084508B77
:100960009AC000FF99C001FFA6C004FFA5C005FF03
:10097000B2C008FFB1C009FF08CF0CFF09CF0DFFBF
:1009800008CF10FF09CF11FF08CF14FF09CF15FFC3
:10099000200E6F6E6F6A6EBEFED7800E0001C025FE
:1009A0000101006F010E016F050ED890003701376D
:1009B000E806FBE101C100F0016A005000016A6F26
:1009C000E00E010100150001696F080E686F6B6B86
:1009D000C0C000F10101070E016F050ED89000376D
:1009E0000137E806FBE101C100F0016A0050000197
:1009F000766FE00E010100150001756F010E746F36
:100A0000736B726B716B706B6F6B6E6B6D6B6C6B12
:100A1000776B800E0001C0250101006F016B050E90
:100A2000D89000370137E806FBE101C100F0016A08
:100A300000500001826FE00E010100150001816F7E
:100A4000050E806F836B800E0001C0250101006FD1
:100A5000050E016FD89000370137E806FBE101C1B0
:100A600000F0016A005000018E6FE00E01010015D8
:100A700000018D6F080E8C6F8F6BC50ED56EA00EAA
:100A8000D66EB50ECD6E0001F30EC16FFC0EC26FB7
:100A9000C2C0CFFFC1C0CEFFF28CF28E00017F0E2C
:100AA000E16F0001DE6B0001F96B0001FA6B0001E0
:100AB000FB6BDF6A070EDF5C17E2DF50EA6AE30FC9
:100AC000E96E000EEA22EF6ADF50EA6AEA0FE96E89
:100AD000000EEA22EF6ADF50EA6AF10FE96E000EBB
:100AE000EA22EF6ADF2AE6D70001F86BDF6A060E1A
:100AF000DF5C17E2DF50EA6ACC0FE96E000EEA22F3
:100B0000EF6ADF50EA6AD20FE96E000EEA22EF6A5E
:100B1000DF50EA6AD80FE96E000EEA22EF6ADF2A98
:100B2000E6D70001FC6B0001E08F0001DF6B0001E4
:100B3000050EFD6F00010A0EFE6F0001F40EC96F75
:100B4000010ECA6F41EC07F0C7EC05F0030EE15C43
:100B500002E2E16AE552E16EE552E7CFD9FF120009
:100B60007450200B01E0010EF80B00080FE20101A8
:100B700018510BE10001100E7F6F7E6B800E7E6FAF
:0E0B8000838F0101010E186F01D0186B120057
:020B8E00D9CFBD
:100B9000E6FFE1CFD9FFE6520F0140B76DD1A4B611
:100BA000A496DFC0DFFFDFCF00F0040EE76E001871
:100BB000E8AE02D0E73402D0E750005C01E34ED14A
:100BC000DFCFE9FFEA6AE9BEEA680C0EEA02F3CF7A
:100BD000EAFF0C0EE902F3CFE9FFF450EA26600EBB
:100BE000E926000EEA220B0EE926000EEA22EF505B
:100BF000800B01E131D1DFCFE9FFEA6AE9BEEA68A3
:100C00000C0EEA02F3CFEAFF0C0EE902F3CFE9FF84
:100C1000F450EA26600EE926000EEA220B0EE926C1
:100C2000000EEA22EF9EDFCFE9FFEA6AE9BEEA683A
:100C30000C0EEA02F3CFEAFF0C0EE902F3CFE9FF54
:100C4000F450EA26600EE926000EEA22090EE92693
:100C5000000EEA22EFCF42FFDFCFE9FFEA6AE9BEEA
:100C6000EA680C0EEA02F3CFEAFF0C0EE902F3CFBA
:100C7000E9FFF450EA26600EE926000EEA220A0E89
:100C8000E926000EEA22EFCF41FFDFCFE9FFEA6A53
:100C9000E9BEEA680C0EEA02F3CFEAFF0C0EE902A5
:100CA000F3CFE9FFF450EA26600EE926000EEA22AF
:100CB000080EE926000EEA22EFCF45FFDFCFE9FF5D
:100CC000EA6AE9BEEA680C0EEA02F3CFEAFF0C0E0C
:100CD000E902F3CFE9FFF450EA26600EE926000EA0
:100CE000EA22070EE926000EEA22EFCF46FFDFCF09
:100CF000E9FFEA6AE9BEEA680C0EEA02F3CFEAFF0E
:100D00000C0EE902F3CFE9FFF450EA26600EE92663
:100D1000000EEA22060EE926000EEA22EFCF47FF78
:100D2000DFCFE9FFEA6AE9BEEA680C0EEA02F3CF18
:100D3000EAFF0C0EE902F3CFE9FFF450EA26600E59
:100D4000E926000EEA22050EE926000EEA22EFCF80
:100D500048FFDFCFE9FFEA6AE9BEEA680C0EEA0263
:100D6000F3CFEAFF0C0EE902F3CFE9FFF450EA26D5
:100D7000600EE926000EEA22040EE926000EEA22A1
:100D8000EFCF49FFDFCFE9FFEA6AE9BEEA680C0E60
:100D9000EA02F3CFEAFF0C0EE902F3CFE9FFF450C9
:100DA000EA26600EE926000EEA22030EE926000E6E
:100DB000EA22EFCF4AFFDFCFE9FFEA6AE9BEEA683D
:100DC0000C0EEA02F3CFEAFF0C0EE902F3CFE9FFC3
:100DD000F450EA26600EE926000EEA22020EE92609
:100DE000000EEA22EFCF4BFFDFCFE9FFEA6AE9BE50
:100DF000EA680C0EEA02F3CFEAFF0C0EE902F3CF29
:100E0000E9FFF450EA26600EE926000EEA22EE52CF
:100E1000EFCF4CFFDFCFE9FFEA6AE9BEEA680C0ECC
:100E2000EA02F3CFEAFF0C0EE902F3CFE9FFF45038
:100E3000EA26600EE926000EEA22EFCF4DFF0F01F1
:100E4000408704000F0140B7FDD7A4B4A494DF503D
:100E5000DF2A0001DF6F02D0DF2AA5D6DFCF00F046
:100E6000040EE76E0018E8AE02D0E73402D0E75077
:100E7000005C02E30001DF6BE552E552E7CFD9FFEA
:100E800012000001736B778F1200D9CFE6FFE1CF1C
:100E9000D9FF00017F6B500E7E6FFE0EDBCF7DF021
:100EA000FD0EDBCF7CF07B6B7A6B796B786B080E79
:100EB000806F838FE552E7CFD9FF1200E1C073F056
:100EC0000001778F1200F1C067F0F2C066F0F3C046
:100ED00065F0F4C064F0F5C063F0F6C062F0F7C0EE
:100EE00061F00001606B080E686F6B8F1200D9CF44
:100EF000E6FFE1CFD9FF020EE126DF6AC6D8000186
:100F0000FC2B070EFC5D03E2000EB3D001D0FC6B9E
:100F1000010EDB6A070EF36E010EDBCFF4FFF35018
:100F2000F45C1AE2010EDB50EA6AEA0FE96E000E89
:100F3000EA22EFCF00F0010EDB50EA6AE30FE96E20
:100F4000000EEA22EF5000010018DF6EDF5001E0D2
:100F500003D0010EDB2ADED7DF505AE10001F8058D
:100F600057E10001C707C751000803E2000E81D016
:100F70004ED0010EDB6A070EF36E010EDBCFF4FFDD
:100F8000F350F45C1AE2010EDB50EA6AEA0FE96EF4
:100F9000000EEA22EFCF00F0010EDB50EA6AF10FFB
:100FA000E96E000EEA22EF5000010018DF6EDF50FC
:100FB00001E003D0010EDB2ADED7DF5027E0010E6F
:100FC000DB6A070EF36E010EDBCFF4FFF350F45C27
:100FD00016E2010EDB50EA6AEA0FE96E000EEA2221
:100FE000EF50E66E010EDB50EA6AF10FE96E000E7B
:100FF000EA22E552E750EF6E010EDB2AE2D7C8C0C5
:10100000C7F00001F86B010E34D001D02CD031D0E4
:10101000DF5029E00001F85126E1010EDB6A070EDE
:10102000F36E010EDBCFF4FFF350F45C16E2010E19
:10103000DB50EA6AE30FE96E000EEA22EF50E66E3B
:10104000010EDB50EA6AEA0FE96E000EEA22E55271
:10105000E750EF6E010EDB2AE2D70001010EF86FB8
:10106000000E07D006D00001F86BC8C0C7F0000E14
:1010700000D0006E020EE15C02E2E16AE552E16E30
:101080000050E552E7CFD9FF1200D9CFE6FFE1CFFC
:10109000D9FF020EE1264BD90001FC51060A3DE0C2
:1010A000030A33E0010A29E0070A1FE0010A15E0FC
:1010B000030A0BE0010A01E03AD081884CD8E76EC0
:1010C000010EE7CFDBFF819832D0818A44D8E76EEA
:1010D000010EE7CFDBFF819A2AD0818C3CD8E76EE6
:1010E000010EE7CFDBFF819C22D0818E34D8E76EE2
:1010F000010EE7CFDBFF819E1AD084802CD8E76EEB
:10110000010EE7CFDBFF849012D0848224D8E76EF3
:10111000010EE7CFDBFF84920AD084841CD8E76EEF
:10112000010EE7CFDBFF84940001FB6F00D00001CC
:10113000FC51EA6AE30FE96E000EEA22010EDBCFF2
:10114000EFFF020EE15C02E2E16AE552E16EE55278
:10115000E7CFD9FF1200D9CFE6FFE1CFD9FF030EC9
:10116000E126DE6ADD6ADECF00F0DDCF01F0D89047
:10117000015004E6420E005C000E015805E2DF2A31
:10118000010E01E3DB2AEFD7020EDB6A80CFDBFF23
:10119000D950020FE96EDACFEAFF8150010B02E06D
:1011A000EF8C01D0EF9CD950020FE96EDACFEAFF45
:1011B0008150020B02E0EF8E01D0EF9E020EDB5059
:1011C000006E030EE15C03E200D0E16AE552E16EDD
:1011D0000050E552E7CFD9FF1200D9CFE6FFE1CFAB
:1011E000D9FF030EE126836A826A0001E08F050EB3
:1011F0000001E15D01E087D0F951020A59E0030ADC
:101200002DE0010A01E07FD084928494CCC0DFFFFE
:10121000010ECDC0DBFF0001D851DF1A010EDBCF7C
:10122000E7FFD951E71A010EE7CFDBFF020EDB6AB9
:10123000050EF36E020EDBCFF4FFF350F45C03E215
:10124000020EDB2AF5D70001E051800B02E084801A
:1012500001D084900001010EF96F55D084908494E0
:10126000CEC0DFFF010ECFC0DBFF0001DA51DF1A75
:10127000010EDBCFE7FFDB51E71A010EE7CFDBFF03
:10128000020EDB6A050EF36E020EDBCFF4FFF350A5
:10129000F45C03E2020EDB2AF5D70001E051800B7B
:1012A00002E0848201D084920001020EF96F2BD0FB
:1012B00084908492D0C0DFFF010ED1C0DBFF00011B
:1012C000DC51DF1A010EDBCFE7FFDD51E71A010E1B
:1012D000E7CFDBFF020EDB6A050EF36E020EDBCFFB
:1012E000F4FFF350F45C03E2020EDB2AF5D70001B1
:1012F000E051800B02E0848401D084940001010E4F
:10130000FA6FF96B00D0DF50836E010EDB50826EF6
:101310009E90C2C0CFFFC1C0CEFF030EE15C02E2CF
:10132000E16AE552E16EE552E7CFD9FF1200849001
:1013300084928494836A826A1200D9CFE6FFE1CF57
:10134000D9FF030EE126F3DF06DFDF6EDF5012E088
:101350000001FD070EE1040EE16FDFCFE6FF840E12
:10136000E66E93DDE552E5520001050EFD6F0A0EB3
:10137000FE6F0CD00001FE0709E1050EFD5D02E2E3
:10138000010E01D0000EFD270A0EFE6F030EE15C78
:1013900002E2E16AE552E16EE552E7CFD9FF1200C1
:1013A000D9CFE6FFE1CFD9FFE6520001C907000E11
:1013B000CA5BC951CA112AE1DF6ADFCF00F0060E0D
:1013C000E76E0018E8AE02D0E73402D0E750005CC8
:1013D00018E2DFCFE9FFEA6AE9BEEA68D20EE92641
:1013E000000EEA22EFCF00F0DFCFE9FFEA6AE9BEA4
:1013F000EA68D80EE926000EEA220050EF1ADF2A2A
:10140000DCD70001F40EC96F010ECA6FE552E55238
:10141000E7CFD9FF1200D9CFE6FFE1CFD9FF030E06
:10142000E1260001B3AD37D0B39DAF51810A27E06B
:10143000010A1BE0820A0FE0030A01E02CD0AE5142
:1014400003E0C051AE5D06E10001050EE16FFD6FE6
:101450001CDE39DD20D0AE5103E0C051AE5D04E1A9
:101460000001040EE16F63DF16D0AE5103E0C051FE
:10147000AE5D04E100017F0EE16F59DF0CD0AE518B
:1014800003E0C051AE5D06E100017F0EE16F4FDF6A
:10149000C6EC03F000D000019BAD0DD09B9D97C022
:1014A000CCF096C0CDF095C0CEF094C0CFF093C0F4
:1014B000D0F092C0D1F0A7AD2BD0A79DA3C0D2F0A1
:1014C000A2C0D3F0A1C0D4F0A0C0D5F09FC0D6F088
:1014D0009EC0D7F0DF6ADFCF00F0060EE76E00187F
:1014E000E8AE02D0E73402D0E750005C0CE2DFCF78
:1014F000E9FFEA6AE9BEEA68D80EE926000EEA22A8
:10150000EF6ADF2AE8D70001F40EC96F010ECA6F37
:10151000030EE15C02E2E16AE552E16EE552E7CFDB
:10152000D9FF1200D9CFE6FFE1CFD9FF080EE1269F
:10153000B00E9C6EC6EC03F0E66A800EE66EA5DC8B
:10154000E552E5520400C7EC05F065DFF2A411D0C6
:10155000A00ED66EF2940001C307000EC45B00011A
:10156000C351C41105E1AADCC5C0C3F0C6C0C4F0B4
:1015700017DF9EA022D09E90050E0001E15D1DE1C7
:101580000001FB0508E1D9DE050E0001FD5D02E169
:101590000001FB6B0DD00001FA050AE1050E000108
:1015A000E15D06E1A4DC000901E08DDC0001FA6BDD
:1015B000050E0001E15D01E110DEC4D7080EE15C1B
:1015C00002E2E16AE552E16EE552E7CFD9FF12008F
:1015D0002A0EF66E000EF76E000EF86E010109007D
:1015E000F550136F0900F550146F03E1136701D034
:1015F0003DD00900F5500E6F0900F5500F6F09003E
:10160000F550106F09000900F550E96E0900F5501A
:10161000EA6E090009000900F550116F0900F55044
:10162000126F09000900F6CF15F1F7CF16F1F8CFC8
:1016300017F10EC1F6FF0FC1F7FF10C1F8FF01014E
:10164000115302E1125307E00900F550EE6E110745
:10165000F8E21207F9D715C1F6FF16C1F7FF17C157
:0E166000F8FF01011307000E145BBFD7120044
:02166E0015EE77
:1016700000F025EE00F0F86A059CE8EC0AF092EC28
:061680000AF0FDD7120084
:0A168600000A000000000000000050
:10169000000000000000000000000000000000004A
:0516A0000000050A0036
:0216A500000043
:020000040030CA
:0100010001FD
:0100020011EC
:0100030001FB
:0100050000FA
:010006008178
:0100080000F7
:0100090000F6
:01000A0000F5
:01000B0000F4
:01000C0000F3
:01000D0000F2
:0200000400F00A
:0A000000030203E8000309090909DF
:00000001FF
