:020000040000FA
:060000008A018301A7281C
:02000800BE2B0D
:06000A00820704342434D7
:10001000143434340C342C341C343C348207003413
:1000200000340134013482070134003401340034D7
:1000300082070034013401340034DC0082072728B1
:100040002A282D2830283328362839283C28051816
:1000500057143E28851857143E28051957143E2872
:10006000851957143E28861B57143E28051B571424
:100070003E28851B57143E28061B5714DC0A2C0803
:10008000A500DC0B44284628A50C41285708A506E6
:10009000D70CA50CD70D0800DC0029195D285C0AD7
:1000A000F3002C08A500F30B56285828A50C53285C
:1000B0005708A506D70CA50CD70D5C088207672842
:1000C0006C28712876287B28802885288A28571C48
:1000D0000510571805148E28571C851057188514BD
:1000E0008E28571C0511571805158E28571C851189
:1000F000571885158E28571C8613571886178E2873
:10010000571C0513571805178E28571C85135718A9
:1001100085178E28571C0613571806172919A62865
:10012000D701D801DB015B081D20D70CD80CDB0AF6
:100130005B08043A031D93285808D700D70E0F30E8
:10014000D7055708EE002930ED005026080083122D
:100150008B1307309F0085018601E101E2018316C0
:100160008C018B30810020308500E0308500FF302D
:100170008600A03084003030F40003018000840A3F
:10018000F40BBE28D03084001E30F400FF30800015
:10019000840AF40BC7288312F401423084008001E2
:1001A000840AF40A741ECF28BC01BD01A801A9016C
:1001B000C0010830B700BB000130FB0026268316C3
:1001C0008E1483120530A1000F30A0004630A2002B
:1001D0003230A3001430C100291529304726D7003A
:1001E000F40174084C20D70CF40A741DF12829116D
:1001F000FC308F0050308E000C1001309000903099
:100200008B0064000C1C1F290C10FC308F00503038
:100210008E00A10B0E2965290530A100A00B132922
:10022000472A0F30A000A20B1A29A42AF72A462B2E
:100230003230A200A30B1F2920293230A30001294C
:10024000B71D4229851A2814851E2810013028055B
:100250002910A904E300280C6306E200621C42296D
:1002600028193429281542292811FD30A805630DC5
:100270000239A8042E304726B800B900B701013072
:100280006305E4009B2363086106E200E2080319AA
:10029000642928194D292815642928116308E100CB
:1002A0000430F300DF01E208031964290310E20CB3
:1002B000031C5E2901306305E400A824E30CF30B62
:1002C00062296429DF0A53291D2928120630A40057
:1002D000D0308400FF300006031D732905308407E9
:1002E000A40B6A29462A0408F60076088400000850
:1002F000F800840A0008F900840A0008FA00840A59
:100300000008FB00840A0008FC007808553A03192D
:10031000AB297808AA3A031992297808773A031981
:10032000A7293F2AC825281F3F2A7B08ED007C0803
:10033000EE0050262626BC2501307906031D3F2AF3
:100340003A307B02323EED00EE0150263F2AC825AE
:10035000281BBC253F2A7908103A0319C8297908B7
:10036000113A0319D8297908003A0319FE297908A6
:10037000463A0319FE297908223A0319D029790847
:10038000023A0319FE297908213A03192C2A3F2A37
:10039000C825281F3F2A1C250030F9008A253F2A3E
:1003A000C825281F3F2A1C250230F9008A253F2A2C
:1003B000BB19DC29A915FD29BB01C001FA080319E5
:1003C000EB293B086A3E47267A060319EB29BB0A4C
:1003D000BB19FD29E1292D304726BD00BE00A81517
:1003E0002C304726BC007A08BA00BB017C08BF004D
:1003F000FB080319FD290230BF073F2AA813A030CC
:1004000084000630F400000803191F2A0408F500D0
:100410000330840700087A06031D1F2A7908463A2C
:1004200003191B2A840A00087B0503191F2A0330BD
:10043000840700089625750884008001252AF40B9E
:10044000222A252A08308407032ADA015A08962529
:10045000DA0A5A1D262A3F2AC825281F3F2A0130BA
:10046000F9009B236308FB00AC235708FC00CE2552
:10047000A81B3C2A44263F2A0130F7000626A9196A
:10048000452A76088400FF308000A9110C29A0308D
:1004900084000630DD00000803195A2A0408F5001C
:1004A000000E0F39A4000319602AA4030F30800541
:1004B000240E8004DD0B5D2AA12A083084074B2A14
:1004C000A8160108DE00031D672A2A08DE070618A1
:1004D0006B2AA812A12AA81EA12ADE0B672AA81E31
:1004E000A12A8316861083128B1386100630F4001F
:1004F00075088400840A0008A4000830F300353031
:100500005E245B3059243F305E245B30A40C03181A
:100510003F3059243F305E24F30B852A3F30592465
:10052000F40B7A2A750884000F308005800B992A15
:100530009B2AF030800486148B108B178316861448
:1005400083128B108B171129BB19F52ABD0BF62AC4
:10055000A81DAE2A3E08BD00A811F62A3C08BD0021
:10056000BA08031DBA2A3B082D3E84008008031DEB
:10057000C62AC02A3B086A3E47263A060319C62AFD
:100580000310C00CBB0ABB1DB02AEC2AA91403142B
:10059000C00C5530F8001030F90002303F02031C47
:1005A000D32A2230F9002A08FA00FB013B0AA500F1
:1005B0000314FB0DA50BD92AFC0101303F050319DB
:1005C000E32A7B08FC001C25BB0ABB19EC2A3C086B
:1005D0000319B02ABD00F62AA91CF62A0030F9003A
:1005E0002A08FA004008FB008A25A9101629B71925
:1005F000452BB90B452B0830FE0037085A3E4726DD
:10060000FA00FA08031D102B3708623E4726FA004D
:10061000FF307A06031D362BB70AB719452BFB2A84
:100620003708623E4726FB00FC003708213E47267C
:10063000A500003A0319252B2230F9002508013ABC
:10064000031D232B292BFC01292BA81CFC01103096
:10065000F9005530F8000330F7002A087A06031D28
:100660003E2BE025A81F432BF525422BF224013A0F
:1006700003193E2BB70AB719452BFB2ACE25A81F15
:10068000432B0626B70A3808B9001729C10B692B76
:10069000DA015A084A3E840080080319642B800B53
:1006A000642B5A08423E8400800803195E2B8003A5
:1006B0005A084A3E84003C308000642B0030D7004A
:1006C0005A084C205A086A23DA0A5A1D492B14305A
:1006D000C1001829A5005530F8000030F9002A089B
:1006E000FA00A50AFB010314FB0DA50B742BAC2328
:1006F0005708FC000130F700CE25A81B812B4426AB
:10070000822B06260800A4002408423E84008001B3
:100710002408523E4726D2000F305202031C932B6E
:10072000800AD2008C2B083084070310D20DD20D22
:10073000520880000800E301DF010430F300831653
:10074000FF3086008312061963148619E314061A13
:100750006315861AE3150800D701D801DB015B0891
:100760001D20D70CD80CDB0A5B08043A031DAF2B05
:100770005808D700D70E0F30D7050800F100030E38
:10078000E5008301E5000408E6006400A00A1010FB
:100790002812A8120630E800D0308400FF3000068E
:1007A0000319DB2B05308407E80BCE2B8317203091
:1007B0008400FF3080000408EC007830EB00061C59
:1007C000E52BEB0BDF2B28161B2C0530EA0047240A
:1007D000281A1B2C6708A700A70CA70CA70CA70CAE
:1007E00027080F396702A70028244724281A1B2C42
:1007F00068088000EA0BFD2BFF2B840AE72B4724B7
:10080000281A1B2C6708A700A70CA70CA70CA70C7D
:1008100027080F396702A7002824281A1B2C053047
:10082000EA0003010007EA0B162C182C8403122C93
:10083000680603191F2C6C088400FF308000101418
:1008400066088400650E8300F10E710E8B1009009E
:10085000E8010830E9007830EB00E7010618342C95
:10086000EB0B2E2C28163C2C7830EB00061C3C2C75
:10087000E70AEB0B362C2816281A462C0310E80C36
:1008800027086702031CE817E90B2B2C08007830B7
:10089000EB00E7010618502CEB0B4A2C2816582CBD
:1008A0007830EB00061C582CE70AEB0B522C28166C
:1008B0000800F2008614F20B5B2C0800F200861090
:1008C000F20B602C08000230570503196D2C013023
:1008D000D7005A084C205A088323FE3008005A08D3
:1008E000D30001305A05031D782C5A0AD4007A2C03
:1008F0005A03D4005708D50054081D205708D600C5
:10090000023055050319A52C01305505031DA52CF2
:1009100001305605031D932C0130D70053084C209D
:1009200053088323A52C0030D70054084C207B08A3
:10093000D30054086A235308FB005408423E840045
:10094000800154084A3E84008001FE30D700080030
:100950005F08323E4726FA00FA080319E52C5F08C3
:10096000FE000530F7005530F8005F08723E47265C
:10097000A400033A031DC62C8030F9002A08FA00AF
:100980006108FB00AC23D700FC00EE2C5F083A3E68
:100990004726FB00FC002408031DD32C1030F9006F
:1009A000641CFC01DD2C2230F90064080319F12CD1
:1009B0002408013A0319DD2CFC01C825281FEE2C60
:1009C000E025A81FF12CF525F12C5F08FE003A3E2A
:1009D0004726FA00FF3A0319F12CF224CE25A81B72
:1009E000062608007E08083A031DF92C3708213E28
:1009F000FB2C7E08723E4726A400A408031D072D89
:100A0000FB01FC0101306405031DFC0A112D640883
:100A100003191B2DFF30FB00FC0102302406031DCF
:100A2000FC0A5530F8001130F9000130F700E025DC
:100A3000A81BF52501340034DA01223079060319A8
:100A4000732DD901FC0803192C2DD90A7B087C06CB
:100A500003192C2D4426892D7B08A600A60C031C07
:100A60006F2DD7015A081D200310590DD7045A08BD
:100A70002D3E840003300006031D412D57080E2033
:100A8000652D0C300006031D482D57081320652DD9
:100A900030300006031D4F2D57081820652D3330C8
:100AA0000006031D562D57086F24652DCC30000617
:100AB000031D5D2D57086324652DF0300006031DCE
:100AC000632DFE30652D4426FF30D700FE3A031912
:100AD0006F2D5708FF3A0319892D5A084C20DA0A5E
:100AE0005A1D2E2D892D7B08A6000310A60C031C71
:100AF000852D01307C05D7005A084C2042305A071A
:100B000084008001083E84008001FC0CDA0A5A1D32
:100B1000752D0800AC235708FC000130F700CE25E6
:100B2000A81B942D4426952D06260800DA00DA1914
:100B3000BB2D291EBB2D2D3E84000008F03A031D5D
:100B4000BB2D5A08323E47267A06031DBB2D5A0894
:100B50003A3E4726A4007B050319BB2D7C08A6005E
:100B6000A40C031CB42DB72DA60C0310B02D260821
:100B7000D7005A084C200800CE25A81FC72D7B0897
:100B80004726FC003330F8000130F7000626080045
:100B900028137A082A06031928170800A813A0307A
:100BA00084000630F40000080319DC2DF40BD92D65
:100BB000DF2D08308407D32DA8170408F50008009E
:100BC000A8130630A600D03084008B13FF30000637
:100BD0000319EF2D05308407A60BE62DF32D8001B8
:100BE000A8170408F6008B17080076088400780818
:100BF0008000840A79088000840A7A088000840AC8
:100C00007B088000840A7C0880000800FD017508CC
:100C1000840077088000840A78088000FD07840A31
:100C200079088000FD07840A7A088000FD07840A9D
:100C30007B088000FD07840A7C088000FD07840A89
:100C40007D088000840A7E088000080052307B0204
:100C50000318432E30304726AA0031304726AB0018
:100C6000F4012D308400291274084A3E4726800082
:100C7000F03A03192916F40A7419402E840A342E06
:100C80002F304726AC000800000000000800831643
:100C900003139C18472E9B001C141A08831208008B
:100CA000831603139C18502E831203136D088316AA
:100CB0009B0083126E0883169A001C158B13553007
:100CC0009D00AA309D009C148B1700008312080021
:040CD00000340034B8
:02400E00543F1D
:10420000620079002000470069006E006F00200006
:10421000490073006C006100200066006F007200AE
:1042200020004200490054002000530072006C003E
:1042300020002D0020004900740061006C0069001E
:0242400061001B
:0E42420000000000000000000000000000006E
:0242500000006C
:0242520000006A
:02425400000068
:02425600020064
:02425800010063
:02425A00010061
:02425C0005005B
:02425E0000005E
:0242600002005A
:024262000F004B
:0C4264000000000000000000000000004E
:04427000000000004A
:0C427400FF00FF00FF00FF00FF00FF0044
:04428000FF00FF003C
:0C4284000000010002000300040005001F
:04429000060007001D
:0C4294000000000000000000000000001E
:0442A000000000001A
:0C42A4000000000000000000000000000E
:0442B000000000000A
:0C42B400000000000000000000000000FE
:0442C00000000000FA
:0C42C400FF00FF00FF00FF00FF00FF00F4
:0442D000FF00FF00EC
:0C42D400FF00FF00FF00FF00FF00FF00E4
:0442E000FF00FF00DC
:0C42E400000000000000000000000000CE
:0442F00000000000CA
:00000001FF
