:020000040000FA
:060000008A018301A4281F
:02000800C72B04
:06000A00820704342434D7
:10001000143434340C342C341C343C348207003413
:1000200000340134013482070134003401340034D7
:1000300082070034013401340034DC0082072728B1
:100040002A282D2830283328362839283C28051816
:1000500057143E28851857143E28051957143E2872
:10006000851957143E28861B57143E28051B571424
:100070003E28851B57143E28061B5714DC0A2C0803
:10008000A500DC0B44284628A50C41285708A506E6
:10009000D70CA50CD70D0800DC0029195D285C0AD7
:1000A000F3002C08A500F30B56285828A50C53285C
:1000B0005708A506D70CA50CD70D5C088207672842
:1000C0006C28712876287B28802885288A28571C48
:1000D0000510571805148E28571C851057188514BD
:1000E0008E28571C0511571805158E28571C851189
:1000F000571885158E28571C8613571886178E2873
:10010000571C0513571805178E28571C85135718A9
:1001100085178E28571C0613571806172919A32868
:10012000D701D801DB015B081D20D70CD80CDB0AF6
:100130005B08083A031D93285808D7005708EE00BB
:100140002930ED005926080083128B1307309F00D9
:1001500085018601E101E20183168C018B3081006B
:10016000203085002030850007308600A0308400D4
:100170003030F40003018000840AF40BBB28D03037
:1001800084001E30F400FF308000840AF40BC42881
:100190008312F401423084008001840AF40A741E40
:1001A000CC28BC01BD01A801A901C0010830B700DD
:1001B000BB000130FB002F2683168E1483120530FE
:1001C000A1000F30A0004630A2003230A30014304E
:1001D000C100291529305026D700F40174084C209D
:1001E000D70CF40AF41DEE282911FC308F00503092
:1001F0008E000C100130900090308B0064000C1CBD
:100200001C290C10FC308F0050308E00A10B0B29E4
:1002100062290530A100A00B1029442A0F30A0004C
:10022000A20B1729A12AF42A432B3230A200A30BD8
:100230001C291D293230A300FE28B71D3F29851A2D
:100240002814851E2810013028052910A904E30070
:10025000280C6306E200621C3F2928193129281561
:100260003F292811FD30A805630D0239A8042E305E
:100270005026B800B900B70101306305E4009823A7
:1002800063086106E200E2080319612928194A2976
:100290002815612928116308E1000830F300DF0107
:1002A000E208031961290310E20C031C5B290130E9
:1002B0006305E400B124E30CF30B5F296129DF0A35
:1002C00050291A2928120630A400D0308400FF30AB
:1002D0000006031D702905308407A40B6729432AF3
:1002E0000408F600760884000008F800840A000874
:1002F000F900840A0008FA00840A0008FB00840A56
:100300000008FC007808553A0319A8297808AA3A89
:1003100003198F297808773A0319A4293C2AD12593
:10032000281F3C2A7B08ED007C08EE0059262F266A
:10033000C52501307906031D3C2A3A307B02323E46
:10034000ED00EE0159263C2AD125281BC5253C2A63
:100350007908103A0319C5297908113A0319D529E2
:100360007908003A0319FB297908463A0319FB2951
:100370007908223A0319CD297908023A0319FB2991
:100380007908213A0319292A3C2AD125281F3C2A19
:1003900025250030F90093253C2AD125281F3C2A29
:1003A00025250230F90093253C2ABB19D929A91526
:1003B000FA29BB01C001FA080319E8293B086A3E83
:1003C00050267A060319E829BB0ABB19FA29DE2947
:1003D0002D305026BD00BE00A8152C305026BC0084
:1003E0007A08BA00BB017C08BF00FB080319FA2990
:1003F0000230BF073C2AA813A03084000630F40066
:10040000000803191C2A0408F500033084070008BB
:100410007A06031D1C2A7908463A0319182A840A09
:1004200000087B0503191C2A0330840700089F2558
:10043000750884008001222AF40B1F2A222A083022
:100440008407002ADA015A089F25DA0ADA1D232ACE
:100450003C2AD125281F3C2A0130F9009823630843
:10046000FB00B8235708FC00D725A81B392A4D26C6
:100470003C2A0130F7000F26A919422A7608840089
:10048000FF308000A9110929A03084000630DD006A
:1004900000080319572A0408F500000E0F39A400BC
:1004A00003195D2AA4030F308005240E8004DD0BA0
:1004B0005A2A9E2A08308407482AA8160108DE0016
:1004C000031D642A2A08DE070618682AA8129E2A35
:1004D000A81E9E2ADE0B642AA81E9E2A831686105A
:1004E00083128B1386100630F40075088400840A8A
:1004F0000008A4000830F300353067245B30622424
:100500003F3067245B30A40C03183F3062243F3037
:100510006724F30B822A3F306224F40B772A750894
:1005200084000F308005800B962A982AF0308004D2
:1005300086148B108B178316861483128B108B17DF
:100540000E29BB19F22ABD0BF32AA81DAB2A3E08BF
:10055000BD00A811F32A3C08BD00BA08031DB72A44
:100560003B082D3E84008008031DC32ABD2A3B089A
:100570006A3E50263A060319C32A0310C00CBB0A70
:10058000BB1DAD2AE92AA9140314C00C5530F8008C
:100590001030F90002303F02031CD02A2230F9004B
:1005A0002A08FA00FB013B0AA5000314FB0DA50B6A
:1005B000D62AFC0101303F050319E02A7B08FC0024
:1005C0002525BB0ABB19E92A3C080319AD2ABD0041
:1005D000F32AA91CF32A0030F9002A08FA0040087F
:1005E000FB009325A9101329B719422BB90B422BF5
:1005F0000830FE0037085A3E5026FA00FA08031D5C
:100600000D2B3708623E5026FA00FF307A06031D94
:10061000332BB70AB719422BF82A3708623E502607
:10062000FB00FC003708213E5026A500003A0319C4
:10063000222B2230F9002508013A031D202B262BFE
:10064000FC01262BA81CFC011030F9005530F800E5
:100650000330F7002A087A06031D3B2BE925A81F63
:10066000402BFE253F2BFB24013A03193B2BB70AF5
:10067000B719422BF82AD725A81F402B0F26B70AF7
:100680003808B9001429C10B662BDA015A084A3E12
:10069000840080080319612B800B612B5A08423EAD
:1006A0008400800803195B2B80035A084A3E8400AB
:1006B0003C308000612B0030D7005A084C205A088B
:1006C0006723DA0ADA1D462B1430C1001529A5006C
:1006D0005530F8000030F9002A08FA00A50AFB019D
:1006E0000314FB0DA50B712BB8235708FC00013038
:1006F000F700D725A81B7E2B4D267F2B0F26080041
:10070000A4002408423E840080012408523E502662
:10071000D2000F305202031C902B800AD200892B8A
:10072000083084070310D20DD20D52088000080053
:10073000E301DF010830F3005F080520E000060850
:10074000C339600486008316061183120611000067
:10075000000083160615831203100000000006191E
:100760000314E30CF30BB52BB72BDF0A9C2B08000B
:10077000D701D801DB015B081D20D70CD80CDB0AA0
:100780005B08083A031DBB2B5808D7000800F1008E
:10079000030EE5008301E5000408E6006400A00AFA
:1007A00010102812A8120630E800D0308400FF3064
:1007B00000060319E42B05308407E80BD72B8317B9
:1007C00020308400FF3080000408EC007830EB001B
:1007D000061CEE2BEB0BE82B2816242C0530EA0028
:1007E0005024281A242C6708A700A70CA70CA70CD4
:1007F000A70C27080F396702A70031245024281AB4
:10080000242C68088000EA0B062C082C840AF02BA4
:100810005024281A242C6708A700A70CA70CA70CA3
:10082000A70C27080F396702A7003124281A242CA7
:100830000530EA0003010007EA0B1F2C212C84037A
:100840001B2C68060319282C6C088400FF308000DC
:10085000101466088400650E8300F10E710E8B1073
:100860000900E8010830E9007830EB00E7010618DC
:100870003D2CEB0B372C2816452C7830EB00061C52
:10088000452CE70AEB0B3F2C2816281A4F2C031097
:10089000E80C27086702031CE817E90B342C080052
:1008A0007830EB00E7010618592CEB0B532C281677
:1008B000612C7830EB00061C612CE70AEB0B5B2CFB
:1008C00028160800F2008614F20B642C0800F200CF
:1008D0008610F20B692C0800023057050319762C9C
:1008E0000130D7005A084C205A088023FE300800F7
:1008F0005A08D30001305A05031D812C5A0AD4002E
:10090000832C5A03D4005708D50054081D205708DB
:10091000D600023055050319AE2C01305505031DD4
:10092000AE2C01305605031D9C2C0130D700530816
:100930004C2053088023AE2C0030D70054084C20A4
:100940007B08D300540867235308FB005408423E39
:100950008400800154084A3E84008001FE30D700A4
:1009600008005F08323E5026FA00FA080319EE2C00
:100970005F08FE000530F7005530F8005F08723E52
:100980005026A400033A031DCF2C8030F9002A081A
:10099000FA006108FB00B823D700FC00F72C5F08C1
:1009A0003A3E5026FB00FC002408031DDC2C1030CE
:1009B000F900641CFC01E62C2230F90064080319DC
:1009C000FA2C2408013A0319E62CFC01D125281F32
:1009D000F72CE925A81FFA2CFE25FA2C5F08FE004B
:1009E0003A3E5026FA00FF3A0319FA2CFB24D72589
:1009F000A81B0F2608007E08083A031D022D3708A1
:100A0000213E042D7E08723E5026A400A408031D3A
:100A1000102DFB01FC0101306405031DFC0A1A2D99
:100A200064080319242DFF30FB00FC01023024066A
:100A3000031DFC0A5530F8001130F9000130F700B1
:100A4000E925A81BFE2501340034DA01223079069D
:100A500003197C2DD901FC080319352DD90A7B080F
:100A60007C060319352D4D26922D7B08A600A60C79
:100A7000031C782DD7015A081D200310590DD704E7
:100A80005A082D3E840003300006031D4A2D5708E6
:100A90000E206E2D0C300006031D512D570813201B
:100AA0006E2D30300006031D582D570818206E2D6E
:100AB00033300006031D5F2D570878246E2DCC308F
:100AC0000006031D662D57086C246E2DF0300006BD
:100AD000031D6C2DFE306E2D4D26FF30D700FE3AE3
:100AE0000319782D5708FF3A0319922D5A084C2004
:100AF000DA0ADA1D372D922D7B08A6000310A60C0A
:100B0000031C8E2D01307C05D7005A084C20423042
:100B10005A0784008001083E84008001FC0CDA0A38
:100B2000DA1D7E2D0800B8235708FC000130F700BD
:100B3000D725A81B9D2D4D269E2D0F260800DA00D7
:100B4000DA19C42D291EC42D2D3E84000008F03A68
:100B5000031DC42D5A08323E50267A06031DC42DAB
:100B60005A083A3E5026A4007B050319C42D7C0880
:100B7000A600A40C031CBD2DC02DA60C0310B92D7E
:100B80002608D7005A084C200800D725A81FD02DCA
:100B90007B085026FC003330F8000130F7000F26A8
:100BA000080028137A082A06031928170800A81332
:100BB000A03084000630F40000080319E52DF40B82
:100BC000E22DE82D08308407DC2DA8170408F50075
:100BD0000800A8130630A600D03084008B13FF3025
:100BE00000060319F82D05308407A60BEF2DFC2D08
:100BF0008001A8170408F6008B1708007608840007
:100C000078088000840A79088000840A7A088000C5
:100C1000840A7B088000840A7C0880000800FD01AB
:100C20007508840077088000840A78088000FD0732
:100C3000840A79088000FD07840A7A088000FD078D
:100C4000840A7B088000FD07840A7C088000FD0779
:100C5000840A7D088000840A7E08800008005230E3
:100C60007B0203184C2E30305026AA00313050261B
:100C7000AB00F4012D308400291274084A3E50263E
:100C80008000F03A03192916F40AF419492E840A4F
:100C90003D2E2F305026AC00080000000000080058
:100CA000831603139C18502E9B001C141A088312E1
:100CB0000800831603139C18592E831203136D0822
:100CC00083169B0083126E0883169A001C158B13E3
:100CD00055309D00AA309D009C148B170000831294
:020CE00008000A
:040CE20000340034A6
:02400E00543F1D
:10420000620079002000470069006E006F00200006
:10421000490073006C006100200066006F007200AE
:1042200020004200490054002000530072006C003E
:1042300020002D0020004900740061006C0069001E
:0242400061001B
:0E42420000000000000000000000000000006E
:0242500000006C
:0242520000006A
:02425400000068
:02425600020064
:02425800010063
:02425A00010061
:02425C0005005B
:02425E0000005E
:0242600002005A
:024262000F004B
:0C4264000000000000000000000000004E
:04427000000000004A
:0C427400FF00FF00FF00FF00FF00FF0044
:04428000FF00FF003C
:0C4284000000010002000300040005001F
:04429000060007001D
:0C4294000000000000000000000000001E
:0442A000000000001A
:0C42A4000000000000000000000000000E
:0442B000000000000A
:0C42B400000000000000000000000000FE
:0442C00000000000FA
:0C42C400FF00FF00FF00FF00FF00FF00F4
:0442D000FF00FF00EC
:0C42D400FF00FF00FF00FF00FF00FF00E4
:0442E000FF00FF00DC
:0C42E400000000000000000000000000CE
:0442F00000000000CA
:00000001FF
