:020000040000FA
:0800000000008A0183010528BC
:02000800EA2BE1
:06000A0064008B13850168
:100010008701960116150730990081309F008316DD
:100020003030910004309F008312FF30850087003C
:100030008C018B308100203084003030F4000301CB
:100040008000840AF40B2028503084001E30F40015
:10005000FF308000840AF40B292883120317A901BA
:10006000B701B801FF30FB00FC0000000000640095
:10007000FB0B3528FF30FB00FC0B35280130D1008D
:10008000F024D430A225B200D530A225B300D83058
:10009000A22583160313A40083120317D930A225C7
:1000A00083160313A5008312031783160313A001FD
:1000B000A101A201A301831203170530A1000F3093
:1000C000A0000A30A2006430A3000A30BC00FC305B
:1000D0008F0050308E000C101130900090308B004B
:1000E00064000C1C91280C10FC308F005030A10BC8
:1000F0007C28F42A0530A100A00B81288D2B0F301D
:10010000A000A20B862892280A30A200A30B9128F7
:100110006430A300BC0B91280A30BC00E4290E2AED
:1001200000007028A40BC1285508A400A50BC12805
:100130005608A500BE018722BE0A8722A90A2908FF
:10014000043C031CA6280319A628C128BE01A2222C
:10015000BE0AA222A901BE012708013A031DB22846
:10016000C220B6282708023A0319FB20BE0A280835
:10017000013A031DBD28C220C1282808023A0319EC
:10018000FB208428BE08031DCA28371DFA287508DD
:10019000FC00CE28B71DFA287608FC003E08323E47
:1001A00084000008FB00840A840A0008FB07031C83
:1001B000DA28E3287C087B02031CE1280319E128E4
:1001C000E328B914EE280008FB02FB020318E92813
:1001D000FA287C087B02031CFA28B91084038403E4
:1001E0007C0880003E08D43EC9000008CA00832570
:1001F0003914E1220800BE08831603138317031D78
:1002000066292408083A03190F29240AA53E840008
:10021000800803190F290008750203181E292408F5
:100220000319CB29AD3E840080080319CB290008AF
:100230007502031C4A29A001A101CB29A0080319BA
:100240004229240A013EFB00093A0319CB297B0805
:10025000A53E840080080319CB2900087502031805
:100260003229CB29A40A2403FB000310FB0DFB0D4C
:100270007B07343E8312031783135A258317B8165E
:1002800083160313A1012408083A0319CB2979081E
:10029000A000CB29A10803195D29A4032408FB00B1
:1002A0000310FB0DFB0D7B075C3E831203178313CA
:1002B0005A258317B81683160313A408031D622951
:1002C000A101CB297908A100A001CB292508083A72
:1002D00003197429250AB53E84008008031974297E
:1002E000000876020318832925080319CB29BD3E8F
:1002F000840080080319CB2900087602031CAF296B
:10030000A201A301CB29A2080319A729250A013EAE
:10031000FB00093A0319CB297B08B53E840080080D
:100320000319CB290008760203189729CB29A50ABF
:100330002503FB000310FB0DFB0D7B07843E83129E
:10034000031783135A258317B81683160313A301C3
:100350002508083A0319CB297A08A200CB29A3085B
:100360000319C229A5032508FB000310FB0DFB0D93
:100370007B07AC3E8312031783135A258317B816E5
:1003800083160313A508031DC729A301CB297A08E7
:10039000A300A201CB29831383120317B81EE329FC
:1003A000B812D830C9008316031324088312031728
:1003B000CA008325D930C900831603132508831288
:1003C0000317CA0083250800BE01BE08031DEF29DC
:1003D0002708013A031D0A2A371C0A2AF629280889
:1003E000013A031D0A2AB71C0A2AF62977303E076C
:1003F0008400800B0A2A3E08793E84000008FB0036
:100400003E08773E84007B088000B9013E08753EB7
:100410008400E122BE0ABE1CE5298F282708023A83
:10042000031D3E2A831603138317A00803192B2AE2
:10043000A00B3E2AA40A2403FB000310FB0DFB0DB6
:100440007B07343E8312031783135A258317B8168C
:10045000831603133E2AA10803193E2AA10B3E2A44
:10046000A4032408FB000310FB0DFB0D7B075C3E7F
:100470008312031783135A258317B8162808023AE4
:10048000031D6E2A831603138317A20803195B2A20
:10049000A20B6E2AA50A2503FB000310FB0DFB0D22
:1004A0007B07843E8312031783135A258317B816DC
:1004B000831603136E2AA30803196E2AA30B6E2A50
:1004C000A5032508FB000310FB0DFB0D7B07AC3ECD
:1004D0008312031783135A258317B8168312031741
:1004E0008313B81E862AB812D830C90083160313A6
:1004F000240883120317CA008325D930C900831644
:100500000313250883120317CA00832590283E0889
:10051000FB000310FB0D7B0D29072A3E8400BE085B
:10052000031D942A1030952A14309F0001309F0437
:100530000C30FD00FD0B9A2A9F149F189D2A1E085F
:1005400080000800A901FD01FC013E08FB0003102A
:10055000FB0D7B0D2907293E8400840A0008FC0757
:100560000318FD0AA90A2908043C031CBA2A031926
:10057000BA2AAD2AFD0CFC0CFD0CFC0C75303E07B4
:1005800084007C08800008004F08013A031DCC2A33
:100590007508D100D201D62A4F08023A031DD42A89
:1005A0007608D100D201D62AED24E02AB630CE005A
:1005B0000130CD009524B819DF2AED24E02ACD249E
:1005C00008000008D200B430CE003908CF003A0845
:1005D000D0003E0AD1000130CD009524B81DF22A8A
:1005E000CD24F32AED24080038100630FB005030EB
:1005F0008400FF300006031D022B05308407FB0B2F
:10060000F92A802B0408CC004C0884000008CE0096
:10061000840A0008CF00840A0008D000840A000879
:10062000D100840A0008D2004E08B53A0319522BB3
:100630004E08AA3A0319352B4E08773A03194E2B68
:100640004E08553A031D792B4F08003A0319562BD3
:100650004F08463A0319562B4F08023A0319562BF6
:100660004F08213A0319402B792B8F24381D792B01
:100670005108C9005208CA008325F0248123792B30
:100680008F24381D792B0130CF00D101D201952460
:10069000B81D4D2B0130CD00CD24792B8F24381976
:1006A0008123792B8F243819C422792BB81120305B
:1006B00084000630F40000080319732B0408CB00F3
:1006C0000330840700085006031D732B4F08463A79
:1006D00003196F2B840A000851050319732B4B086B
:1006E00084008001792BF40B762B792B083084075A
:1006F0005B2B381A7F2B4C088400FF3080003812A7
:100700007A289524B81D8C2B5108A225D2003330AD
:10071000CE000130CD00CD2408002030840006300A
:10072000BF0000080319A02B0408CB00000E0F39EE
:10073000FB000319A62BFB030F3080057B0E800402
:10074000BF0BA32BE72B08308407912BB8140108AB
:10075000C000031DAD2B3A08C0070519B12BB81016
:10076000E72BB81CE72BC00BAD2BB81CE72B83166F
:10077000071283128B1307120630F4004B08840013
:10078000840A0008FB000830F30074308A24B63075
:1007900085247E308A24B630FB0C03187E308524F5
:1007A0007E308A24F30BCB2B7E308524F40BC02BB8
:1007B0004B0884000F308005800BDF2BE12BF030DD
:1007C000800407168B108B178316071683128B1065
:1007D0008B177F28F100030EC1008301C1000408BC
:1007E000C200A00A10103810B8100630C4005030F3
:1007F0008400FF3000060319062C05308407C40B63
:10080000F92B8317C6308400FF3080000408C8002D
:10081000F030C700051D102CC70B0A2C3814472CCC
:100820000530C600640073243818472C4308B6000E
:10083000B60CB60CB60CB60C36080F394302B6002F
:10084000542473243818472C44088000C60B292CE4
:100850002B2C840A122C73243818472C4308B6001A
:10086000B60CB60CB60CB60C36080F394302B600FF
:1008700054243818472C0530C60003010007C60B66
:10088000422C442C84033E2C440603194B2C48086C
:100890008400FF308000101442088400410E830061
:1008A000F10E710E8B100900C4010830C500F03044
:1008B000C700C3010519602CC70B5A2C3814682CCB
:1008C000F030C700051D682CC30AC70B622C381412
:1008D0003818722C0310C40C36084302031CC417CA
:1008E000C50B572C0800F030C700C30105197C2C3C
:1008F000C70B762C3814842CF030C700051D842CCF
:10090000C30AC70B7E2C38140800F2000716F20B3E
:10091000872C0800F2000712F20B8C2C080038110B
:1009200050083A06031938150800B8112030840021
:100930000630F40000080319A32CF40BA02CA62CFD
:10094000083084079A2CB8150408CB000800B811A9
:100950000630FD00503084008B13FF300006031971
:10096000B62C05308407FD0BAD2CBA2C8001B815D0
:100970000408CC008B1708004C0884004E08800047
:10098000840A4F088000840A50088000840A5108B5
:100990008000840A520880000800D3014B088400BC
:1009A0004D088000840A4E088000D307840A4F084F
:1009B0008000D307840A50088000D307840A5108B6
:1009C0008000D307840A52088000D307840A5308A2
:1009D0008000840A5408800008000000000008001D
:1009E000343051020318582DB7013030A225BA0017
:1009F0003130A225A6003230A225A400D500333024
:100A0000A225A500D60037140430A225F700F9006E
:100A1000F708031937100030A225A700013A031D7B
:100A2000192D37150630A225B400B4080319371163
:100A30002D2D2708023A031D2D2D1030FB008317A2
:100A4000A63084000A30FC007C08A2258000FB0B45
:100A50002A2D2D2DFC0A840A242D8313B71405306A
:100A6000A225F800FA00F8080319B7100130A225F2
:100A7000A800013A031D442DB7150730A225B50083
:100A8000B5080319B711582D2808023A031D582D2F
:100A90001030FB008317B63084001A30FC007C084D
:100AA000A2258000FB0B552D582DFC0A840A4F2DE2
:100AB00083130800BD000530FD004E3084003D0862
:100AC000A2258000840ABD0AFD0B5F2D4E08553A11
:100AD000031D7A2D4F08103A0319772D4F08803ADD
:100AE0000319772D4F08223A0319772D7A2D0530F7
:100AF000CD007C2D0130CD009524B819812DED2439
:100B0000E02ACD240800831603139C18852D831238
:100B100003174908831603139B00831203174A081F
:100B2000831603139A00831603139C131C158B134F
:100B300055309D00AA309D009C148B171C11831208
:100B400003170800831603139C18A42D83160313A0
:100B50009B00831603139C131C14831603131A089B
:060B6000831203170800D8
:040B66000034003423
:02400E00CA3CAA
:0442000000000000BA
:0442040000000000B6
:0442080000000000B2
:04420C0000000000AE
:0442100000000000AA
:0C4214001000200030004000500060004E
:0442200070008000AA
:0C4224001000200030004000500060003E
:04423000700080009A
:0C4234002000400060008000A000C000DE
:04424000E000F000AA
:0C42440018003800580078009800B800FE
:04425000D800E800AA
:02425400040064
:02425600010065
:044258000000000062
:04425C00000000005E
:02426000FE005E
:0242620000005A
:0442640001000A004B
:084268005500220002000100D4
:104270000100550022000200020002005500220049
:10428000020004000400550022000200080008009B
:10429000550022000200100010005500220002000C
:1042A0002000200055002200020040004000550080
:1042B0002200020080008000550022000200010060
:1042C00000005500220002000200000055002200FC
:1042D0000200040000005500220002000800000057
:1042E00055002200020010000000550022000200CC
:1042F0002000000055002200020040000000550090
:10430000220002008000000055002200030001008E
:1043100001005500220003000200020055002200A7
:1043200003000400040055002200030008000800F8
:104330005500220003001000100055002200030069
:1043400020002000550022000300400040005500DE
:1043500022000300800080005500220003000100BD
:10436000000055002200030002000000550022005A
:1043700003000400000055002200030008000000B4
:104380005500220003001000000055002200030029
:1043900020000000550022000300400000005500EE
:0843A000220003008000000070
:0443A8000000000011
:0443AC00000000000D
:0443B0000000000009
:0443B4000000000005
:0443B80003000300FB
:00000001FF
