:020000040000FA
:060000008A0183010528BE
:020008007F2D4A
:06000A0064008B13850168
:100010008601870181309F00831644309F00FF30A6
:1000200085008600F93087008C018B3081008312B7
:100030000C3097009D0092018316413092002030D1
:1000400084003030F30003018000840AF30B24287D
:10005000503084001E30F300FF308000840AF30B20
:100060002D2883160313B501C701C801AC01AD01EA
:10007000AF01B101B201B401FF30FA00FB00000092
:1000800000006400FA0B3F28FF30FA00FB0B3F280A
:100090000130E2008526D4309127BE00D53091276B
:1000A000BF00D830912783120317940083160313DF
:1000B000D930912783120317950083160313D63086
:1000C0009127AE00CF01B223AE0803196B28DA30B6
:1000D000DA00DB017227D7309127B3000130CF005F
:1000E000B223B30803197828DB30DA00DB0172276A
:1000F000831603138E1483120317831203179001C0
:10010000910192019301831603130530A10014306D
:10011000A4000F30A0000A30A2006430A3000A300F
:10012000CC00FC308F0050308E000C10113090004D
:1001300090308B0064000C1CD1280C10FC308F0018
:100140005030A10BA628D92B0530A100A40BAB2859
:1001500009291430A400A00BB028222D0F30A000D4
:10016000A20BB528D9280A30A200A30BD1286430ED
:10017000A300CC0BD1280A30CC00A503481FC72808
:10018000831603130710831203130714CD28831655
:10019000031307148312031307104813922ABC2A6F
:1001A0000000101CD6288B1FD628D8288226481776
:1001B0009A28A60B08296608A600A70B0829670835
:1001C000A700CE013523CE0A3523B50A3508043CF5
:1001D000031CED280319ED280829CE015023CE0A6F
:1001E0005023B501CE012908013A031DF9287021D9
:1001F000FD282908023A0319A921CE0A2A08013A42
:10020000031D0429702108292A08023A0319A9218B
:10021000B32803302B06031D3A29AC08031917290C
:10022000AC0B3A290130AD001E30A5003A29AD08CB
:1002300003191F29AD0B3A290130AD002429AF085D
:1002400003193A29AF032A29A508031D2A29AD015C
:10025000B2016F29471E3429AE0AFF302E06031D56
:1002600038294712C8163829AE0B38294716C81640
:10027000CF01B22303303006031D6C29B1080319E6
:100280004829B10B6C290130B2001E30A5006C2941
:10029000B20803195029B20B6C290130B20055295C
:1002A000B40803196C29B4035B29A508031D5B2955
:1002B000AD01B2016F29C71E6529B30AFF303306AD
:1002C000031D6929C712C8166929B30B6929C71606
:1002D000C8160130CF00B223C81E6F296027A92895
:1002E000CE08031D7829471DA8297408FB007C2926
:1002F000C71DA8297508FB004E08BE3E84000008F3
:10030000FA00840A840A0008FA07031C8829912944
:100310007B087A02031C8F2903198F299129C9149C
:100320009C290008FA02FA0203189729A8297B08D9
:100330007A02031CA829C910840384037B08800067
:100340004E08D43EDA000008DB00722749149123DE
:100350000800CE08831203178317031D142A1408FC
:10036000083A0319BD29140A153E840080080319B0
:10037000BD29000874020318CC2914080319792A2E
:100380001D3E840080080319792A00087402031CAA
:10039000F82990019101792A90080319F029140A8B
:1003A000013EFA00093A0319792A7A08153E8400B9
:1003B00080080319792A000874020318E029792AB1
:1003C000940A1403FA000310FA0DFA0D7A07343E6A
:1003D0008316031383132B278317C816831203175F
:1003E00091011408083A0319792A78089000792AAB
:1003F000910803190B2A94031408FA000310FA0D4C
:10040000FA0D7A075C3E8316031383132B27831799
:10041000C816831203179408031D102A9101792A24
:10042000780891009001792A1508083A0319222AC0
:10043000150A253E840080080319222A0008750247
:100440000318312A15080319792A2D3E84008008E3
:100450000319792A00087502031C5D2A9201930191
:10046000792A92080319552A150A013EFA00093A19
:100470000319792A7A08253E840080080319792A0D
:10048000000875020318452A792A950A1503FA000F
:100490000310FA0DFA0D7A07843E831603138313B3
:1004A0002B278317C8168312031793011508083AE0
:1004B0000319792A79089200792A93080319702A76
:1004C00095031508FA000310FA0DFA0D7A07AC3EF1
:1004D0008316031383132B278317C816831203175E
:1004E0009508031D752A9301792A790893009201D2
:1004F000792A831383160313C81E912AC812D83091
:10050000DA0083120317140883160313DB00722723
:10051000D930DA0083120317150883160313DB00A2
:1005200072270800CE01CE08031D9D2A2908013A32
:10053000031DB82A471CB82AA42A2A08013A031D19
:10054000B82AC71CB82AA42A76304E078400800B2C
:10055000B82A4E08783E84000008FA004E08763E1D
:1005600084007A088000C9014E08743E84009123FB
:10057000CE0ACE1C932ACF282908023A031DEC2A62
:1005800083120317831790080319D92A900BEC2ABA
:10059000940A1403FA000310FA0DFA0D7A07343E98
:1005A0008316031383132B278317C816831203178D
:1005B000EC2A91080319EC2A910BEC2A94031408F5
:1005C000FA000310FA0DFA0D7A075C3E8316031346
:1005D00083132B278317C8162A08023A031D1C2BE6
:1005E00083120317831792080319092B920B1C2BF4
:1005F000950A1503FA000310FA0DFA0D7A07843EE6
:100600008316031383132B278317C816831203172C
:100610001C2B930803191C2B930B1C2B95031508FB
:10062000FA000310FA0DFA0D7A07AC3E8316031395
:1006300083132B278317C816831603138313C81E2F
:10064000342BC812D830DA0083120317140883162B
:100650000313DB007227D930DA0083120317150861
:1006600083160313DB007227D0284E08FA0003100C
:10067000FA0D7A0D3507B63E8400CE08031D422BD5
:100680008030432B88309F0001309F040C30FC00E9
:10069000FC0B482B1F151F194B2B1E088000080050
:1006A000B501FC01FB014E08FA000310FA0D7A0DAA
:1006B0003507B53E8400840A0008FB070318FC0ACE
:1006C000B50A3508043C031C682B0319682B5B2B07
:1006D000FC0CFB0CFC0CFB0C74304E0784007B08FC
:1006E000800008006008013A031D7B2B7408E200BB
:1006F0002E08E300862B6008023A031D842B750840
:10070000E2003308E300862B8226902BB630DF0010
:100710000130DE002A26C8198F2B8226902B6226F4
:1007200008000008E300B430DF004908E0004A0890
:10073000E1004E0AE2000130DE002A26C81DA22B8D
:100740006226A32B82264E08031DA82BAB30A92BB3
:10075000B03084000008013A031DB12B3C26C819B3
:1007600051260800121191018701CF08031DC82BE3
:100770002E08FA0095010310FA0C17120318171629
:10078000FA0C9712031897163F307A059500D72B6D
:100790003308FA009B010310FA0C1D1203181D16F2
:1007A000FA0C9D1203189D163F307A059B00121516
:1007B000080048100630FA0050308400FF30000670
:1007C000031DE72B05308407FA0BDE2B152D0408DB
:1007D000DD005D0884000008DF00840A0008E000F6
:1007E000840A0008E100840A0008E200840A000884
:1007F000E3005F08B43A0319472C5F08B53A0319C0
:10080000432C5F08B73A0319662C5F08AA3A03190C
:10081000262C5F08773A03193F2C5F08553A031DD1
:100820000E2D6008103A0319782C6008003A03195D
:10083000EB2C6008463A0319EB2C6008023A0319C6
:10084000EB2C6008213A0319312C0E2D2426481D6B
:100850000E2D6208DA006308DB0072278526162554
:100860000E2D2426481D0E2D0130E000E201E3018B
:100870002A26C81D3E2C0130DE0062260E2D2426BD
:10088000481916250E2D2426481972230E2DCF0146
:100890004C2CCF0ACF18652C4F08C23E84000008AC
:1008A0006106031D492C4F08C43E840000086206FF
:1008B000031D492C4F08031D5F2CAE30602CB33054
:1008C000840063088000B22354270E2D2426481D7F
:1008D000772C6003CF004F08031D702CAE30712CB5
:1008E000B330840063088000B223542772230E2D96
:1008F0002426481DEA2C6203CF004F08013C031C4C
:10090000EA2C4F08031D862CAB30872CB0308400B6
:100910000008033A031DEA2C63080319A42CCF082E
:100920000319932C962C471FE32C982CC71FE32CFC
:10093000840A8008031DEA2C840A8008031DEA2C1F
:10094000840318308000E32C840A8008031DC32C24
:10095000CF08031DAE2C471FC32CB02CC71FC32CC0
:10096000840A80080319E32C8001840A840A280879
:1009700080005427CF08031DBF2C1030C02C20301E
:10098000C7066027E32CCF08031DC82C4030C92CB4
:100990008030C706840A840A0008FB004F08DA3E4C
:1009A00091278000B2234F08D63EDA000008DB0012
:1009B00072274F08DA3EDA007B08DB0072276027D7
:1009C0008403840380012A26C81DEA2CE00101303B
:1009D000DE0062260E2DC811203084000630F300A0
:1009E00000080319082D0408DC0003308407000800
:1009F0006106031D082D6008463A0319042D840A78
:100A0000000862050319082D5C08840080010E2D82
:100A1000F30B0B2D0E2D08308407F02C481A142DE3
:100A20005D088400FF3080004812A4282A26C81DD3
:100A3000212D62089127E3003330DF000130DE0012
:100A400062260800203084000630D0000008031918
:100A5000352D0408DC00000E0F39FA0003193B2D78
:100A6000FA030F3080057A0E8004D00B382D7C2DD0
:100A700008308407262DC8140108D100031D422D1B
:100A80004A08D1070618462DC8107C2DC81C7C2D9D
:100A9000D10B422DC81C7C2D8316861083128B131C
:100AA00086100630F3005C088400840A0008FA000F
:100AB0000830F20074301F26B6301A267E301F260A
:100AC000B630FA0C03187E301A267E301F26F20B41
:100AD000602D7E301A26F30B552D5C0884000F30F4
:100AE0008005800B742D762DF030800486148B10D9
:100AF0008B178316861483128B108B17AE28F00089
:100B0000030ED2008301D2000408D300A00A101003
:100B10004810C8100630D50050308400FF30000661
:100B200003199B2D05308407D50B8E2D8317363086
:100B30008400FF3080000408D900F030D800061C83
:100B4000A52DD80B9F2D4814DC2D0530D70064004F
:100B500008264818DC2D5408C600C60CC60CC60C66
:100B6000C60C46080F395402C600E9250826481865
:100B7000DC2D55088000D70BBE2DC02D840AA72D73
:100B800008264818DC2D5408C600C60CC60CC60C36
:100B9000C60C46080F395402C600E9254818DC2D5A
:100BA0000530D70003010007D70BD72DD92D8403BB
:100BB000D32D55060319E02D59088400FF3080001D
:100BC000101453088400520E8300F00E700E8B1028
:100BD0000900D5010830D600F030D800D40106183D
:100BE000F52DD80BEF2D4814FD2DF030D800061C44
:100BF000FD2DD40AD80BF72D48144818072E0310E2
:100C0000D50C46085402031CD517D60BEC2D080052
:100C1000F030D800D4010618112ED80B0B2E481432
:100C2000192EF030D800061C192ED40AD80B132E1A
:100C300048140800F1008614F10B1C2E0800F10086
:100C40008610F10B212E0800481161084A0603198D
:100C500048150800C811203084000630F300000851
:100C60000319382EF30B352E3B2E083084072F2E18
:100C7000C8150408DC000800C8110630FC0050301C
:100C800084008B13FF30000603194B2E05308407B8
:100C9000FC0B422E4F2E8001C8150408DD008B1777
:100CA00008005D0884005F088000840A60088000F6
:100CB000840A61088000840A62088000840A63084C
:100CC00080000800E4015C0884005E088000840A5B
:100CD0005F088000E407840A60088000E407840A53
:100CE00061088000E407840A62088000E407840A3F
:100CF00063088000E407840A64088000840A6508A9
:100D00008000080000000000080034306202031870
:100D1000292FC70130309127CA0031309127A80010
:100D200032309127A600E60033309127A700E70074
:100D30002E309127C40002309127AB00013A031DE9
:100D4000A42E4A08C200B62E2B08023A031DAC2E70
:100D50002C309127C200B62EF601DC309127FA0024
:100D6000FA0C03184716FA0C031847172F3091276F
:100D7000C50003309127B000013A031DC22E4A0876
:100D8000C300D42E3008023A031DCA2E2D309127FD
:100D9000C300D42EF701DD309127FA00FA0C0318B6
:100DA000C716FA0C0318C717471404309127F6002A
:100DB000F800F6080319471000309127A900013AFE
:100DC000031DEA2E471506309127C000C0080319FD
:100DD0004711FE2E2908023A031DFE2E1030FA009C
:100DE0008317163084000A30FB007B0891278000AF
:100DF000FA0BFB2EFE2EFB0A840AF52E8313C71472
:100E000005309127F700F900F7080319C7100130E2
:100E10009127AA00013A031D152FC7150730912706
:100E2000C100C1080319C711292F2A08023A031D5E
:100E3000292F1030FA008317263084001A30FB0067
:100E40007B0891278000FA0B262F292FFB0A840AA2
:100E5000202F83130800CD000530FC00DF30840014
:100E60004D0891278000840ACD0AFC0B302F5F08C3
:100E7000553A031D4B2F6008103A0319482F60089C
:100E8000803A0319482F6008223A0319482F4B2F44
:100E90000530DE004D2F0130DE002A26C819522F02
:100EA0008226902B622608004F08031D592F2E081A
:100EB0005A2F3308DB004F08D63EDA0072270800AD
:100EC000C812DB01471A5B14471BDB14DC30DA0065
:100ED0007227DB01C71A5B14C71BDB14DD30DA0095
:100EE00072270800831603178C18742F83160313B8
:100EF0005A08831203178D00831603135B088312AD
:100F000003178C00831603178C130C158B135530A5
:100F10008D00AA308D008C148B170C1183160313CF
:100F20000800831603178C18932F831203178D0064
:100F3000831603178C130C14831203170C088316E3
:040F4000031308008F
:040F44000034003441
:02400E00763FFB
:0442000000000000BA
:0442040001000100B4
:0442080000000000B2
:04420C0000000000AE
:0442100000000000AA
:0C4214001000200030004000500060004E
:0442200070008000AA
:0C4224001000200030004000500060003E
:04423000700080009A
:0C4234002000400060008000A000C000DE
:04424000E000F000AA
:0C42440018003800580078009800B800FE
:04425000D800E800AA
:02425400030065
:02425600010065
:044258000000000062
:04425C00010002005B
:02426000FE005E
:02426200010059
:0442640001000A004B
:084268005500220002000100D4
:104270000100550022000200020002005500220049
:10428000020004000400550022000200080008009B
:10429000550022000200100010005500220002000C
:1042A0002000200055002200020040004000550080
:1042B0002200020080008000550022000200010060
:1042C00000005500220002000200000055002200FC
:1042D0000200040000005500220002000800000057
:1042E00055002200020010000000550022000200CC
:1042F0002000000055002200020040000000550090
:10430000220002008000000055002200030001008E
:1043100001005500220003000200020055002200A7
:1043200003000400040055002200030008000800F8
:104330005500220003001000100055002200030069
:1043400020002000550022000300400040005500DE
:1043500022000300800080005500220003000100BD
:10436000000055002200030002000000550022005A
:1043700003000400000055002200030008000000B4
:104380005500220003001000000055002200030029
:1043900020000000550022000300400000005500EE
:0843A000220003008000000070
:0443A8000000000011
:0443AC00000000000D
:0443B0000000000009
:0443B4000000000005
:0443B80003000300FB
:00000001FF
