:020000040000FA
:060000008A0183011028B3
:080008008207003406340834BD
:100010000A340C340E3410341234143416341834B8
:10002000640086228B018501860130308700813093
:100030009F00831605309F00CB3085000730860077
:100040004030870083128501860130308700831697
:100050008C018D018E30810083120C3097009D0041
:100060000430920095019B0183161F309200831289
:100070008C018D010030BD000423A411C11B602838
:10008000A4154108A7004008A8000230BD000423C1
:100090004108A9004008AA00FF30AB000430BD00B1
:1000A00004232412C11B602824164108AB00400819
:1000B000AC000630BD0004234108AD004008AE008E
:1000C000C3308F0050308E00113090000716871615
:1000D0000A30A5003C30A600221464008F2275204F
:1000E000FD20062207218F216D28CF1CEB28CF1081
:1000F000A001493084000530A1000008A007840A4F
:10010000A10B7D284E082006031DEB28E030490591
:10011000031DEB284D18EB28CD1CB028221CEB2822
:10012000A21B96280130B500EC209E282F308400B9
:1001300006305522A21DE728B50AD30A0730D000A1
:100140003508023A0319A528EB28A21CAD28273050
:10015000840004305522A219EB2824142314EB2820
:10016000A41DEB28A21BD6284D08A000A00CA00CB3
:10017000200C1F39A00020080B3C031CC2280319C7
:10018000C228C328EB282730840004305522A21D42
:10019000CB282317D2282B30840004305522A21DEF
:1001A000EB28A3170130B600EC20DD282F308400A7
:1001B00006305522A21DE728B60A0730D0003608BF
:1001C000013A0319E428EB2824102314EB28B60184
:1001D000B501A21375280800D10AA2174908AF007B
:1001E0004A08B0004B08B1004C08B2004D08B300FB
:1001F0004E08B4004D19A4140800221B0629231C24
:100200000629241C0529C92106294C2108001F158F
:100210001F190829A318192900001E08C83C031C2F
:100220001429031914292229A31423152216A2160E
:10023000222900001E08B43C031C4029A3102315EA
:100240002216A216861C2B29231A312907122316DF
:10025000231522163129231E3129231207162216AF
:100260002315061D3A29A31A40298712A316231520
:10027000A2164029A31E4029A3128716A2162315F1
:100280000800D200D20DD203A41C4B29A4102217BF
:1002900023150430B9000800A41D8D29231F5329FC
:1002A000241E58296E29241E8D29A31F8D297E29DD
:1002B0000130A3180330231A0330A31A033041215D
:1002C000221B8E294922B700B8002216A2161F3021
:1002D000BB00BC0023152313A3138D290130A318E1
:1002E0000330231A03304121221B8E294922B700F3
:1002F000221623151F30BB0023138D290130A318AC
:100300000330A31A03304121221B8E294922B80051
:10031000A21623151F30BC00A31323100800231DB1
:10032000C7292311221EA12983161F309200831290
:10033000A3189C29231E9E2900309F293708950069
:100340002212A21EB8292213831607141F3092000E
:10035000831287118316871183128711A318B2297C
:10036000A31EB4290030B52938089B00A212C72962
:10037000221FC72983168715F930920083120710B0
:1003800083160710831207107D309B00950112150C
:100390000800023041212410A21CCF29EE29003090
:1003A000BD002F080F39C100A7003008C000A80009
:1003B0000F230230BD003108C100A9003208C0007F
:1003C000AA000F230430BD00FF30C100C000AB0005
:1003D0000F23A214A41524122410042A0430BD00F3
:1003E0002F080F39C100AB003008C000AC000F234C
:1003F0000630BD003108C100AD003208C000AE00BB
:100400000F23241624102210231008000C1C482A45
:1004100010100C10C3308F0250308E02031C8F035B
:100420001014A21F162AD00B162AA213B9080319FA
:100430002C2AB90B2C2AD2030319282A0430B9001C
:10044000521C252A7D309B002C2A00309B002C2A30
:1004500022132216A2162315A50B482A0A30A5003E
:10046000BA0A221C362AA60B362A22103A083C3C2D
:10047000031C3D2A03193D2A482ABA01BB0B432A13
:100480002216B7012315BC0B482AA216B801231562
:1004900008003308A000A00CA00C200C1F39A000FD
:1004A00000308A00200804200800A000A21149089A
:1004B0000F390006031D852AA00B5F2A842A840AAF
:1004C0004A080006031D852AA00B672A842A840A8D
:1004D0004B080006031D852AA00B6F2A842A840A74
:1004E0004C080006031D852AA00B772A842A840A5B
:1004F0004D080006031D852AA00B7F2A842A840A42
:100500004E080006031D852AA21508001F3084002E
:10051000840A80017F300406031D882A08008316A0
:100520008312061CF72A1030C600C830C500061C0E
:100530009E2AC50B972A6400C60B952AC501C601E1
:100540000618AA2AC50A0319C60A64000000C61DB7
:10055000A02AF72A0310C60CC50CC60CC50CC60C85
:10056000C50C07304502031CF72A3030C600450889
:10057000C7000630C702CD2A0430C8004508C700AE
:100580000618CA2A64000618CA2AC70BC02AC80B54
:10059000BE2AF72A03304502C7006400C70BCD2AE4
:1005A000061CF72A4508C700C7030000000000002A
:1005B00064000000000000000000C70BD82A4F10A4
:1005C000061C4F14FD22CE134F18CE174508C70046
:1005D0000330C702000000000000000000006400BB
:1005E000C70BEB2A0618F72AC60BBC2AF92ACF102C
:1005F000FA2ACF14831683120800CE0CCD0CCC0C33
:10060000CB0CCA0CC90C003464003D08BE00322378
:100610003F08C100BD0A21233F08C0000800640054
:100620003D08BE004108BF002A23C31F142B6400ED
:10063000BD0ABE0A4008BF002A23C31F1C2BBD0AE7
:100640000800831607138713831287170717843050
:10065000C3006E2B831607138713831287170717A0
:100660008030392B831607138713831287170717D8
:100670008330C300A0300713C40083160713871309
:1006800083120830C2008713C40D0713031807171D
:100690008717C20B432B8316031C502B0717871396
:1006A0008312871383160717871383128717071B75
:1006B000C3138713C31F7C2B03308A0043080F39F1
:1006C0008207682B6B2B7C2B682B6E2B722B7C2B61
:1006D000C30A3E083C2BC30A3F083C2B8717C30ABA
:1006E000A1303B2B0830C20087170314071F0310EB
:1006F000BF0D8713C20B742B0713831607138713C1
:08070000831287170717080098
:084000000000010001000000B6
:02400E00460F5B
:00000001FF
