:020000040000FA
:020000001828BE
:08000800FF0003088312A100B0
:1000100090288A0182072E3474345C343A34831673
:100020000030850002308600803081008312003469
:1000300064008B01850186010F20850186012C203B
:100040003520E0308B003E2883169900263098003A
:1000500083129030980008001F308400840A8001C9
:100060007F300406031D2E2808009F308400840A78
:100070008001EF300406031D37280800640041208A
:100080003E2883162314AD011730B3002430B0008E
:100090002408B2000830B1007E2008000830850630
:1000A000B30B55280A30B300AD0A8F280000851124
:1000B000B30B5D284230B300AD0A8F2800008515D0
:1000C0007020AD0A8F28A3188511AD0A8F28000073
:1000D0008511AD03AD03B30B6F28231083208F2848
:1000E000A310B20C0318A314B10B7D28B00A30087A
:1000F00084000008B2000830B100080038308100E8
:100100000B118B1608008B122310080000308A0098
:100110002D0882074E2856285E2863286728080085
:100120000B1D8B1E99280B11231C9028C8308102AF
:0E0130008620831221088300FF0E7F0E090037
:02400E00AA3FC7
:00000001FF
