:020000040000FA
:040000008A011B282E
:08000800F700030E031383123D
:10001000CC000A08CD000408CE002B2B82073F3409
:1000200006345B344F3466346D347D3407347F34AA
:100030006F343834763403138312640000308B003D
:10004000850186018701880189018C018D010F30AE
:10005000900016241F240C30AE001C309F000313A8
:1000600083168030910050309F0007309C00613033
:100070008F0000308C0000308D00C13085000030D2
:100080008600073087003E308800FE3089008030CF
:10009000810003178312A001A101A201173087007C
:1000A00080300338880080308804FF309C000F3097
:1000B0009D009E01123085009001910193019401F1
:1000C0009601970199019A018717031383126030F3
:1000D000A20085150330F1000230F200F316F2158C
:1000E0002C170C30BB000130BC002030BD000630A6
:1000F00092000313831244188C28AB188C2800003C
:100100008B130B1783160D16000000006300000010
:1001100000000D1283120B130D1E8C28000000002E
:10012000441CA220B5223F23BF223E302B05031DD5
:10013000082173197928AB1C51221C239422A32275
:100140003F23792844180729B5080319AC28B90BAF
:100150000729B50BFA2807292C1CB12800302C10D0
:10016000CC28AC1CB6287608AC10CC28AC1FBB2819
:100170007608AC13D0282C1DC0280A302C11CC28AE
:10018000AC1DC5287608AC11CC28AC1EC92800309F
:10019000D0282C1F07290030A0000230B500D3283A
:1001A000A0000330B500A00DA00DA00DF830200573
:1001B000C20073184215AC1AC2147310AC12FF2798
:1001C000A0000F302005BE04FE27BF00FD27C000A1
:1001D000FC27C1003E12C3013E3084000530A00060
:1001E0000008C307840AA00BF0282C1FFA28C30AB2
:1001F0002C13B501051083160510831205103C3031
:10020000A000A00B01298B170130B9002824080099
:100210002B1F182904302906031D15292B13AB1792
:100220001E30AF00AB107113282A2B17AB102C2AED
:10023000AB197D29AB1AFF2906302906031D242995
:100240007314AC16AB102C2AA91C3829721C2B2A4B
:10025000F3192B2AF3152C15F116731472150A30A5
:10026000F6001E30B200F2153F233F23AB102C2ABC
:10027000291D7029F218432971195229F1195C2995
:10028000711A66292B2A0130B0003308F600721467
:10029000F116F2107115F1117112AC1473142F22B2
:1002A000B60169290330B0007214F2107111F11512
:1002B00071127314AC1769290C30B0007214F2106B
:1002C0007111F11171167314AC176929402273145E
:1002D0006B293C30B100F2153F233F23AB102C2A91
:1002E000A91EF129AB15F3160230AD001030A8009D
:1002F0007114F2153F233F232C2A2D08023A0319CB
:1003000086292D08033A0319B9292B2AA80B8E290F
:100310000130F1061030A800F2153F235122AB1432
:100320002B182C2AAA01291A9829A919A229AD2922
:10033000A40A24083C3C031CA0290319A029A129D4
:10034000A401A829A408031DA7293C30A400A403E4
:10035000F2152408E123F4002C2A291D2E2A7114F9
:100360001030A8000330AD00F2153F233F23F114F5
:100370002C2AA80BC1290230F1061030A800F21572
:100380003F235122AB142B182C2AAA01291ACB295E
:10039000A919D529E329A50A25082E020318D12970
:1003A0000319D4290130A500DD292508013C031CCF
:1003B000DC290C30A500DD29A503F114F215250870
:1003C000E123F5002C2A291D2E2A7114F114AB10FB
:1003D000AB11AD01A3012030BD00F2153F233F2337
:1003E0002C2A721C2B2A2B1B2B2AF3192B2A291A95
:1003F000FB29A91D2B2AAB16F1160930B4002B18C6
:100400002B2A291A062AA9190E2A1F2A7608093C1E
:10041000031C0C2AF60A162AF601162A7608003A58
:100420000319142AF603162A0A30F6007608B300D8
:100430000930B400F2153F233F23AA012B2AB40B45
:100440002E2AAC147314AB12AB102F22AA012C2A43
:10045000F2153F232C2AAB101E30AF0008000230EB
:10046000A100BF300105A000D030A0070318A10AE9
:100470000310A10CA00C2008B700210AB800080046
:10048000B0017210721286136030A200F112F311E3
:100490007211F2147111F11171122C141E30B60088
:1004A0000800AB1085110530A000A00B552A0808E4
:1004B000A9002917A91729142B1A6D2AAB1B6D2A1D
:1004C0008918682A2B1B6D2A2B177117F2156D2AB4
:1004D0002B1F6D2A2B137113F215731E8515FF3018
:1004E000A9062B1C7E2A29082A06031D922AA60B80
:1004F000932A06171E30A700AB14922A29082A0651
:100500000319922A2B142908AA002B1F8A2A40308B
:10051000A600932AAB1E8F2A0C30A600932A063021
:10052000A600932A2B100800721CA22AA20BA22A52
:10053000721A9E2A721686170930A12A7212861321
:100540006030A2000800F31CAE2ABA0BB42A1030A7
:10055000BA008030F106F2153F23B42A731DB32A86
:10056000F117F215B42AF1130800BD0BBE2AAB191E
:10057000BE2A2030BD002030F306F21508000C1C06
:100580001B2B0C10A30AA30AA7080319CD2AA70B3B
:10059000CA2ACC2AA70BCD2A0613721CD62AB70B5F
:1005A000D62AB80BD62A2F227310AC17AB1FE12A1C
:1005B000AF0BDB2ADD2AAF0BE12A7117F2152B17DF
:1005C000AB1323083B3C031CE62A1B2BA301A40A04
:1005D000F215B6080319F02AB60BF02A73102C1482
:1005E000721CFD2AB10BFD2AB00BF72AFA2A3C3007
:1005F000B100FD2A40227608B300721D072BB20B12
:10060000072B7211F3113308F6007310AC15240890
:100610003B3C031C0C2B1B2BA401A50A25082E0216
:100620000318132B0319162B0130A500BB0B1B2B32
:100630002C170C30BB0008001F302B05031D2A2B84
:10064000F21D2A2B71142408E123F4002508E1236C
:10065000F500F11408000B198B1E342B0B11441CF0
:10066000342BC83081027624031383124E08840091
:100670004D088A004C0E8300F70E770E0900031711
:100680008312871303130D1203178717F21DDE2B36
:100690000130A2060319DE2B871E512B8712081E7C
:1006A000DE2BF211A10A90019101930194019601B0
:1006B000970199019A01711C852B00308A007408FA
:1006C0000F390E20A30023181014A3181314231994
:1006D0001614A3191914231A9614A31A9014231B81
:1006E000931400308A00740E0F390E20A3002318D3
:1006F0001015A318131523191615A3191915231A64
:100700009615A31A9015231B9315F31A1916F11CAD
:10071000B12B00308A0075080F390E20A300231872
:100720001016A318131623191616A3199916231AAF
:100730009616A31A9016231B931600308A00750E86
:100740000F390E20A30023189017A318931723190D
:100750009617A3191917231A1617A31A1017231B74
:10076000131771199917F1191A14711A9914F11EA6
:10077000D42B7608A40076080A3A031DC12B0B304F
:10078000A40000308A0024080E20A30023189A1425
:10079000A318971423199414A3199114231A141548
:1007A000A31A1A15231B1715711B1114F11B111510
:1007B00072181414F2189415721917140313831273
:1007C0000800A001F63E031CE72BA00AE22B0A3E1C
:1007D000A00E200408009F149F18EC2B0000851524
:1007E000731200001E08993C031C0B2C1E08873C4A
:1007F000031C062CBC0803190F2C4022F1177110A2
:10080000F1107315F310F215BC030F2CF3147311D0
:100810001030BA000F2CF113F3107311F2150C30D5
:10082000BB000800731685111F1408001F308400D8
:10083000840A80017F300406031D182C08009F30B5
:100840008400840A8001EF300406031D212C080077
:10085000C5011730CB003E30C8003E08CA00083042
:10086000C9006A244414080080308806CB0B3B2C56
:100870000A30CB00C50A7F2C00008813CB0B432C19
:100880003030CB00C50A7F2C000088175C24C50AD5
:100890004B03031912247F2CC4188813C50A4B0379
:1008A0000319EB237F2C00008813C503C503CB0B72
:1008B0005B2C44106F247F2CC410CA0C0318C41482
:1008C000C90B692CC80A480884000008CA0008300F
:1008D000C9000800383081000B118B1608008B12FC
:1008E00044100514831605148312080004308A008E
:1008F00045088207342C3C2C442C4C2C532C0800EB
:080FF800A834CB34ED340F34B2
:021000000000EE
:084000000000010001000000B6
:02400E00E43C90
:00000001FF
