:020000040000FA
:0600000065EF1FF0120085
:06001800D0EF11F0120010
:06002A000300EB3E0000A4
:10003000800300005E000000E53E00005A0400005E
:1000400006000000E23E0000FD000000030000008A
:10005000D9CFE6FFE1CFD9FF0B0EE126020EDB6A16
:10006000010EF36E040EF3CFDBFF12C4F6FF13C4D0
:10007000F7FF030EF626000EF7220800F550080BD6
:1000800002E1D7EF04F0FB0EDBCFF9F00001FB6BD0
:100090000001FC6B0B0E0401051902E1100E06199C
:1000A00008E1075106E1040EDB6A030EDB6A97EFF5
:1000B00004F0170E051902E1100E06190BE10751A5
:1000C00009E1040EDB6A020EF36E030EF3CFDBFFD1
:1000D00097EF04F0180E051902E1100E061928E139
:1000E000040EDB6A0751040A1BE0070A13E0010A49
:1000F0000BE0030A03E0080EDAEF04F0060EF36EDD
:10010000030EF3CFDBFF12D00A0EF36E030EF3CF14
:10011000DBFF0CD00E0EF36E030EF3CFDBFF06D029
:10012000120EF36E030EF3CFDBFF00D097EF04F057
:10013000055102E1200E061906E1075104E1000114
:10014000010EFA6FF4D3010E051902E1200E061913
:1001500006E1075104E10001020EFA6FE8D3020E36
:10016000051902E1200E061906E1075104E100011C
:10017000030EFA6FDCD3030E051902E1200E0619F7
:1001800006E1075104E10001040EFA6FD0D3400EDE
:10019000051902E1600E06190AE1075108E10001A4
:1001A000050EFA6F0001FB6B0001FC6BC0D3430E20
:1001B000051902E1600E06190BE1075109E1000182
:1001C000050EFA6F0001FB6B0001020EFC6FAFD34E
:1001D000510E051902E1600E06190BE1075109E104
:1001E0000001050EFA6F0001FB6B0001030EFC6FAE
:1001F0009ED3530E051902E1600E06190AE107515C
:1002000008E10001060EFA6F0001FB6B0001FC6BB8
:100210008ED3560E051902E1600E06190AE1075148
:1002200008E10001050EFA6F0001FB6B0001FC6F95
:100230007ED3110E051902E1630E061961E107056F
:100240005FE1DE6ADD6ADECF14F0DDCF15F0FB0E74
:10025000DBCF16F0FC0EDBCF17F015501718E8AE09
:1002600002D0173404D01650145C1750155821E2F0
:10027000FD0EDBCF16F0FE0EDBCF17F0DE5016249E
:10028000E96EDD501720EA6EEF50E66ED950050F8B
:10029000146EDACF15F0DE501424E96EDD5015200F
:1002A000EA6EE552E750EF6EDF2A010E01E3DB2A2A
:1002B000CAD7050EDBCFDEFFDBCFDDFFDECF14F0CC
:1002C000DDCF15F0153404E214506408000E155407
:1002D0000CE3DECF16F0DDCF17F0D880175004E71F
:1002E0009C0E165CFF0E175802E2120E63D300013B
:1002F000050EFA6F0001FB6B0001060EFC6F17D3B1
:10030000140E051902E1630E06190BE1070509E158
:100310000001050EFA6F0001FB6B0001080EFC6F77
:1003200006D3200E051902E1630E061955E10705F3
:1003300053E1DE6ADD6ADECF14F0DDCF15F0FB0E8F
:10034000DBCF16F0FC0EDBCF17F015501718E8AE18
:1003500002D0173404D01650145C1750155821E2FF
:10036000FD0EDBCF16F0FE0EDBCF17F0DE501624AD
:10037000E96EDD501720EA6EEF50E66ED950050F9A
:10038000146EDACF15F0DE501424E96EDD5015201E
:10039000EA6EE552E750EF6EDF2A010E01E3DB2A39
:1003A000CAD7050EDBCFDEFFDBCFDDFFDECF14F0DB
:1003B000DDCF15F0153404E214506408000E155416
:1003C00002E2120EF7D20001050EFA6F0001FB6B7C
:1003D00000010A0EFC6FABD2210E051902E1630E7B
:1003E000061956E1070554E1DE6ADD6ADECF14F036
:1003F000DDCF15F0FB0EDBCF16F0FC0EDBCF17F0D8
:1004000015501718E8AE02D0173404D01650145CFB
:100410001750155821E2FD0EDBCF16F0FE0EDBCF94
:1004200017F0DE501624E96EDD501720EA6EEF500B
:10043000E66ED950050F146EDACF15F0DE50142495
:10044000E96EDD501520EA6EE552E750EF6EDF2AC7
:10045000010E01E3DB2ACAD7050EDBCFDEFFDBCFBF
:10046000DDFFDECF14F0DDCF15F0D880155004E7A6
:100470009C0E145CFF0E155802E2120E9BD2000176
:10048000050EFA6F0001FB6B00010C0EFC6F4FD2E2
:10049000220E051902E1630E061955E1075153E1D9
:1004A000DE6ADD6ADECF14F0DDCF15F0FB0EDBCFA8
:1004B00016F0FC0EDBCF17F015501718E8AE02D07F
:1004C000173404D01650145C1750155821E2FD0E55
:1004D000DBCF16F0FE0EDBCF17F0DE501624E96EF0
:1004E000DD501720EA6EEF50E66ED950070F146EFC
:1004F000DACF15F0DE501424E96EDD501520EA6ED7
:10050000E552E750EF6EDF2A010E01E3DB2ACAD77E
:10051000D950070FE96EDACFEAFFEE50ED1008E090
:10052000D950090FE96EDACFEAFFEE50ED1002E183
:10053000120E40D20001050EFA6F0001FB6B0001A4
:100540000E0EFC6FF4D1230E051902E1630E06199D
:100550000BE1070509E10001050EFA6F0001FB6BD5
:100560000001120EFC6FE3D1240E051902E1630EA7
:1005700006190BE1070509E10001050EFA6F0001FC
:10058000FB6B0001140EFC6FD2D1300E051902E195
:10059000630E061921E107511FE1FD0EDBCFE9FFD4
:1005A000FE0EDBCFEAFFEFCF14F0000E145C09E380
:1005B000FD0EDBCFE9FFFE0EDBCFEAFFEF500308B5
:1005C00002E2050EF7D10001050EFA6F0001FB6B88
:1005D0000001160EFC6FABD1310E051902E1630E5E
:1005E00006190BE1070509E10001050EFA6F00018C
:1005F000FB6B0001170EFC6F9AD1320E051902E158
:10060000630E06190BE1070509E10001050EFA6FFB
:100610000001FB6B0001190EFC6F89D1330E051927
:1006200002E1630E06190BE1070509E10001050E61
:10063000FA6F0001FB6B00011B0EFC6F78D1340ECA
:10064000051902E1630E06190BE1070509E1000136
:10065000050EFA6F0001FB6B00011D0EFC6F67D1E8
:10066000350E051902E1630E06190BE1070509E1D4
:100670000001050EFA6F0001010EFB6F0001FC6B1B
:1006800056D1360E051902E1630E06190CE1070575
:100690000AE10001050EFA6F0001010EFB6F000177
:1006A000020EFC6F44D1400E051902E1630E0619DB
:1006B0000CE107510AE10001050EFA6F0001010E7D
:1006C000FB6F0001040EFC6F32D1410E051902E1EF
:1006D000630E06190CE107510AE10001050EFA6FDD
:1006E0000001010EFB6F0001050EFC6F20D1420ED0
:1006F000051902E1630E06190CE107510AE1000138
:10070000050EFA6F0001010EFB6F0001090EFC6F70
:100710000ED1430E051902E1630E06190CE107051F
:100720000AE10001050EFA6F0001010EFB6F0001E6
:100730000A0EFC6FFCD0440E051902E1630E061987
:100740000CE107050AE10001050EFA6F0001010E38
:10075000FB6F00010C0EFC6FEAD0450E051902E19B
:10076000630E06190CE107050AE10001050EFA6F98
:100770000001010EFB6F00010E0EFC6FD8D0460E7B
:10078000051902E1630E06190CE107510AE10001A7
:10079000050EFA6F0001010EFB6F0001100EFC6FD9
:1007A000C6D0510E051902E1630E06190CE107517E
:1007B0000AE10001050EFA6F0001010EFB6F000156
:1007C000110EFC6FB4D0520E051902E1630E06192A
:1007D0000CE107050AE10001050EFA6F0001010EA8
:1007E000FB6F0001120EFC6FA2D0530E051902E13F
:1007F000630E06190CE107050AE10001050EFA6F08
:100800000001010EFB6F0001140EFC6F90D0540E1E
:10081000051902E1630E06190CE107050AE1000162
:10082000050EFA6F0001010EFB6F0001160EFC6F42
:100830007ED0550E051902E1630E06190CE107057D
:100840000AE10001050EFA6F0001010EFB6F0001C5
:10085000180EFC6F6CD0700E051902E1630E0619BC
:100860000CE107510AE10001050EFA6F0001010ECB
:10087000FB6F00011A0EFC6F5AD0710E051902E1D0
:10088000630E06190CE107050AE10001050EFA6F77
:100890000001010EFB6F00011B0EFC6F48D0720EB1
:1008A000051902E1630E06190CE107050AE10001D2
:1008B000050EFA6F0001010EFB6F00011D0EFC6FAB
:1008C00036D0730E051902E1630E06190BE1070518
:1008D00009E10001050EFA6F0001020EFB6F000135
:1008E000FC6B25D0740E051902E1630E06190BE1AD
:1008F000070509E10001050EFA6F0001020EFB6F0A
:100900000001FC6F14D0750E051902E1630E061983
:100910000CE107050AE10001050EFA6F0001020E65
:10092000FB6F0001040EFC6F02D0120E43D0040EC8
:10093000DB5033E1DE6ADD6ADECF14F0DDCF15F087
:10094000FB0EDBCF16F0FC0EDBCF17F0155017189F
:10095000E8AE02D0173404D01650145C1750155866
:100960001BE2FD0EDBCFE9FFFE0EDBCFEAFFEF500F
:10097000E66E030EDBCFE6FFE5EC14F0E552E55240
:10098000FD0EDB2AFE0E01E3DB2A030EDB2ADF2A43
:10099000010E01E3DB2AD0D70AD0FD0EDBCFE6FF44
:1009A000FE0EDBCFE6FFF6EC13F0E552E552020E49
:1009B000DB5000D0146E0B0EE15C02E2E16AE552FE
:1009C000E16E1450E552E7CFD9FF1200D9CFE6FF10
:1009D000E1CFD9FF030EE126DE6ADD6ADECF14F037
:1009E000DDCF15F0F90EDBCF16F0FA0EDBCF17F0E6
:1009F00015501718E8AE02D0173404D01650145C06
:100A00001750155820E2FD0EDBCFE9FFFE0EDBCFBD
:100A1000EAFFEF50E66EFB0EDBCFE9FFFC0EDBCF0B
:100A2000EAFFE552E750EF6EFD0EDB2AFE0E01E312
:100A3000DB2AFB0EDB2AFC0E01E3DB2ADF2A010E98
:100A400001E3DB2ACBD7030EE15C02E2E16AE55267
:100A5000E16EE552E7CFD9FF1200D9CFE6FFE1CF33
:100A6000D9FF030EE126DE6ADD6ADECF14F0DDCFAA
:100A700015F0F90EDBCF16F0FA0EDBCF17F015509C
:100A80001718E8AE02D0173404D01650145C175073
:100A9000155820E2FD0EDBCFE9FFFE0EDBCFEAFFAB
:100AA000EF50E66EFB0EDBCFE9FFFC0EDBCFEAFF7B
:100AB000E552E750EF6EFD0EDB06FE0E01E2DB06AF
:100AC000FB0EDB2AFC0E01E3DB2ADF2A010E01E329
:100AD000DB2ACBD7030EE15C02E2E16AE552E16E6C
:100AE000E552E7CFD9FF1200D9CFE6FFE1CFD9FF1A
:100AF000030EE126DE6ADD6ADECF14F0DDCF15F0ED
:100B0000F90EDBCF16F0FA0EDBCF17F015501718E1
:100B1000E8AE02D0173404D01650145C17501558A4
:100B200020E2FD0EDBCFE9FFFE0EDBCFEAFFEF5048
:100B3000E66EFB0EDBCFE9FFFC0EDBCFEAFFE552F2
:100B4000E750EF6EFD0EDB2AFE0E01E3DB2AFB0E03
:100B5000DB06FC0E01E2DB06DF2A010E01E3DB2AE5
:100B6000CBD7030EE15C02E2E16AE552E16EE552A9
:100B7000E7CFD9FF1200D9CFE6FFE1CFD9FF020EB0
:100B8000E126DE6ADD6ADECF14F0DDCF15F0F90E66
:100B9000DBCF16F0FA0EDBCF17F015501718E8AEC2
:100BA00002D0173404D01650145C1750155821E2A7
:100BB000FD0EDBCFF6FFFE0EDBCFF7FF0800F55092
:100BC000E66EFB0EDBCFE9FFFC0EDBCFEAFFE55262
:100BD000E750EF6EFD0EDB2AFE0E01E3DB2AFB0E73
:100BE000DB06FC0E01E2DB06DF2A010E01E3DB2A55
:100BF000CAD7020EE15C02E2E16AE552E16EE5521B
:100C0000E7CFD9FF1200D9CFE6FFE1CFD9FF0D0E14
:100C1000E126DF6A010EDB6A020EDB6A030EDB6A85
:100C2000040EDB6A050EDB6A060EDB6A070EDB6A62
:100C3000D950FA0FE96EFF0EDA20EA6EEF50E00BA2
:100C4000E842E842E842E842E842040A02E1DAEF18
:100C50000AF0070A01E1BAD3010A01E1A1D2020AAE
:100C600001E188D1010A02E0DDEF0AF00001E9515B
:100C700013E0030EE66EF70EDBCFE6FFF80EDBCFD8
:100C8000E6FFF90EDBCFE6FFE9EC0DF0E552E552A9
:100C9000E552E552EBEF0AF0F80EDB50146E156AE0
:100CA00014C015F0146AF90EDB5004011424056F0A
:100CB000000E1520066FF70EDBCF07F407C4E6FF22
:100CC00005C4E6FF06C4E6FFF5EC0AF0E552E5527E
:100CD000E552E76E0A0EE7CFDBFFDB5001E037D1CC
:100CE00012C4F6FF13C4F7FF040EF626000EF72217
:100CF0000900F5CF08F40A00F5CF09F40001EB6B09
:100D00000001EC69ED6912C4F6FF13C4F7FF030E8E
:100D1000F626000EF7220800F550020B01E105D17E
:100D2000D950FA0FE96EFF0EDA20EA6ED950FA0FA9
:100D3000E96EFF0EDA20EA6EEF50020B01E0010EC1
:100D4000000A01E1A4D0010A01E0D4D0040E146E1F
:100D5000D950FA0FE96EFF0EDA20EA6EEF500C0B55
:100D6000E842E842145CE76E080EE7CFDBFFDBCF1A
:100D700014F012C4F6FF13C4F7FF040EF626000E9B
:100D8000F7220900F5CF15F00800F5CF16F0145042
:100D9000155C000E165869E30401D950F60F1F6F59
:100DA000FF0EDA20206F080EDBCFE6FFE66A000EAA
:100DB000E66E010EE66E1FC4E6FF20C4E6FF4DDEC0
:100DC000146E060EE15E1450080EDBCFE6FFE66AF5
:100DD000000EE66E010EE66E28EC00F0E552E552DC
:100DE000E552E552E76E0A0EE7CFDBFFDB502AE162
:100DF000080EDBCFE6FFE66A12C4F6FF13C4F7FF66
:100E0000060EF626000EF7220900F5CFE6FF0800D1
:100E1000F5CFE6FF000EE66E010EE66ED7DD146E2E
:100E2000060EE15E1450F70EDBCFE6FFF80EDBCFC7
:100E3000E6FFF90EDBCFE6FF92EC0DF0E552E5524E
:100E4000E55212D00A0EDBCFE6FFF70EDBCFE6FF4E
:100E5000F80EDBCFE6FFF90EDBCFE6FFE9EC0DF095
:100E6000E552E552E552E55211D0040EE66EF70E5A
:100E7000DBCFE6FFF80EDBCFE6FFF90EDBCFE6FFB8
:100E8000E9EC0DF0E552E552E552E5524DD0F50E94
:100E9000DB50146E156A14C015F0146AF60EDB50A0
:100EA0001424EC6F000E1520ED6F12C4F6FF13C46E
:100EB000F7FF040EF626000EF7220900F5CF14F016
:100EC0000800F5CF15F0EC51145CED51155812E205
:100ED000040EE66EF70EDBCFE6FFF80EDBCFE6FF83
:100EE000F90EDBCFE6FFE9EC0DF0E552E552E552F5
:100EF000E55271D3080EDB6A0001EA6B0001010EB6
:100F0000E96F0001E80EF76F030EF86FF70EDBCF05
:100F1000E6FFF80EDBCFE6FFF90EDBCFE6FF92EC43
:100F20000DF0E552E552E55211D0070EE66EF70ED0
:100F3000DBCFE6FFF80EDBCFE6FFF90EDBCFE6FFF7
:100F4000E9EC0DF0E552E552E552E55212D00A0EF9
:100F5000DBCFE6FFF70EDBCFE6FFF80EDBCFE6FFD9
:100F6000F90EDBCFE6FFE9EC0DF0E552E552E55274
:100F7000E55231D30001E90514E00001EA6B030EEC
:100F8000E66EF70EDBCFE6FFF80EDBCFE6FFF90EDD
:100F9000DBCFE6FFE9EC0DF0E552E552E552E55214
:100FA0001AD3070E146ED950FA0FE96EFF0EDA202D
:100FB000EA6EEF500E0BE842145CE76E080EE7CFC6
:100FC000DBFFDB500001EA25146E14500401085DBC
:100FD000000E09590FE2040EE66E07C4E6FF05C4D1
:100FE000E6FF06C4E6FFE9EC0DF0E552E552E552F6
:100FF000E552F1D20001EC1D01E1ED1D1AE0080EF1
:10100000DB500001EA25146E14500001EC5D000E67
:10101000ED590FE2040EE66E07C4E6FF05C4E6FFD5
:1010200006C4E6FFE9EC0DF0E552E552E552E55263
:10103000D2D2D950FA0FE96EFF0EDA20EA6EEF50E5
:10104000100B01E0010E0001EB5D0FE0010EE66EFA
:1010500007C4E6FF05C4E6FF06C4E6FFE9EC0DF0B1
:10106000E552E552E552E552B6D20401D950F90FE6
:101070001F6FFF0EDA20206F080EDBCFE6FFE66A57
:101080000001EA51156A000F146E010E152214C0FA
:10109000E6FF15C0E6FF1FC4E6FF20C4E6FFDDDC67
:1010A000166E060EE15E1650080EDB500001EA27B0
:1010B0000001010EE96FD950FA0FE96EFF0EDA2038
:1010C000EA6EEF50010B5FE00001EC1D01E1ED1D48
:1010D0000FE0EC1D01E1ED1D47E00001EA51146E47
:1010E000156A14500001EC1902E11550ED193CE1AC
:1010F0000001EA51E66EE66A000EE66E010EE66E4B
:1011000028EC00F0E552E552E552E552E76E0A0E92
:10111000E7CFDBFFDB5025E107C4E6FF05C4E6FFB0
:1011200006C4E6FF62DAE552E552E5520001EA51F3
:10113000E66EE66A12C4F6FF13C4F7FF060EF62643
:10114000000EF7220900F5CFE6FF0800F5CFE6FF15
:10115000000EE66E010EE66E39DC146E060EE15EE0
:1011600014500001E96B0FD00E0EE66E07C4E6FFC7
:1011700005C4E6FF06C4E6FFE9EC0DF0E552E552D2
:10118000E552E55228D2EBC0E6FFADEC0DF0E5529A
:101190000001E80EF76F030EF86F0001EB711BD230
:1011A0000001E95113E0E96B030EE66EF70EDBCFA9
:1011B000E6FFF80EDBCFE6FFF90EDBCFE6FFE9EC4A
:1011C0000DF0E552E552E552E55205D2F80EDB503E
:1011D000146E156A14C015F0146AF90EDB50040180
:1011E0001424056F000E1520066FF70EDBCF07F4F1
:1011F00007C4E6FF05C4E6FF06C4E6FFF6D9E552DC
:10120000E552E552E76E0A0EE7CFDBFFDB5001E067
:10121000CAD012C4F6FF13C4F7FF040EF626000E60
:10122000F7220900F5CF08F40A00F5CF09F412C43B
:10123000F6FF13C4F7FF030EF626000EF722080090
:10124000F550010B01E19DD00001739173937395EB
:1012500073977399F90EDBCF72F0F80EDBCF71F054
:1012600007C470F0738112C4F6FF13C4F7FF040EB5
:10127000F626000EF7220800080EF5CFDBFFDB5044
:10128000040857E3080EDBCFE6FF040EE552D880D2
:10129000E754030BF36EF346F346F30E7315F310A6
:1012A000736F73830001E96B12C4F6FF13C4F7FF79
:1012B000030EF626000EF7220800F550040B1CE082
:1012C000080EDBCFE6FFE66A6F0EE66E000EE66EF6
:1012D00012C4F6FF13C4F7FF060EF626000EF7221F
:1012E0000900F5CFE6FF0800F5CFE6FF44DC146EF9
:1012F000060EE15E14501CD0080EDBCFE6FFE66A56
:101300006F0EE66E000EE66E12C4F6FF13C4F7FF12
:10131000060EF626000EF7220900F5CFE6FF0800BC
:10132000F5CFE6FF74EC05F0146E060EE15E145086
:1013300020D0739573977393040EE66EE66A6F0E72
:10134000E66E000EE66ED9CFE6FFDACFE6FF74EC6C
:1013500005F0146E060EE15E1450080EDBCF6FF040
:101360000001020EE96F0001EA6B0001EB6B090E50
:10137000DB6AC3EC0DF00001E80EF76F030EF86FA7
:1013800011D0060EE66EF70EDBCFE6FFF80EDBCFD0
:10139000E6FFF90EDBCFE6FFE9EC0DF0E552E55292
:1013A000E552E55212D00A0EDBCFE6FFF70EDBCF97
:1013B000E6FFF80EDBCFE6FFF90EDBCFE6FFE9EC48
:1013C0000DF0E552E552E552E55205D1020E00015D
:1013D000E95D12E0030EE66EF70EDBCFE6FFF80ED6
:1013E000DBCFE6FFF90EDBCFE6FFE9EC0DF0E552CF
:1013F000E552E552E552EFD0D950FA0FE96EFF0EF3
:10140000DA20EA6EEF50100B01E0010E0001EB5DF7
:101410000FE0010EE66E07C4E6FF05C4E6FF06C452
:10142000E6FFE9EC0DF0E552E552E552E552D3D086
:101430000001EA51166E176A04011650085D146E19
:1014400017500959156E070E145C000E155808E365
:10145000090EDB6A070EF36E080EF3CFDBFF15D023
:101460000001EA51166E176A04011650085D146EE9
:1014700017500959156E080E14C0DBFF010EF36EEC
:10148000090EF3CFDBFF0001E96B080EE66EE66A9A
:10149000720EE66E000EE66ED9CFE6FFDACFE6FFFB
:1014A00074EC05F0146E060EE15E145007C4E6FFFE
:1014B00005C4E6FF06C4E6FF98D8E552E552E552BA
:1014C000E76E0A0EE7CFDBFF12C4F6FF13C4F7FF87
:1014D000030EF626000EF7220800F550040B27E055
:1014E000080EDBCFE6FFE66A720EE66E000EE66ED1
:1014F0000001EA51166E176A12C4F6FF13C4F7FF13
:10150000060EF626000EF7220900F5501624146E7A
:101510000900F5501720156E14C0E6FF15C0E6FF50
:10152000BBEC05F0186E060EE15E185026D0080ED2
:10153000DBCFE6FFE66A720EE66E000EE66E000195
:10154000EA51166E176A12C4F6FF13C4F7FF060EAF
:10155000F626000EF7220900F5501624146E090035
:10156000F5501720156E14C0E6FF15C0E6FF74ECA9
:1015700005F0186E060EE15E1850070E0001EA270E
:10158000090EDBCFE6FFEBC0E6FF080EDBCFE6FF80
:10159000070EE552D880E754E66EC9EC0DF0E5522F
:1015A000E552E5520001EB710001E80EF76F030E02
:1015B000F86F11D00001E96B0ED0050EE66E07C47E
:1015C000E6FF05C4E6FF06C4E6FFE9EC0DF0E552D0
:1015D000E552E552E5520D0EE15C02E2E16AE552A8
:1015E000E16EE552E7CFD9FF1200D9CFE6FFE1CF98
:1015F000D9FF070EE126050EDB6A060EDB6A040042
:10160000050EDB6A060EDB6A080EF36E020EF3CFE0
:10161000DBFFD40EDE6E360EDD6EA80EF36E030E0B
:10162000F3CFDBFF040EDB6ADECFF6FFDDCFF7FF83
:101630000900F5CF14F00800F5CF15F0FD0EDBCF53
:1016400016F0FE0EDBCF17F01450165C155017582D
:1016500034E3050EDBCF18F0060EDBCF19F0030ED6
:10166000DBCF1AF0040EDBCF1BF01A50185C1B50B6
:10167000195823E2DECFF6FFDDCFF7FF0900F5CFE3
:1016800014F00800F5CF15F0FD0EDB50141803E13F
:10169000FE0EDB50151803E1020EDB6A0ED0D9CF27
:1016A000E9FFDACFEAFF080EEE26000EEF22050E64
:1016B000DB2A060E01E3DB2AB7D7020EDB5066E118
:1016C000110EF36E020EF3CFDBFFDECFF6FFDDCFA0
:1016D000F7FF0900F5CF14F00800F5CF15F0FD0E67
:1016E000DB50141803E1FE0EDB50151818E1DECFB5
:1016F000F6FFDDCFF7FF020EF626000EF7220800F8
:10170000F5CF16F0FC0EDB50165C09E2D9CFE9FFED
:10171000DACFEAFF080EEE26000EEF22D6D7DECF94
:10172000F6FFDDCFF7FF020EF626000EF7220800C7
:10173000F550E66ED950050FE96EDACFEAFFE552B3
:10174000E750EE6EED6ADECFF6FFDDCFF7FF090062
:10175000F5CF14F00800F5CF15F0FD0EDB5014188E
:1017600003E1FE0EDB50151811E1DECFF6FFDDCFF1
:10177000F7FF020EF626000EF7220800F5CF16F04E
:10178000FC0EDB50165C02E1020EDB6A020EDB503F
:1017900004E1DECF12F4DDCF13F4020EDB5000D0F3
:1017A000146E070EE15C02E2E16AE552E16E14504C
:0817B000E552E7CFD9FF12005A
:0817B800F80E741400080FE2A2
:1017C000040100890001FF5109E10001810EF46F5D
:1017D000200EF56F87D90001010EFF6F04D00001C4
:1017E000FF6B040100991200D9CFE6FFE1CFD9FFCA
:1017F000E6520F0140B76DD1A4B6A496F6C0DFFF44
:10180000DFCF14F0050EE76E1418E8AE02D0E7340F
:1018100002D0E750145C01E34ED1DFCFE9FFEA6A62
:10182000E9BEEA680C0EEA02F3CFEAFF0C0EE90209
:10183000F3CFE9FFF450EA26600EE926000EEA2213
:101840000B0EE926000EEA22EF50800B01E131D1A8
:10185000DFCFE9FFEA6AE9BEEA680C0EEA02F3CFDD
:10186000EAFF0C0EE902F3CFE9FFF450EA26600E1E
:10187000E926000EEA220B0EE926000EEA22EF9E70
:10188000DFCFE9FFEA6AE9BEEA680C0EEA02F3CFAD
:10189000EAFF0C0EE902F3CFE9FFF450EA26600EEE
:1018A000E926000EEA22090EE926000EEA22EFCF11
:1018B00042FFDFCFE9FFEA6AE9BEEA680C0EEA02FE
:1018C000F3CFEAFF0C0EE902F3CFE9FFF450EA266A
:1018D000600EE926000EEA220A0EE926000EEA2230
:1018E000EFCF41FFDFCFE9FFEA6AE9BEEA680C0EFD
:1018F000EA02F3CFEAFF0C0EE902F3CFE9FFF4505E
:10190000EA26600EE926000EEA22080EE926000EFD
:10191000EA22EFCF45FFDFCFE9FFEA6AE9BEEA68D6
:101920000C0EEA02F3CFEAFF0C0EE902F3CFE9FF57
:10193000F450EA26600EE926000EEA22070EE92698
:10194000000EEA22EFCF46FFDFCFE9FFEA6AE9BEE9
:10195000EA680C0EEA02F3CFEAFF0C0EE902F3CFBD
:10196000E9FFF450EA26600EE926000EEA22060E90
:10197000E926000EEA22EFCF47FFDFCFE9FFEA6A50
:10198000E9BEEA680C0EEA02F3CFEAFF0C0EE902A8
:10199000F3CFE9FFF450EA26600EE926000EEA22B2
:1019A000050EE926000EEA22EFCF48FFDFCFE9FF60
:1019B000EA6AE9BEEA680C0EEA02F3CFEAFF0C0E0F
:1019C000E902F3CFE9FFF450EA26600EE926000EA3
:1019D000EA22040EE926000EEA22EFCF49FFDFCF0C
:1019E000E9FFEA6AE9BEEA680C0EEA02F3CFEAFF11
:1019F0000C0EE902F3CFE9FFF450EA26600EE92667
:101A0000000EEA22030EE926000EEA22EFCF4AFF7B
:101A1000DFCFE9FFEA6AE9BEEA680C0EEA02F3CF1B
:101A2000EAFF0C0EE902F3CFE9FFF450EA26600E5C
:101A3000E926000EEA22020EE926000EEA22EFCF86
:101A40004BFFDFCFE9FFEA6AE9BEEA680C0EEA0263
:101A5000F3CFEAFF0C0EE902F3CFE9FFF450EA26D8
:101A6000600EE926000EEA22EE52EFCF4CFFDFCFE8
:101A7000E9FFEA6AE9BEEA680C0EEA02F3CFEAFF80
:101A80000C0EE902F3CFE9FFF450EA26600EE926D6
:101A9000000EEA22EFCF4DFF0F01408704000F0137
:101AA00040B7FDD7A4B4A494DF50DF2A0001F66F3D
:101AB00002D0DF2AA5D6DFCF14F0050EE76E14188A
:101AC000E8AE02D0E73402D0E750145C02E3000134
:101AD000F66BE552E552E7CFD9FF120000017F6BAC
:101AE000838F1200F4C08BF0F5C08AF000C489F037
:101AF0000001886B876B866B9AC385F09CC384F06A
:101B00009DC314F0156A1450856F03019C510001A8
:101B1000846F8F8FF46BF56B1200FDC07FF00001B6
:101B2000838F1200D9CFE6FFE1CFD9FF0001738B7D
:101B3000738D739F73917393739573977399FD0E60
:101B4000DBCF71F0FE0EDBCF72F0FC0EDBCF70F05E
:101B5000778FE552E7CFD9FF1200D9CFE6FFE1CF6B
:101B6000D9FF0001738B739D739FFE0EDB50739939
:101B7000E8B073897391739373957397778FE55278
:101B8000E7CFD9FF12000001739B738D739F778F8E
:101B90001200D9CFE6FFE1CFD9FF0001739B739DFF
:101BA000739FFE0EDB50070BF36EF346F10E7315B9
:101BB000F310736FFD0EDB507399E8B07389FC0E60
:101BC000DB507391E8B07381778FE552E7CFD9FF8F
:101BD0001200D9CFE6FFE1CFD9FF040EE126FB0EBC
:101BE000DB501A0A01E15FD1030A01E151D1010A78
:101BF00001E143D10F0A01E135D1010A01E12AD106
:101C0000030A01E11BD1010A01E10CD1070A01E13C
:101C1000FDD0010A01E1EED0030A01E1DFD0010AA3
:101C200001E1D0D01F0A01E1C1D0010A01E1B2D027
:101C3000030A01E1A7D0010A01E198D0070A01E1F6
:101C400089D0010A01E17AD0030A6CE0010A61E05F
:101C50000F0A54E0010A46E0030A3BE0010A2EE0C5
:101C6000070A20E0010A15E0030A0AE0010A01E080
:101C700025D1DE6ADD6A020EDB6A030EDB6A3DD126
:101C8000030EDE6E050EDD6E020EDB6A030EDB6AEE
:101C900015D1040EDE6E050EDD6E020EDB6A030E3C
:101CA000DB6A0CD1040EDE6E050EDD6E010EF36EE6
:101CB000020EF3CFDBFF030EDB6A00D1040EDE6EF3
:101CC000050EDD6EF36E020EF3CFDBFF030EDB6A53
:101CD000F5D0010EDE6E060EDD6E020EDB6A030E1F
:101CE000DB6AECD0010EDE6E060EDD6E010EF36EC9
:101CF000020EF3CFDBFF030EDB6AE0D0010EDE6ED7
:101D0000060EDD6E020EF36EF3CFDBFF030EDB6A11
:101D1000D5D0020EDE6E060EDD6E020EDB6A030EFD
:101D2000DB6ACCD0040EDE6E060EDD6E410EF36E65
:101D3000020EF3CFDBFF030EDB6AC0D0040EDE6EB3
:101D4000060EDD6E420EF36E020EF3CFDBFF030EC6
:101D5000DB6AB4D0040EDE6E060EDD6E470EF36E47
:101D6000020EF3CFDBFF030EDB6AA8D0040EDE6E9B
:101D7000060EDD6E430EF36E020EF3CFDBFF030E95
:101D8000DB6A9CD0060EDE6EDD6E020EDB6A030E91
:101D9000DB6A94D0070EDE6E060EDD6E100EF36E5B
:101DA000020EF3CFDBFF030EDB6A88D0070EDE6E78
:101DB000060EDD6E120EF36E020EF3CFDBFF030E86
:101DC000DB6A7CD0070EDE6E060EDD6E130EF36E40
:101DD000020EF3CFDBFF030EDB6A70D0090EDE6E5E
:101DE000060EDD6E110EF36E020EF3CFDBFF030E57
:101DF000DB6A64D0090EDE6E060EDD6E300EF36E09
:101E0000020EF3CFDBFF030EDB6A58D0090EDE6E45
:101E1000060EDD6E310EF36E020EF3CFDBFF030E06
:101E2000DB6A4CD0090EDE6E060EDD6E320EF36EEE
:101E3000020EF3CFDBFF030EDB6A40D0090EDE6E2D
:101E4000060EDD6E360EF36E020EF3CFDBFF030ED1
:101E5000DB6A34D0DE6A080EDD6E020EDB6A030E2A
:101E6000DB6A2CD0DE6A080EDD6E200EF36E020EE9
:101E7000F3CFDBFF030EDB6A21D0DE6A080EDD6ED6
:101E8000150EF36E020EF3CFDBFF030EDB6A16D0E6
:101E9000DE6A080EDD6E160EF36E020EF3CFDBFF68
:101EA000030EDB6A0BD0DE6A080EDD6E170EF36ED2
:101EB000020EF3CFDBFF030EDB6A00D00001739B41
:101EC000739D738F73917393739573977399FD0ECD
:101ED000DBCF71F0FE0EDBCF72F0FC0EDBCF70F0CB
:101EE000020EDBCF6FF0030EDBCF6EF0DFCF6DF0B5
:101EF000010EDBCF6CF0778FE96B040EE15C02E240
:101F0000E16AE552E16EE552E7CFD9FF1200D9CF81
:101F1000E6FFE1CFD9FF030EE1260001CBAD4DD0A6
:101F2000CB9DC751810A37E0010A25E0820A13E000
:101F3000030A01E042D0C65109E0C651146E156A89
:101F4000E451141802E1E551151804E10001050EF1
:101F5000FD6F78D832D0C65109E0C651146E156AAB
:101F6000E451141802E1E551151804E10001040ED2
:101F7000FD6F6BD822D0C65109E0C651146E156AA8
:101F8000E451141802E1E551151804E100017F0E37
:101F9000FD6F5BD812D0C65109E0C651146E156AA8
:101FA000E451141802E1E551151806E100017F0E15
:101FB000FD6F4BD813EC15F000D00001A7AD10D089
:101FC000A79DA351146E156A14C015F0146AA2518E
:101FD000030114249A6F000E15209B6F39D882DDFF
:101FE0000001B3BDB39DBFAD23D0BF9D050E000161
:101FF000FD5D1EE1B4C0E6FFB5C0E6FFB6C0E6FF7A
:10200000B7C0E6FFB8C0E6FFB9C0E6FFBAC0E6FF5A
:10201000BBC0E6FFBCC0E6FFBDC0E6FFBEC0E6FF3A
:10202000BFC0E6FF03EC06F0146E0C0EE15E145028
:10203000030EE15C02E2E16AE552E16EE552E7CFB0
:10204000D9FF120003019287120003019297120038
:10205000D9CFE6FFE1CFD9FF020EE12652EC1FF007
:1020600003019C5103019A1904E103019D510301ED
:102070009B1904E103019389939341D1030193993F
:1020800093830301800E9D1502E0DF6A02D0010EEA
:10209000DF6EDF0413E19D5103019B19E8AE02D00E
:1020A0009B3507D09A5103019C5D03019B510301AD
:1020B0009D5904E2010EDB6ADF6E43D0DF0415E1B7
:1020C00003019B5103019D19E8AE02D09D3507D055
:1020D0009C5103019A5D03019D5103019B5905E247
:1020E000DE52010EDD6EDF6A2CD0DF5014E10301F9
:1020F0009B5103019D19E8AE02D09D3507D09C513C
:1021000003019A5D03019D5103019B5904E2010EF5
:10211000DB6ADF6A16D0DF5014E103019D51030131
:102120009B19E8AE02D09B3507D09A5103019C5D04
:1021300003019B5103019D5904E2DE52010EDD6E45
:10214000DF6E9CC39EF39DC39FF303019395030130
:102150009F510301A719E8AE02D0A73507D0A651B9
:1021600003019E5D0301A75103019F5907E2A6C326
:102170009EF3A7C39FF30301938516D00301A551D6
:1021800003019F19E8AE02D09F3507D09E5103018D
:10219000A45D03019F510301A55906E2A4C39EF368
:1021A000A5C39FF3030193850301AC5103019E274F
:1021B0000301AD5103019F23A8C30DF0A9C30EF085
:1021C0009EC308F09FC309F00FEC1FF006C09EF3FA
:1021D00007C09FF3AAC30DF0ABC30EF09EC308F077
:1021E0009FC309F02DEC1FF008C09EF309C09FF3B8
:1021F0000301B051040A01E182D0010A01E17FD05C
:10220000030A01E17CD0050A4BE0010A1AE0030A47
:1022100004E0010A01E073D072D0DF0409E1030198
:10222000B15103019E270301B25103019F2308D03E
:102230000301B15103019E5F0301B25103019F5B92
:102240005ED0010EDB5016E1DF0409E10301B1515C
:1022500003019E270301B25103019F230AD0DF50DF
:1022600008E10301B15103019E5F0301B251030173
:102270009F5B15D0DF0409E10301B75103019E27DD
:102280000301B85103019F230AD0DF5008E1030185
:10229000B75103019E5F0301B85103019F5B2FD02B
:1022A000010EDB5016E1DF0409E10301B351030124
:1022B0009E270301B45103019F230AD0DF5008E198
:1022C0000301B55103019E5F0301B65103019F5BFA
:1022D00015D0DF0409E10301B95103019E27030171
:1022E000BA5103019F230AD0DF5008E10301BB511B
:1022F00003019E5F0301BC5103019F5B00D0020EEE
:10230000E15C02E2E16AE552E16EE552E7CFD9FF16
:10231000120013EC15F0040100810001F46B0001C0
:10232000F56B72EC0DF0040100910400F4EC0BF07D
:10233000EEDD43EC1FF00301FA0530E10301FA6B17
:1023400087DE50EC1FF00001F007000EF15B00018A
:10235000F051F11108E18DEC0DF0F2C0F0F0F3C096
:10236000F1F0DCEC0BF00001E95118E00001F70797
:10237000000EF85B0001F751F81110E10001E96B64
:10238000020EE66E07C4E6FF05C4E6FF06C4E6FFDC
:10239000E9EC0DF0E552E552E552E552C6D71200E0
:1023A000D8CFE4FFE0CFE4FFE46EDACFE4FFE2CF82
:1023B000DAFFE9CFE4FFEACFE4FFF3CFE4FFF4CFA5
:1023C000E4FFE652D9CFE6FFE1CFD9FF030EE126C5
:1023D000010E6ECFDBFF020E6FCFDBFF60AE1FD0B2
:1023E00066CFE4F367CFE5F368CFE6F369CFE7F3B1
:1023F0006ACFE8F36BCFE9F36CCFEAF36DCFEBF381
:102400006050080B01E0010E0301EC6F62CFEDF3A9
:1024100061CFEEF365CFEFF3609EA49020D056CF4E
:10242000E4F357CFE5F358CFE6F359CFE7F35ACFAC
:10243000E8F35BCFE9F35CCFEAF35DCFEBF30F0199
:102440005051080B01E0010E0301EC6F52CFEDF388
:1024500051CFEEF355CFEFF30F01509FA492DF6AF7
:10246000DFCF1CF0050EE76E1C18E8AE02D0E73493
:1024700002D0E7501C5C01E344D1DFCFE9FFEA6AF8
:10248000E9BEEA680C0EEA02F3CFEAFFE902F3CFF5
:10249000E9FFF450EA269C0EE926000EEA22090E16
:1024A000E926000EEA22EF500301ED5D01E027D19D
:1024B000DFCFE9FFEA6AE9BEEA680C0EEA02F3CF71
:1024C000EAFFE902F3CFE9FFF450EA269C0EE92681
:1024D000000EEA220A0EE926000EEA22EF50EE5D17
:1024E00001E00DD1DFCFE9FFEA6AE9BEEA680C0E30
:1024F000EA02F3CFEAFFE902F3CFE9FFF450EA265C
:102500009C0EE926000EEA22070EE926000EEA22BA
:10251000E4C3EFFFDFCFE9FFEA6AE9BEEA680C0E29
:10252000EA02F3CFEAFFE902F3CFE9FFF450EA262B
:102530009C0EE926000EEA22060EE926000EEA228B
:10254000E5C3EFFFDFCFE9FFEA6AE9BEEA680C0EF8
:10255000EA02F3CFEAFFE902F3CFE9FFF450EA26FB
:102560009C0EE926000EEA22050EE926000EEA225C
:10257000E6C3EFFFDFCFE9FFEA6AE9BEEA680C0EC7
:10258000EA02F3CFEAFFE902F3CFE9FFF450EA26CB
:102590009C0EE926000EEA22040EE926000EEA222D
:1025A000E7C3EFFFDFCFE9FFEA6AE9BEEA680C0E96
:1025B000EA02F3CFEAFFE902F3CFE9FFF450EA269B
:1025C0009C0EE926000EEA22030EE926000EEA22FE
:1025D000E8C3EFFFDFCFE9FFEA6AE9BEEA680C0E65
:1025E000EA02F3CFEAFFE902F3CFE9FFF450EA266B
:1025F0009C0EE926000EEA22020EE926000EEA22CF
:10260000E9C3EFFFDFCFE9FFEA6AE9BEEA680C0E33
:10261000EA02F3CFEAFFE902F3CFE9FFF450EA263A
:102620009C0EE926000EEA22EE52EAC3EFFFDFCF4E
:10263000E9FFEA6AE9BEEA680C0EEA02F3CFEAFFB4
:10264000E902F3CFE9FFF450EA269C0EE926000EDA
:10265000EA22EBC3EFFFDFCFE9FFEA6AE9BEEA68EF
:102660000C0EEA02F3CFEAFFE902F3CFE9FFF450E0
:10267000EA269C0EE926000EEA22080EE926000E44
:10268000EA22EFC3EFFFDFCFE9FFEA6AE9BEEA68BB
:102690000C0EEA02F3CFEAFFE902F3CFE9FFF450B0
:1026A000EA269C0EE926000EEA220B0EE926000E11
:1026B000EA22EF8CEC511C6EDFCFE9FFEA6AE9BE3B
:1026C000EA680C0EEA02F3CFEAFFE902F3CFE9FF72
:1026D000F450EA269C0EE926000EEA220B0EE926AB
:1026E000000EEA221C50010BF36EF346F346F3464C
:1026F000F346F346DF0EEF14F310EF6E02D0DF2A3D
:10270000AFD6C00E741402E0749E749CF10E6F1666
:10271000010EDB90DB98DB9ADB9CDB9EDB506F12BB
:10272000F10E6F16020EDB506F12030EE15C02E237
:10273000E16AE552E16EE552E7CFD9FFE552E5CF18
:10274000F4FFE5CFF3FFE5CFEAFFE5CFE9FFE5CF03
:10275000DAFFE550E5CFE0FFE5CFD8FF1000C69ADD
:10276000C688C79CC68A1200D9CFE6FFE1CFD9FF41
:10277000E652829E060EE66E24D8E552DF6EC698BB
:10278000828EC688E552E552E7CFD9FF1200D9CF35
:10279000E6FFE1CFD9FFE652010EDF6EDF500CE01D
:1027A000829E050EE66E0DD8E552DF6EE66A09D808
:1027B000E552DF6E828EF2D7E552E552E7CFD9FFC0
:1027C0001200D9CFE6FFE1CFD9FFE652C6BEC69EC2
:1027D000FE0EDB50C96EC7A0FED7C950DF6EDF50BA
:1027E00000D0E552E552E7CFD9FF1200D9CFE6FF7E
:1027F000E1CFD9FF070EE126060EDB6AB0DF00014C
:10280000FA51FE0BE842E76E040EE7CFDBFF200E25
:102810000001FB03F3CF14F0010E0001FA15800D47
:10282000F35014240001FC25E76E050EE7CFDBFF13
:102830000001F951F36E060EDBCFF4FFF350F45CA8
:102840004BE292DF829E020EE66EBBDFE552DF6E48
:10285000040EDBCFE6FFB5DFE552DF6E050EDBCF02
:10286000E6FFAFDFE552DF6E010EDB6A200EF36E8E
:10287000010EDBCFF4FFF350F45C20E20001F951CC
:10288000F36E060EDBCFF4FFF350F45C17E2060E96
:10289000DB50E76EFD0EDBCFE9FFFE0EDBCFEAFF7C
:1028A000E750E926000EEA22EF50E66E8ADFE55295
:1028B000DF6E010EDB2A060EDB2AD8D7C698828E81
:1028C000C68865DF050EDBCFE7FF010EDB50E7268C
:1028D000050EE7CFDBFFACD7828E010E146E070E1C
:1028E000E15C03E200D0E16AE552E16E1450E5528A
:1028F000E7CFD9FF1200D9CFE6FFE1CFD9FF040E11
:10290000E1260001FA51FE0BE842DF6E200E0001C5
:10291000FB03F3CF14F0010E0001FA15800DF35004
:1029200014240001FC25E76E010EE7CFDBFF17DF63
:10293000829E030EE66E45DFE552E76E020EE7CF9C
:10294000DBFFDFCFE6FF3DDFE552E76E020EE7CFAC
:10295000DBFF010EDBCFE6FF34DFE552E76E020E50
:10296000E7CFDBFF030EDB6A0001F951F36E030EC4
:10297000DBCFF4FFF350F45C19E2E66A22DFE552A4
:10298000E76E020EE7CFDBFF030EDB50E76EFD0EB6
:10299000DBCFE9FFFE0EDBCFEAFFE750E926000EB2
:1029A000EA22C9CFEFFF030EDB2ADED7828E010EAB
:1029B000146E040EE15C03E200D0E16AE552E16EC0
:1029C0001450E552E7CFD9FF1200D9CFE6FFE1CF8F
:1029D000D9FFA6B2FED7FE0EDB50A96EFD0EDB506E
:1029E000A86EA69EA69CA684F29E550EA76EAA0E61
:1029F000A76EA682F28EA694E552E7CFD9FF120009
:102A0000D9CFE6FFE1CFD9FFA694A6B0FED7FE0E40
:102A1000DB50A96EA69EA69CA680A85000D0E552C9
:102A2000E7CFD9FF1200D9CFE6FFE1CFD9FF050EDE
:102A3000E1260001830EFD6FC26A0F0EC16EBD6AF2
:102A4000806A816A826A92680B0E936E100E946E91
:102A5000070EB46E836A846A956A966AF26A829EE9
:102A6000828EC66A310EC66EC76A79DE4AEC17F0EE
:102A7000E66AC6DFE552A8500001E46FE56B020E7E
:102A8000E66EBEDFE552A8CFF2F0A8CFF0F0030E5D
:102A9000E66EB6DFE552A8CFF3F0A8CFF1F0060E50
:102AA000E66EAEDFE5520301E06F070EE66EA8DFCB
:102AB000E5520301E16F080EE66EA2DFE552030165
:102AC000E26F090EE66E9CDFE5520301E36FE0C39F
:102AD00080F3E1C381F3E2C382F3E3C383F30A0E1D
:102AE000E66E8EDFE5520301E06F0B0EE66E88DFC7
:102AF000E5520301E16F0C0EE66E82DFE552030141
:102B0000E26F0D0EE66E7CDFE5520301E36FE0C37A
:102B100084F3E1C385F3E2C386F3E3C387F30E0EC8
:102B2000E66E6EDFE5520301E06F0F0EE66E68DFC2
:102B3000E5520301E16F100EE66E62DFE55203011C
:102B4000E26F110EE66E5CDFE5520301E36FE0C356
:102B500088F3E1C389F3E2C38AF3E3C38BF3120E74
:102B6000E66E4EDFE5520301E06F130EE66E48DFBE
:102B7000E5520301E16F140EE66E42DFE5520301F8
:102B8000E26F150EE66E3CDFE5520301E36FE0C332
:102B90008CF3E1C38DF3E2C38EF3E3C38FF3F2C092
:102BA0005EF4F3C05FF4010EE66E2ADFE552020E1A
:102BB000A8CFDBFFDB50060A29E0030A21E0010A67
:102BC00019E0070A11E0010A09E0030A01E024D034
:102BD000400EF36E020EF3CFDBFF23D0410EF36EF7
:102BE000020EF3CFDBFF1DD0430EF36E020EF3CFC8
:102BF000DBFF17D0440EF36E020EF3CFDBFF11D0D4
:102C0000490EF36E020EF3CFDBFF0BD0580EF36EBE
:102C1000020EF3CFDBFF05D0410EF36E020EF3CFB1
:102C2000DBFFE4C0DEF30301DF6F050ED890DE3773
:102C3000DF37E806FBE1DFC314F0156A145000012A
:102C4000A66FE00E0301DE150001A56FA76BE4C0BF
:102C5000DEF30301030EDF6F050ED890DE37DF379A
:102C6000E806FBE1DFC314F0156A14500001B26FEF
:102C7000E00E0301DE150001B16FB36BE4C0DEF3BB
:102C80000301060EDF6F050ED890DE37DF37E8064A
:102C9000FBE1DFC314F0156A14500001BE6FE00EB3
:102CA0000301DE150001BD6FBF6BCA6BC96BCB6B37
:102CB000800E0001E4250301DE6F010EDF6F050EBB
:102CC000D890DE37DF37E806FBE1DFC314F0156A82
:102CD000145000016A6FE00E0301DE150001696FF8
:102CE000080E686F6B6BE4C0DEF30301070EDF6F45
:102CF000050ED890DE37DF37E806FBE1DFC314F0BE
:102D0000156A14500001826FE00E0301DE15000108
:102D1000816F010E806F7F6B7E6B7D6B7C6B7B6B3D
:102D20007A6B796B786B836B800E0001E42503016D
:102D3000DE6FDF6B050ED890DE37DF37E806FBE18C
:102D4000DFC314F0156A145000018E6FE00E03010A
:102D5000DE1500018D6F080E8C6F8F6B800E0001E9
:102D6000E4250301DE6F050EDF6FD890DE37DF3715
:102D7000E806FBE1DFC314F0156A14500001766F1A
:102D8000E00E0301DE150001756F080E746F736BA2
:102D9000716B726B706B6F6B6E6B6D6B6C6B776B5B
:102DA000300E6F6E6EAAFED7800E6F6E6EAEFED7BF
:102DB000020EDB50706EBF0E716E070E726E200E2B
:102DC000736E776A0F01186919691A6B1B6B1C699E
:102DD0001D691E6B1F6B036B026B076B066B0B6B26
:102DE0000A6B0F6B0E6B136B126B176B166B608A93
:102DF000508B6084A6C000FFA5C001FFB2C004FFD5
:102E0000B1C005FFCAC008FFC9C009FFBEC00CFFA2
:102E1000BDC00DFF0CCF10FF0DCF11FF0CCF14FF65
:102E20000DCF15FF6F6E6F6A6EBEFED7C50ED56EE5
:102E3000A00ED66EB50ECD6E0001F30EEE6FFC0E39
:102E4000EF6FEFC0CFFFEEC0CEFFD08EF28EF28CD0
:102E5000A56A030EA36E0001F66B00017F0EFD6FE5
:102E60000301926B936B0001E96B0401006B00019D
:102E7000F46BF56B54EC1FF06EEC0DF0F4EC0BF012
:102E8000050EE15C02E2E16AE552E16EE552E7CF50
:042E9000D9FF120054
:0C2E9400D9CFE6FFE1CFD9FF080EE12600
:102EA0000001010EFA6F0001FB6B0001FC6B0001D9
:102EB000320EF96F800EE66E010EE66E7BEC14F0BA
:102EC000E552E5520001020EFA6F0001FB6B0001B2
:102ED000FC6B0001320EF96F000EE66E030EE66E1B
:102EE0007BEC14F0E552E5520001030EFA6F00018D
:102EF000FB6B0001FC6B0001320EF96F800EE66E79
:102F0000020EE66E7BEC14F0E552E5520001040E71
:102F1000FA6F0001FB6B0001FC6B0001320EF96FD0
:102F2000000EE66E020EE66E7BEC14F0E552E55202
:102F30000001050EFA6F0001FB6B0001FC6B000144
:102F4000020EF96FD950020FE66E000EDA20E66E1F
:102F50007BEC14F0E552E552020EDBCF90F3030E4A
:102F6000DBCF91F30001050EFA6F0001FB6B00014E
:102F7000020EFC6F0001010EF96F03019551E66E20
:102F8000E66A7BEC14F0E552E5520001050EFA6F9B
:102F90000001FB6B0001030EFC6F0001020EF96FD4
:102FA000D950020FE66E000EDA20E66E7BEC14F0CC
:102FB000E552E552020EDBCF97F3030EDBCF98F319
:102FC0000001060EFA6F0001FB6B0001FC6B0001B3
:102FD000180EF96F380EE66E040EE66E7BEC14F0F8
:102FE000E552E5520001050EFA6F0001FB6B00018E
:102FF000FC6F0001010EF96F03019951E66EE66A5C
:103000007BEC14F0E552E5520001050EFA6F000169
:10301000FB6B0001060EFC6F0001020EF96FD95028
:10302000020FE66E000EDA20E66E7BEC14F0E5523D
:10303000E552020EDBCFA0F3030EDBCFA1F30001BC
:10304000050EFA6F0001FB6B0001080EFC6F00011A
:10305000020EF96FD950020FE66E000EDA20E66E0E
:103060007BEC14F0E552E552020EDBCFA2F3030E27
:10307000DBCFA3F30001050EFA6F0001FB6B00012B
:103080000A0EFC6F0001020EF96FD950020FE66EB6
:10309000000EDA20E66E7BEC14F0E552E552020EEB
:1030A000DBCFA4F3030EDBCFA5F30001050EFA6F0F
:1030B0000001FB6B00010C0EFC6F0001020EF96FAA
:1030C000D950020FE66E000EDA20E66E7BEC14F0AB
:1030D000E552E552020EDBCFA6F3030EDBCFA7F3DA
:1030E0000001050EFA6F0001FB6B00010E0EFC6F74
:1030F0000001040EF96FD950040FE66E000EDA20BD
:10310000E66E7BEC14F0E552E552040EDBCFA8F33B
:10311000050EDBCFA9F3060EDBCFAAF3070EDBCF3C
:10312000ABF30001050EFA6F0001FB6B0001120EFC
:10313000FC6F0001020EF96FD950020FE66E000E0F
:10314000DA20E66E7BEC14F0E552E552020EDBCF9E
:10315000ACF3030EDBCFADF30001050EFA6F0001F7
:10316000FB6B0001140EFC6F0001020EF96FD950C9
:10317000020FE66E000EDA20E66E7BEC14F0E552EC
:10318000E552020EDBCFAEF3030EDBCFAFF300014F
:10319000050EFA6F0001FB6B0001160EFC6F0001BB
:1031A000010EF96F0301B051E66EE66A7BEC14F094
:1031B000E552E5520001050EFA6F0001FB6B0001BC
:1031C000170EFC6F0001020EF96FD950020FE66E68
:1031D000000EDA20E66E7BEC14F0E552E552020EAA
:1031E000DBCFB1F3030EDBCFB2F30001050EFA6FB4
:1031F0000001FB6B0001190EFC6F0001020EF96F5C
:10320000D950020FE66E000EDA20E66E7BEC14F069
:10321000E552E552020EDBCFB3F3030EDBCFB4F37E
:103220000001050EFA6F0001FB6B00011B0EFC6F25
:103230000001020EF96FD950020FE66E000EDA207F
:10324000E66E7BEC14F0E552E552020EDBCFB5F3EF
:10325000030EDBCFB6F30001050EFA6F0001FB6B26
:1032600000011D0EFC6F0001020EF96FD950020F14
:10327000E66E000EDA20E66E7BEC14F0E552E552C5
:10328000020EDBCFB7F3030EDBCFB8F30001050E60
:10329000FA6F0001010EFB6F0001FC6B0001020ED2
:1032A000F96FD950020FE66E000EDA20E66E7BEC65
:1032B00014F0E552E552020EDBCFB9F3030EDBCF7B
:1032C000BAF30001050EFA6F0001010EFB6F000159
:1032D000020EFC6F0001F96FD950020FE66E000E6E
:1032E000DA20E66E7BEC14F0E552E552020EDBCFFD
:1032F000BBF3030EDBCFBCF30001050EFA6F000138
:10330000010EFB6F0001040EFC6F0001010EF96F4E
:103310000301BD51E66EE66A7BEC14F0E552E5521E
:103320000001050EFA6F0001010EFB6F0001050E92
:10333000FC6F0001040EF96FD950040FE66E000E09
:10334000DA20E66E7BEC14F0E552E552040EDBCF9A
:10335000BEF3050EDBCFBFF3060EDBCFC0F3070EC7
:10336000DBCFC1F30001050EFA6F0001010EFB6F08
:103370000001090EFC6F0001010EF96F0301C2513B
:10338000E66EE66A7BEC14F0E552E5520001050EAC
:10339000FA6F0001010EFB6F00010A0EFC6F0001C5
:1033A000020EF96FD950020FE66E000EDA20E66EBB
:1033B0007BEC14F0E552E552020EDBCFC3F3030EB3
:1033C000DBCFC4F30001050EFA6F0001010EFB6FA5
:1033D00000010C0EFC6F0001020EF96FD950020FB4
:1033E000E66E000EDA20E66E7BEC14F0E552E55254
:1033F000020EDBCFC5F3030EDBCFC6F30001050ED3
:10340000FA6F0001010EFB6F00010E0EFC6F000150
:10341000020EF96FD950020FE66E000EDA20E66E4A
:103420007BEC14F0E552E552020EDBCFC7F3030E3E
:10343000DBCFC8F30001050EFA6F0001010EFB6F30
:103440000001100EFC6F0001010EF96F0301C9515C
:10345000E66EE66A7BEC14F0E552E5520001050EDB
:10346000FA6F0001010EFB6F0001110EFC6F0001ED
:10347000010EF96F0301CA51E66EE66A7BEC14F0A7
:10348000E552E5520001050EFA6F0001010EFB6FD7
:103490000001120EFC6F0001020EF96FD950020FED
:1034A000E66E000EDA20E66E7BEC14F0E552E55293
:1034B000020EDBCFCBF3030EDBCFCCF30001050E06
:1034C000FA6F0001010EFB6F0001140EFC6F00018A
:1034D000020EF96FD950020FE66E000EDA20E66E8A
:1034E0007BEC14F0E552E552020EDBCFCDF3030E78
:1034F000DBCFCEF30001050EFA6F0001010EFB6F6A
:103500000001160EFC6F0001020EF96FD950020F78
:10351000E66E000EDA20E66E7BEC14F0E552E55222
:10352000020EDBCFCFF3030EDBCFD0F30001050E8D
:10353000FA6F0001010EFB6F0001180EFC6F000115
:10354000020EF96FD950020FE66E000EDA20E66E19
:103550007BEC14F0E552E552020EDBCFD1F3030E03
:10356000DBCFD2F30001050EFA6F0001010EFB6FF5
:1035700000011A0EFC6F0001010EF96F0301D35117
:10358000E66EE66A7BEC14F0E552E5520001050EAA
:10359000FA6F0001010EFB6F00011B0EFC6F0001B2
:1035A000020EF96FD950020FE66E000EDA20E66EB9
:1035B0007BEC14F0E552E552020EDBCFD4F3030EA0
:1035C000DBCFD5F30001050EFA6F0001010EFB6F92
:1035D00000011D0EFC6F0001020EF96FD950020FA1
:1035E000E66E000EDA20E66E7BEC14F0E552E55252
:1035F000020EDBCFD6F3030EDBCFD7F30001050EAF
:10360000FA6F0001020EFB6F0001FC6B0001F96F05
:10361000D950020FE66E000EDA20E66E7BEC14F055
:10362000E552E552020EDBCFD8F3030EDBCFD9F320
:103630000001050EFA6F0001020EFB6F0001FC6F26
:103640000001F96FD950020FE66E000EDA20E66E27
:103650007BEC14F0E552E552020EDBCFDAF3030EF9
:10366000DBCFDBF30001050EFA6F0001020EFB6FEA
:103670000001040EFC6F0001020EF96FD950020F19
:10368000E66E000EDA20E66E7BEC14F0E552E552B1
:10369000020EDBCFDCF3030EDBCFDDF3080EE15CC3
:1036A00002E2E16AE552E16EE552E7CFD9FF12008E
:1036B000030006800500020003800100008002FF75
:1036C000000000000008010060080100620800001E
:1036D00000010802010000260100C1360200002698
:1036E0000100C136030000260200C1360400002696
:1036F0000400C136050000260100C1360600002680
:103700000200C136070000260400C1360010000583
:103710000400943D011000010100000402100001AA
:10372000040001040510001304005A0408100005E9
:103730001800983D091000050400B13D0A1000056D
:103740000400B63D0B10000B0100E4000C10001348
:1037500002005B040D10001301005D041710000B44
:1037600002005E04181000010100BB3D1810010B9F
:10377000040080031810020B040084031810030BCC
:10378000040088031810040B04008C0300120005C9
:103790000100B036001201110400B136001202110E
:1037A0000400B336001400050100D13600140101F5
:1037B0000400B536011400010100C13602140001F5
:1037C0000100C136031400010100C13600160005D6
:1037D0000100D236001601050400C93600160205A4
:1037E0000400CD36001603050400CD36001604058E
:1037F0000400CD36001605050400CD36001606057A
:103800000400CD36001607050400CD360016080565
:103810000400CD36011600010100C1360216000178
:103820000100C136031600010100C1360018000571
:103830000100D336001801110400B9360018021136
:103840000100BB36011800010100C1360218000159
:103850000100C136031800010100C136001A00053D
:103860000100D236001A01050400C536001A02050F
:103870000400CD36001A03050400CD36001A0405F5
:103880000400CD36001A05050400CD36001A0605E1
:103890000400CD36001A07050400CD36001A0805CD
:1038A0000400CD36011A00010100C136021A0001E0
:1038B0000100C136031A00010100C1360020000BCF
:1038C000320080010120000B320000030220000BB7
:1038D000320080020320000B3200000200300000A2
:1038E0000100C136003000000100C1360040000078
:1038F0000100C136004000000100C1360050000048
:103900000100C136005000000100C1360060000314
:1039100001002A04026000050100D13602600103A3
:1039200001003304036000050100D1360360010388
:1039300001003204056000050100D1360560010375
:1039400001003704066000050100D136066001035E
:1039500001003404076000050100D136076001034F
:1039600001003504086000050100D136086001033C
:10397000010036044060000B02009003416000012A
:103980000200920342600001010094034360000BB7
:10399000010095034E6000010200F4004F60000139
:1039A00001009603506000050400B13D5160000B1A
:1039B000020097035260000B08008C035360000B59
:1039C00018003804546000051800C83D5560000513
:1039D0002000E13D5660000B01009903576000058F
:1039E0001800023E0062000101000A0400630005A5
:1039F0000100BC3D0063010302009A03016300055E
:103A00000100BC3D0163010102009C03106300053D
:103A10000100BC3D1063010102009E03116300051B
:103A20000100BC3D1163010B0200A00314630005FB
:103A30000100BC3D1463010B0200A20320630005DA
:103A40000100BC3D2063010B0200A40321630005BB
:103A50000100BC3D2163010B0200A6032263000BA1
:103A60000400A803236300050100BC3D2363010B90
:103A70000200AC03246300050100BC3D2463010B7C
:103A80000200AE033063000B0100B0033163000598
:103A90000100BC3D3163010B0200B103326300053C
:103AA0000100BC3D3263010B0200B3033363000528
:103AB0000100BC3D3363010B0200B5033463000514
:103AC0000100BC3D3463010B0200B7033563000500
:103AD0000100BC3D3563010B0200B90336630005EC
:103AE0000100BC3D3663010B0200BB034063000BC9
:103AF0000100BD034163000B0400BE034263000BE1
:103B00000100C203436300050100BC3D4363010B98
:103B10000200C303446300050100BC3D4463010B84
:103B20000200C503456300050100BC3D4563010B70
:103B30000200C7034663000B0100C9035063000580
:103B40000100BC3D5063010502001B3E5163000BA8
:103B50000100CA03526300050100BC3D5263010B22
:103B60000200CB03536300050100BC3D5363010B0E
:103B70000200CD03546300050100BC3D5463010BFA
:103B80000200CF03556300050100BC3D5563010BE6
:103B90000200D1037063000B0100D30371630005C1
:103BA0000100BC3D7163010B0200D4037263000588
:103BB0000100BC3D7263010B0200D6037363000574
:103BC0000100BC3D7363010B0200D8037463000560
:103BD0000100BC3D7463010B0200DA03756300054C
:103BE0000100BC3D7563010B0200DC0300700000A6
:103BF0000100C136008000000100C13600800000D5
:103C00000100C136009000000100C1360000000034
:043C10000100C136B8
:0C3C140005050505050505050505050568
:103C20000505050505050505050505050505050544
:103C30000505050505050505050505050505050534
:103C40000505050505050505050505050505050524
:103C50000505050505050505050505050505050514
:103C60000505050505050505050505050505050504
:103C700005050505050505050505050505050505F4
:103C800005050505050505050505050505050505E4
:103C900005050505050505050505050505050505D4
:103CA00005050505050505050505050505050505C4
:103CB00005050505050505050505050505050505B4
:103CC00005050505050505050505050505050505A4
:103CD00005050505050505050505050543414E20B6
:103CE0004F70656E204879647261756C6963205607
:053CF000616C76650027
:0A3CF6002A0EF66E000EF76E000EA7
:103D0000F86E04010900F550556F0900F550566F23
:103D100003E1556701D03DD00900F550506F09000F
:103D2000F550516F0900F550526F09000900F55028
:103D3000E96E0900F550EA6E090009000900F55026
:103D4000536F0900F550546F09000900F6CF57F47E
:103D5000F7CF58F4F8CF59F450C4F6FF51C4F7FF29
:103D600052C4F8FF0401535302E1545307E0090021
:103D7000F550EE6E5307F8E25407F9D757C4F6FF33
:103D800058C4F7FF59C4F8FF04015507000E565BED
:043D9000BFD7120087
:0C3D940098010000487964726F56616C61
:103DA00076655F434F5F4974616C69612020202014
:103DB0000056312E300056312E30000401020330FF
:103DC0003031413233343500496E73657274205698
:103DD000616C7665206465736372697074696F6E77
:103DE00000687474703A2F2F7777772E4879647251
:103DF00061756C696356616C7665732E636F6D20B7
:103E000020004C616D6264612053697374656D6953
:0D3E10002C4D696C616E6F2C495400000050
:023E1E0008C0DA
:103E200012F008500D02F4CF07F0F3CF06F009505E
:103E30000E02F4CF09F0F3CF08F00D02F35007267D
:103E4000F4500822E86A092212500E02F3500726A5
:0A3E5000F4500822E86A0922000C71
:063E5A00056A046A100E67
:103E6000E76ED89008360936043605360D50045CE6
:103E70000E50055805E30D50045E0E50055A082AF1
:063E8000E72EF0D712004E
:0A3E86003F0E03019C6F9D6BF2A438
:103E900006D0A00ED66EF2940301010EFA6F120046
:0C3EA00000D0120000D0120000D0120070
:043EAC00D9CFE6FF85
:103EB000E1CFD9FF080EE126E15C02E2E16AE552BA
:0A3EC000E16EE552E7CFD9FF1200D2
:063ECA0015EE00F025EEEC
:103ED00000F0F86A019C7BEC1EF089EC11F0FDD734
:023EE0001200CE
:033EE200000A00D3
:063EE50080000000D00780
:053EEB0078563412219D
:103EF000436587785634122143658700000000012E
:103F0000020078120000001400000064003200502B
:103F100000B0FF01000000000002000104000300E7
:103F20000300050002000200000100010001000082
:103F30000000000000000000000000000000000081
:093F400000000000000000000078
:020000040030CA
:0100010002FC
:0100020016E7
:010003000EEE
:01000500807A
:0100060001F8
:0100080000F7
:010009008076
:01000A0000F5
:01000B008074
:01000C0000F3
:01000D0000F2
:0200000400F00A
:100000000302E804000312345678123456780000D4
:06001000000101020304DF
:00000001FF
