:10107700120F4ED2AF1200038F19AF211210E9855C
:10108700221A85231B85241C85251D85261E852759
:091097001F85282012000E80DCE8
:0810D300022900004100620047
:10100400EFC454F0F5B1EC5407FEED54F87803CE78
:10101400C313CE13D8F9F5BC7E00ED54077805C38D
:1010240033CE33CED8F9F5BDE4F5BF75C4FF75C52D
:0A103400E075C705F5B275B3882218
:040D1E008E0A8F0B9F
:100D22007B01900062E0FFEBD39F5071EBC454F063
:100D3200F5B1E5B230E563AFBCEF75F008A4FFAEE4
:100D4200F0E5BDC4135407FDEF4DFFE48F0F8E0E87
:100D5200F50DF50CE5B3540FF9850B82850A83EE88
:100D6200F0A3EFF0850B82850A83A3A3E9F0E4FFE9
:100D7200EFC399501CE50B2404FDE4350AFCEF7522
:100D820083002DFDE5833C8D82F583E5A3F00F8082
:0F0D9200DF53B2DF75B3887F01220B80857F00AE
:010DA100222F
:040DA200AB07AA06EB
:100DA6008B828A83A3A3E0F98B828A83E0FEA3E089
:100DB600FFE48F188E17F516F515F5B1E5B230E696
:100DC600FBE5B220E6037F002253B33F53B2BFE5F3
:100DD6001854F8FFE5175407FEE4FDFC78031204E7
:100DE600F38FBCE5185407FFE4FEFDFC78051205F9
:100DF600068FBDE4F5BFFFEFC3995019EB2404F548
:100E060082E43AF583E5822FF582E43583F583E0C3
:0E0E1600F5A30F80E2E9540F4440F5B37F01CD
:010E240022AB
:0810E000C2AFAF2AAE29D2AF66
:0110E80022E5
:10103E00C2AFAD2AAC29D2AF0FBF00010ED3ED9FC8
:10104E00EC9E400FED9FEC9EC3948050037F0122D7
:10105E007F0022C3EF9DFFEE9CFED3EF9400EE9433
:08106E008040037F01227F0096
:011076002257
:03000B000210BC24
:1010BC00C0E0C28C758CF2758AFBD28C052AE52AAD
:0710CC0070020529D0E0329B
:100EEF00E4FD758F01EF647D4E700A75B41275B510
:100EFF002E75B6180DE4900062F0FFEFC454F0F5B4
:100F0F00B175BCFF75BDE0E4F5BF75C4FF75C5E0F5
:100F1F0075C705EF6005E4F5B2800375B240E4F5DF
:100F2F00B30FBF0FD675AB02E5AA30E2FBC28C43FD
:0E0F3F008901758CF2758AFBD28CD2A9AF05A0
:010F4D002281
:1010A000AD07AC06900062E004F0E0FED3940E4081
:0C10B000037F0022AF061210047F012213
:05000300E5A0540FFF11
:0100080022D5
:0610E900EF540FF5802218
:020E25008F1527
:100E2700C2AF7D017C00D3ED9515EC94005031E401
:100E3700F583F5827FFF1210E9A3E582B421F5E57A
:100E470083B44EF0E4F583F582E4FF1210E9A3E5DD
:100E570082B421F5E583B44EF00DBD00010C80C6C8
:100E6700E4F583F582AA83AB82AF03AE02E4FCFD0F
:100E77007B507AC3F9F8C31204DD40A6E4FF1210D1
:040E8700E9A380E17A
:100FAC004300100091010F004F18100004000000C6
:100FBC004318100141534500431810020200010070
:100FCC00431810032000010043181004FFFFFFFF1B
:100FDC004F18200003000000431820014153450125
:100FEC0043182002504F434D4318200320000100AA
:080FFC0057FFFFFFFFFFFFFF9D
:0407FC00EF020E25D5
:0310EF00020F4E9F
:100F4E00C2AF7F107819E4F608DFFC7BD07A077DFC
:100F5E00077F7D7E00120B45750E087B04E4FDFCB9
:100F6E007F011209B3750E0C7B04E4FDFC7F0212A7
:100F7E0009B3E4F50FF510751104F5127B64FAFD53
:100F8E00FC7F011206C3750F0075100575110475EF
:0E0F9E0012047B647A00E4FDFC7F020206C3AD
:0410DB0041002D02A1
:060E8B008D11AB07AA0661
:100E9100E4FD8A128B137514FF75150F7516ACAB33
:100EA10014AA15A91674082516F516E43515F515B5
:100EB100740129F9E43AFA120497FF740129F9E45B
:100EC1003AFA120497FEBFFF06BEFF037FFF22EF2F
:100ED100B51314EEB51210740129F9E43AFA1204AB
:0D0EE10097B51103AF05220DBDFFB47FFFD3
:010EEE0022E1
:0807B5008F148E138D128C11BC
:1007BD009000107480F0E4FB74142BF582E4340087
:1007CD00F583E514F0FFAE13AD12AC1178081204E9
:1007DD00F38F148E138D128C110BBB04DB7E007FF7
:0E07ED000C120DA2EF70077F017E881207FC30
:0107FB0022DB
:060800008B0A8A0B890C33
:1008060012049754E0F50D9000021204B0750E0024
:10081600F50F9000011204B0FD7C00E50FFEE42DFB
:10082600F50FEC3EF50E9000031204B0FFF51090A4
:1008360000011204B0900011F09000021204B09072
:100846000012F0A3EFF0E50D64406008E50D6420AA
:100856006002219EAD10AF0FAE0E120E8BEFC39449
:10086600FF5038E50D6440706AEF75F008A424ACBB
:10087600F9740F35F0FA7BFF78107C007D017E005D
:100886007F081204717E007F0C120DA2EF70077FA5
:10089600027E881207FC7F01228038E50F64017012
:1008A60004E50E64107030E510702CE50D644070A0
:1008B60022900010744FF090002CE0900014F07E0F
:1008C600007F0C120DA2EF70077F027E881207FCD4
:1008D6007F01227F02217EE50F64177004E50E6416
:1008E6001060022186E51060022186E50D644070E5
:1008F6002A900010744BF0900027E0900014F090BE
:100906000026E0900015F07E007F0C120DA2EF701D
:10091600077F027E881207FC7F0122AB0AAA0BA979
:100926000C120497642B704E9000051204B0FF90D1
:100936000026E4F0A3EFF09000041204B0FD7C0062
:10094600900027E0FEE42DFFEC3E900026F0A3EF9A
:10095600F09000107460F0E4900014F0A3F0A3F09F
:10096600A3F07E007F0C120DA2EF70077F027E8837
:100976001207FC7F01227F007E007D017C06802617
:10098600E5107006FFFE7D0280067F117E007D0960
:100996007C061207B57F0022E50D64807F01600C9E
:0C09A6007E007D047C051207B57F002256
:0109B2002222
:100A7E00E4F50AE50A75F016A42436F582E434008E
:100A8E00F583E0FEA3E04E70026133E50A75F016C1
:100A9E00A42438F582E43400F583E0FF7E00C0061E
:100AAE00C007E50A75F016A4244BF582E43400F570
:100ABE0083E02419F9E4FAFBC001E50A75F016A4E7
:100ACE00243AF9740035F0A801FC7D01D001D0075D
:100ADE00D0061204711210E0EF24FEFFEE34FFFE7A
:100AEE00E50A75F016A42444F582E43400F583EE8D
:100AFE00F0A3EFF0E50A75F016A4244AF582E4346B
:100B0E0000F5837402F01210E0EF24FEFFEE34FFC6
:100B1E00FEE50A75F016A42448F582E43400F58348
:100B2E00EEF0A3EFF0050AE50AC3940250024181EC
:060B3E0090002D7402F08E
:010B4400228E
:100C01008F0AEF75F016A4244AF582E43400F583C7
:100C11007401F01210E0E50A75F016A42446F5827D
:100C2100E43400F583E0FCA3E02FFFEC3EFEE50A8F
:100C310075F016A42448F582E43400F583EEF0A3A0
:100C4100EFF01210E090002DE0FD75F016A42442A3
:100C5100F582E43400F583E0FAA3E02FFFEA3EFEDB
:100C6100ED75F016A42444F582E43400F583EEF02A
:100C7100A3EFF0E50A75F016A42436F582E43400FA
:100C8100AF82FE120DA2EF70077F017E881207FC72
:010C91002240
:060B45008E0A8F0B8D0CDF
:100B4B0090002AE50CF0E4A3F0900024E50AF0A352
:100B5B00E50BF0A3EAF0A3EBF0E4250CFEE434077D
:100B6B00900018F0A3CEF0A37401F0E490001CF0F9
:100B7B0090002CF090002AE02480FEE434059000D5
:100B8B000CF0A3CEF0A37408F0E4FFEF75F016A4FD
:100B9B002436F582E43400F583E4F0A3F00FBF02B2
:100BAB00EAE4FFEF25E025E0242EF582E43400F59E
:100BBB0083E4F0A3F00FBF02EAAF0BAE0A120EEF05
:100BCB00EF70077F027E881207FCE4FFFE1210A075
:100BDB00EF70077F037E881207FCE4250CFFE434DB
:100BEB0006FE1210A0EF70077F037E881207FC90A1
:050BFB00002D74FFF065
:010C000022D1
:1009B3008F0A8C0B8D0C8B0DE50AC394014017E550
:1009C3000AD39402501090002AE0FFC3940140061A
:1009D300EFD3947F40077F047E881207FCE50EC3A4
:1009E300941040077F047E891207FC150AE50A2547
:1009F300E025E02430F582E43400F583E50DF0E5ED
:100A03000A25E025E02431F582E43400F583E50E80
:100A1300F0E50C450B702CE50AFEE42400FFEE34F0
:100A230002FE90002AE07C002FFFEC3EFEE50A2543
:100A3300E025E0242EF582E43400F583EEF0A3EF05
:100A4300F08016E50A25E025E0242EF582E4340043
:100A5300F583E50BF0A3E50CF0E50A25E025E0249A
:100A63002EF582E43400F583E0FEA3E0FF1210A02C
:0B0A7300EF70077F057E881207FC2251
:1006C3008F0A8C0B8D0C8A0D8B0EE50AC3940140A7
:1006D30031E50AD39402502A90002AE0FFC3940123
:1006E3004020EFD3947F501AE511C394014013E5E2
:1006F30011D39408500CE50E450D700DE510450F10
:1007030070077F067E881207FCE512C3941040072A
:100713007F067E891207FC150AE50C450B702CE554
:100723000AFEE42480FFEE3401FE90002AE07C0000
:100733002FFFEC3EFEE50A75F016A42436F582E49D
:100743003400F583EEF0A3EFF08016E50A75F0169A
:10075300A42436F582E43400F583E50BF0A3E50C1D
:10076300F0E50A75F016A42438F582E43400F58325
:10077300E511F0E50A75F016A4244BF582E4340084
:10078300F583E512F0E50A75F016A42442F582E438
:100793003400F583E50DF0A3E50EF0E50A75F016D8
:1007A300A42446F582E43400F583E50FF0A3E510B5
:0207B300F02232
:10000E00E4F50990002DE0F470351210E090002711
:10001E00E02FFF900026E03E900028F0A3EFF07E48
:10002E00007F18120DA2EF70077F017E881207FC69
:10003E0090001C747FF090002D7402F07F01227EE0
:10004E00007F00120D1EEF70022149900000E0703B
:10005E0002A3E0704C90002AE0FF900005E0FE6FD6
:10006E006003EE703C900004E024FE601924826070
:10007E001D1460221460242481702390001C7405CA
:10008E00F0120A7E801890001C7404F0801090000C
:10009E001C747FF080081210EF8003120F4E7F0148
:1000AE002290001CE06404602590002AE02400FFEA
:1000BE00E43406FE900000E0B50613A3E0B5070E8B
:1000CE007B017A0079041208008F087F01229000CC
:1000DE001CE064057065F508E50825E025E0242E92
:1000EE00F582E43400F583E0FEA3E0FF900000E02B
:1000FE006E7003A3E06F703AE50825E025E024302A
:10010E00F582E43400F583E0FF7E00E50825E02566
:10011E00E02431F582E43400F583E02419F9E4A8F3
:10012E0001FCFD7B017A00790412047175080275D9
:10013E0009010508E508C39402409D90001CE06487
:10014E00056002615D90002DE004F0E0C394024072
:10015E0002E4F090002DE0FF75F016A42436F5822F
:10016E00E43400F583E0FCA3E04C7002615DEF75B2
:10017E00F016A42442F582E43400F583E0FEA3E0F9
:10018E004E607190002DE075F016A42444F582E4C3
:10019E003400F583E0FEA3E0FF12103EEF605590B1
:1001AE00002DE0FF75F016A42438F582E43400F536
:1001BE0083E0FD7C00C004C005EF75F016A4244B4F
:1001CE00F582E43400F583E02419F9E4FAFBC0016A
:1001DE0090002DE075F016A4243AF9740035F0A8BD
:1001EE0001FC7D01D001D007D00612047190002DC4
:1001FE00E0FF614390002DE0FF75F016A42446F554
:10020E0082E43400F583E0FCA3E04C7002615DEF04
:10021E0075F016A4244AF582E43400F583E0D394F5
:10022E0000404790002DE075F016A42448F582E4B6
:10023E003400F583E0FEA3E0FF12103EEF602B903A
:10024E00002DE0FF75F016A4244AF582E43400F583
:10025E0083E0B40202614390002DE075F016A424F1
:10026E004AF582E43400F583E4F090002DE0FF754A
:10027E00F016A4244AF582E43400F583E0C3940218
:10028E004002615D90002DE0FE75F016A42438F555
:10029E0082E43400F583E0FD7C00C004C005EE75F9
:1002AE00F016A4244BF582E43400F583E02419F90A
:1002BE00E4FAFBC001EF75F016A4243AF974003588
:1002CE00F0A801FC7D01D001D007D00612069FEFE9
:1002DE00607D90002DE0FF75F016A42438F582E4C1
:1002EE003400F583E0FD7C00C004C005EF75F01608
:1002FE00A4244BF582E43400F583E02419F9E4FAE2
:10030E00FBC00190002DE075F016A4243AF974009C
:10031E0035F0A801FC7D01D001D007D00612047182
:10032E0090002DE0FF75F016A4244AF582E4340007
:10033E00F583E07006120C017F012290002DE0750E
:10034E00F016A4244AF582E43400F5837402F0908A
:10035E000026E07002A3E06037900028E0FEA3E0E4
:10036E00FF12103EEF60297E007F18120DA2EF7073
:10037E00077F017E881207FC1210E0900027E02F05
:10038E00FF900026E03E900028F0A3EFF0750901E3
:02039E00AF09A5
:0103A000223A
:03000000020C925D
:0C0C9200787FE4F6D8FD75812A020CD9A9
:1003A100E709F608DFFA8046E709F208DFFA803E3E
:1003B10088828C83E709F0A3DFFA8032E309F6082B
:1003C100DFFA8078E309F208DFFA807088828C8393
:1003D100E309F0A3DFFA806489828A83E0A3F60847
:1003E100DFFA805889828A83E0A3F208DFFA804C21
:1003F10080D280FA80C680D4806980F280338010F8
:1004010080A680EA809A80A880DA80E280CA803360
:1004110089828A83ECFAE493A3C8C582C8CCC583D8
:10042100CCF0A3C8C582C8CCC583CCDFE9DEE780A8
:100431000D89828A83E493A3F608DFF9ECFAA9F027
:10044100EDFB2289828A83ECFAE0A3C8C582C8CC7D
:10045100C583CCF0A3C8C582C8CCC583CCDFEADE96
:10046100E880DB89828A83E493A3F208DFF980CCF8
:1004710088F0EF60010E4E60C388F0ED2402B404F1
:100481000050B9F582EB2402B4040050AF23234598
:0604910082239003F173C9
:10049700BB010689828A83E0225002E722BBFE0263
:0904A700E32289828A83E4932296
:1004B000BB010CE58229F582E5833AF583E0225001
:1004C00006E92582F8E622BBFE06E92582F8E2224B
:0D04D000E58229F582E5833AF583E4932265
:1004DD00EB9FF5F0EA9E42F0E99D42F0EC6480C896
:0604ED0064809845F02236
:1004F300E8600FECC313FCED13FDEE13FEEF13FFE7
:03050300D8F1220A
:10050600E8600FEFC333FFEE33FEED33FDEC33FC53
:03051600D8F122F7
:10051900E3F5F009E208B5F06BDFF58067E3F5F084
:1005290009E608B5F05EDFF5805A87F009E608B5F7
:10053900F052DFF6804E87F009E208B5F046DFF6A3
:10054900804288828C8387F009E0A3B5F036DFF614
:10055900803288828C8387F009E493A3B5F025DF84
:10056900F5802188828C83E3F5F009E0A3B5F014C6
:10057900DFF5801088828C83E3F5F009E493A3B555
:10058900F002DFF4020648808780E9809080D480F9
:100599003E8015806E807E809D80B7808D80A3808F
:1005A900518074803C02065489828A83ECFAE49370
:1005B900F5F0A3C8C582C8CCC583CCE493A3C8C54C
:1005C90082C8CCC583CCB5F076DFE3DEE1807089E3
:1005D900828A83E493F5F0A3E208B5F062DFF48040
:1005E9005E89828A83E0F5F0A3E608B5F051DFF56C
:1005F900804D89828A83E0F5F0A3E208B5F040DFF7
:10060900F5803C89828A83E493F5F0A3E608B5F086
:100619002EDFF4802A8002805789828A83ECFAE4EB
:1006290093F5F0A3C8C582C8CCC583CCE0A3C8C5DF
:1006390082C8CCC583CCB5F006DFE4DEE280007F5A
:10064900FFB5F0020F2240027F012289828A83ECE2
:10065900FAE0F5F0A3C8C582C8CCC583CCE0A3C82D
:10066900C582C8CCC583CCB5F0D5DFE5DEE380CF44
:1006790089828A83ECFAE0F5F0A3C8C582C8CCC5A3
:1006890083CCE493A3C8C582C8CCC583CCB5F0AFED
:10069900DFE4DEE280A988F0EF60010E4E60ABED89
:1006A9002402B404005098F582EB2402B4040050EB
:0A06B9008E232345822390059073E1
:100C9E00021077E493A3F8E493A34003F68001F2E5
:100CAE0008DFF48029E493A3F85407240CC8C33357
:100CBE00C4540F4420C8834004F456800146F6DF26
:100CCE00E4800B01020408102040809010D3E47ED3
:100CDE00019360BCA3FF543F30E509541FFEE4931B
:100CEE00A360010ECF54C025E060A840B8E493A3E2
:100CFE00FAE493A3F8E493A3C8C582C8CAC583CA0D
:100D0E00F0A3C8C582C8CAC583CADFE9DEE780BEC4
:0110DF000010
:00000001FF
