:020000040000FA
:0600000000008A01362811
:080008003B2982070034583443
:1000100020340034423414349C3402348034443468
:100020001234FF346034103426348E346F34473445
:1000300070340134003400340034003400340034AF
:1000400000340034003408008207AA34AA34AA34E9
:10005000CD344D34003400340734003400340034DF
:100060000034003400340034003408003930A0007B
:10007000213084008001840AA00B3A28F101830119
:1000800094019F0198018B018501860187018316E8
:1000900007309F0003308E00FF308500F930860066
:1000A000F0308700253099000030980000308C0037
:1000B000C8308100831200309000F0308E008E092D
:1000C00055308F008F098714071407154A17061536
:1000D000B822C2220630D0224430DF224430262308
:1000E0004A1F7C2882234A1F7C28813002238130CA
:1000F00050234A1F7C2882234A1F8428061103307C
:10010000CE00C630CD0088280330D100C630D000E4
:1001100088308B000C101014851993284430262346
:100120004C15CC159928B822CC14CC169928CA1E87
:10013000A328A3010830A200FF304C1A0301A60037
:100140004A12CA12CB010C1CAF280C10C520CC1CC3
:10015000AF28CC1DAF284B18AF288A21C4288B1C90
:10016000C428CC1AC428CC1DBB28F2204A1EC4289F
:1001700058214A12C42823214A1EC428CC1CC22854
:100180009321C328C2214A1297284D1FDB28CF088C
:100190000319CC28CF03DB284D0D031CD22886146D
:1001A000CD13D8288610CD17CE0BD828CD01DB284B
:1001B0004D083F39CF00501FF128D2080319E2281B
:1001C000D203F128500D031CE8280615D013EE28A1
:1001D0000611D017D10BEE28D001F12850083F3975
:1001E000D20008000630C900061C2229C90BF428D9
:1001F00007080839A7000430C9000708083927068E
:10020000031D2229C90BFD280310A80D0301A719FE
:100210000130A8044B1815292808AA3C03191229F3
:100220004B1021294B140130A200A20B21294A16A0
:10023000A30AA60A0830A2002608293E840028083E
:1002400080008B1008000C30C90006183A29C90B31
:1002500025292608393E8400800D031C3129871585
:1002600032298711A20B39294A16A30AA60A083097
:10027000A2008B100800F900030ED6008301D600FF
:100280000B1C72210608061A52296430AE23061E82
:100290004529CC1C5129CC1E5229813002238A21A8
:1002A000522983210B10560E8300F90E790E090096
:1002B000CB185C29D02170294B196029E2217029C3
:1002C000CB196429F92170294B1A68290A2270294F
:1002D000CB1A6C29172270294B1B6F292422372235
:1002E000A80108000000541C8029D5015508DA0037
:1002F0001C3C031C802982225B080000D50A762959
:10030000D30ACA1608004A1D87294A11F101F10AC9
:100310000000080086144D2281305023CC12CC11ED
:100320004C16CA1608002608103C031DA9294430A3
:100330002623D90A5908B90010100C10F0308E008D
:100340008E0955308F008F0910144C12CC15861071
:10035000CA16080086144D227108A00039300E3EDE
:1003600084002008800039300F3E840000082007F8
:100370008000813050230730AE234A15CC114C1633
:10038000CA1608002608103C031DCF294430262336
:10039000D90A5908B9004C12CC158610CA160800A3
:1003A0002608293E8400AA300002031DDE29230806
:1003B000023C0318E129CB14A301E129CA164B1012
:1003C000A30108002930023E2307840001302302E4
:1003D000031DEC29CD30ED294D300002031DF72916
:1003E0002308023C031DF8294B15A301F8297221AB
:1003F00008002930043E2307840000300002031D5A
:10040000082A2308023C031D092ACB15A301092A47
:10041000722108002930063E2307840007300002BD
:10042000031D152A4B16A301162A72210800293034
:10043000073E23072930073E840000082302031DDE
:10044000232ACB16A3010800293084000F30A00016
:1004500003010007840AA00B292AA10029302607DE
:10046000840000082102031D72214B17080001308F
:10047000D100C630D0008B13CC18402AAA214B2AB9
:1004800029300E3E840000080319492ACE00C630E8
:10049000CD00CC16B8228B170800A601A101A5013A
:1004A0003930250784000F30A40000308A00250869
:1004B00024208000A107840AA50AA40B552A21083C
:0404C00080000800B0
:0C04C4005B08E000A5228714000007146C
:1004D00000008710000087140000000007150000CE
:1004E000000000000830DC008714E00D031C7A2AAD
:1004F00007147B2A07108710DC0B742A8714071453
:1005000007150800A52287140000071000008710B7
:100510000000000000008714000007140715831670
:10052000071483120830DD00DB010310DB0D871098
:1005300007080139DB048714DD0B952A83160710A1
:100540008312871407140715080007155A08DF00DF
:100550000711DF0D0730DE008714DF0D031CB22A00
:100560000714B32A071000008710DE0BAC2A08001E
:100570000030DA003F30DB0062220B30DA00DB01B2
:10058000622208000030DA0082220030DA00FE30F9
:10059000DB0562220130DB0462220230AE23080058
:1005A000E101E10A00308A0061080520DB006108F2
:1005B000DA0062221C306102031DD12A0800E20029
:1005C0000030DA003B30DB0062220930DA006208DA
:1005D000DB0062220C30DA006030DB006222053082
:1005E000AE230030DA003930DB006222FA30BA2361
:1005F0000030DA003130DB006222831601178715E4
:1006000083120800E3000030DA00FB30DB006222D6
:100610000930DA006308DB0062220C30DA0048306F
:10062000DB0062220530AE230030DA00F930DB0057
:100630006222FA30BA230B30DA00FF30DB0062228C
:100640000030DA00F130DB0062220800E200003006
:10065000DA001130DB0062220C30DA006030DB009F
:1006600062220930DA006208DB0062220230B42321
:100670003230BA23FF30E4000130E5000D30DA00FB
:1006800082225B184A2BE40B3E2BE50B3E2B822388
:100690004A1F722100008316011787158312080074
:1006A000E3000B30DA00DB0162220030DA00E130D7
:1006B000DB0062220C30DA004830DB0062220930B5
:1006C000DA006308DB0062220230B4233230BA233E
:1006D000FF30E4000130E5000D30DA0082225B18C3
:1006E000782BE40B6C2BE50B6C2B82234A1F7221B9
:1006F0000B30DA00FF30DB00622283160113871112
:10070000831208000B30DA00DB0162220E30DA00BF
:10071000A630DB0062220E30DA008222DB1D8D2B38
:10072000FF30E4000130E5000D30DA0082225B1872
:10073000A22BE40B942BE50B942B5B18A22B7221BC
:100740004A13A32B4A170E30DA002630DB00622250
:100750000B30DA00FF30DB0062220800E8000A30CC
:10076000B423E80BAF2B0800E7006430BA23E70B93
:10077000B52B08000B11E600E609E60A660A8100BF
:060780000B1DC02B080058
:044000000034003454
:02400E00313748
:024200000000BC
:00000001FF
