:020000040000FA
:020000003B289B
:08000800DF00030E8312C400A7
:100010000A08D0000408C500640083168C1D21283E
:1000200083128C1D2128A208031D0516E621201627
:100030000630C200A2080319312883168C118312DE
:100040002E2883120B19252831280512201E2E2850
:10005000C20B2E28DB2119088C112012C23081001E
:100060000B1183124508840050088A00440E830057
:10007000DF0E5F0E0900FF2383169000833081009E
:1000800095010F30850005128312303090008501F4
:100090000C10D221E0308B00DB21F02110149620CF
:1000A00085160830A400F530A5000230A600023005
:1000B000A7003C30A80021140030B400CE30B500B9
:1000C000EB209630AC007830AD000230B0005830F4
:1000D000B100B00A1E30AF0020160630C2008316F1
:1000E0008C15831264000C1C95280C10FF308F00B7
:1000F00083308E00B921201C87282010A208031904
:100100008228A203A30B8728EB20FF30A300A01CAA
:100110008B28A010BA20201D90282011A520C220D5
:10012000A01D9528A011AF20F7217228D830AE006D
:10013000FF308F0083308E000C1064000C1C9D2853
:1001400005189628AE0F9D280800211BAE28A11A7D
:10015000AE28B10BAE28B00BAE28A1160800211BAB
:10016000B328AF0BB928A201B401B5014030A100FA
:1001700085120800A11EC128851EC0288512C1282D
:1001800085160800211FC628A201EA28A11CD32831
:10019000AB0BEA28AA0BEA28A1100130B400CD303D
:1001A000B5002115EA28211DDE28AC0BEA28211113
:1001B0000030B400CE30B500A115EA28A11DE92811
:1001C000AD0BEA28A1110030B400CE30B5002116E5
:1001D000EA28000008006400211B9D299F149F1835
:1001E000EF281E08B20083161E088312B3003208DF
:1001F0003402BA0033083502BB00031CBA033A08C4
:10020000C0003B08C100211C1D29BA1F0D2949301F
:10021000AB000130AA00AA0A12294A30AB00013013
:10022000AA00AA0A2110A1140230B4009230B5002D
:100230003208B6003308B7009E2951103A08C600AC
:100240003B08C7000130CC009030CD003422460876
:10025000BC004708BD004808BE004908BF00BA1FDF
:100260004329FF30BA00E030BB04BA09BB09BB0A1E
:100270000319BA0A3B08B902031CB803B81F642962
:10028000B801B901642900303A02031D49296430DC
:100290003B02031C51290030B9000630B80051144C
:1002A0006429BA017F30BB053B08B9070318B80FB2
:1002B0005A296029B81B60293A08B807031C642929
:1002C0007F30B800FF30B9003808C6003908C700D1
:1002D0000030CC000D30CD003422A121330837028C
:1002E000BB0003187529320A762932083602BA0093
:1002F0003208B6003308B7003A08C6003B08C7000A
:100300000C30CC000030CD003422A121511C8B29AF
:10031000FF30BE008D2900000000BC1B9D293C0859
:100320003D04031D94299629FF30BE003E08A2001B
:100330009E29B401B5014030A100A2012208C300EA
:1003400008004908BF07031CAA29C80FAA29C70F1C
:10035000AA29C60A4808BE07031CB129C70FB1293C
:10036000C60A4708BD07031CB629C60A4608BC07CB
:100370000800A40BBE2920140830A400A50BD12925
:10038000A60BD129A014F530A5000230A600A70BBA
:10039000D12920150230A700A80BD129A0153C3087
:1003A000A80008001F308400840A80015F30040622
:1003B000031DD4290800043099008C118F30191BBB
:1003C0008030831699008C158312080019088C114F
:1003D00083168C11003099008312073099000800B1
:1003E00089309F00831614309F0083120800831603
:1003F000FF2310060319FE29FF2390001508031D93
:10040000950105080F3A0319072A0F30850083125A
:100410001008303A031D10140B08C039C03A0319F4
:10042000132AC0308B041908BF39043A03191A2A59
:100430000430990483161908F039803A0319232AE5
:1004400080308F39990483121F08FD39893A0319C6
:100450002B2A89309F0483161F08143A0319322A65
:1004600014309F0083120800C801C901CF0146085B
:1004700047040319003446084C06CA00CA1BCF09BA
:10048000CC1F4E2ACD09CC09CD0A0319CC0AC709C5
:10049000C609C70A0319C60ACC1B8A2A4608CA001D
:1004A0004708CB000830CE00CD0C03186C2ACE0BC9
:1004B000542A0730CE00CC0C03187D2ACE0B5B2AC1
:1004C000C601C7010034CD0C031C6C2A4B08C707BA
:1004D0004A0803184A0FC6074F0DC60CC70CC80CB4
:1004E000CE0B632A0730CE00CC0C031C7D2A4B08B0
:1004F000C7074A0803184A0FC6074F0DC60CC70C9A
:10050000C80CC90CCE0B742A4F0DC60CC70CC80CF6
:10051000C90C0034C801C9014F0DC60CC70CC80C6A
:020520000034A5
:0207FE00803445
:084000000000010003000300B1
:02400E004C3E26
:1042000000000000000000000000000000000000AE
:10421000000000000000000000000000000000009E
:10422000000000000000000000000000000000008E
:10423000000000000000000000000000000000007E
:10424000000000000000000000000000000000006E
:10425000000000000000000000000000000000005E
:10426000000000000000000000000000000000004E
:10427000000000000000000000000000000000003E
:10428000000000000000000000000000000000002E
:10429000000000000000000000000000000000001E
:1042A000000000000000000000000000000000000E
:1042B00000000000000000000000000000000000FE
:1042C00000000000000000000000000000000000EE
:1042D00000000000000000000000000000000000DE
:1042E00000000000000000000000000000000000CE
:1042F00000000000000000000000000000000000BE
:00000001FF
