:020000040000FA
:0600000000008A01242823
:08000800E82882070034583497
:1000100020340034423414349C3402348034443468
:100020001234FF346034103426348E346F34473445
:1000300070340134003400340034003400340034AF
:1000400000340034003408003530A0002230840031
:100050008001840AA00B2828830194019F01980144
:100060008B018501860187019B01F1010C3097000E
:100070009D01073092008316031310309200073061
:100080009F0003308E00F8308500C930860028308C
:100090008700253099000030980000308C00CE3069
:1000A0008100831203130E2218220630262281308B
:1000B00058228130A622D8224430352244307C2276
:1000C000D8224B1FE82080308B00CB160630D3009F
:1000D00053098F007830D20052098E000C10013085
:1000E0009000950187130C1C76288C20CB1E81284C
:1000F000A4010830A300FF30A7004B12CB124C1014
:10010000CC016400061C8B2897204B1E8B284C1CAE
:100110008B28CE204B127328871C9028871091289B
:10012000871453098F0052098E000C100800053007
:10013000CA00061CAA28CA0B992807080839A80073
:100140000430CA00070808392806031DAA28CA0B6C
:10015000A228AC28D50ACD28D60A061CAD28031043
:10016000A90D0301A8190130A9044C18C0282908B9
:10017000AA3C0319BD284C10CD284C140130A30013
:10018000A30BCD284B16A40AA70A0830A300270802
:100190002A3E8400290880008B100800CC18D22841
:1001A000F620E6284C19D6280821E628CC19DA28AA
:1001B0001F21E6284C1ADE283021E628CC1AE22836
:1001C0003D21E6284C1BE5284A215D21A9010800B4
:1001D000D0015008D7001C3C031CF328D821580834
:1001E0000000D00AE928CE0ACB16080027082A3ECC
:1001F0008400AA300002031D04292408023C0318CD
:100200000729CC14A4010729CB164C10A40108001F
:100210002A30023E2407840001302402031D1229E3
:10022000CD3013294D300002031D1D292408023C46
:10023000031D1E294C15A4011E29E82008002A30A0
:10024000043E2407840000300002031D2E292408E8
:10025000023C031D2F29CC15A4012F29E8200800FA
:100260002A30063E2407840007300002031D3B2984
:100270004C16A4013C29E82008002A30073E240738
:100280002A30073E840000082402031D4929CC16A9
:10029000A40108002A3084000F30A00003010007E9
:1002A000840AA00B4F29A2002A30270784000008E7
:1002B0002202031DE8204C170800383084009521E5
:1002C000373084000008D2008421363084000008D2
:1002D000A1000310A10C031C071203180716A10CA0
:1002E000031C061103180615A10C031C8610031825
:1002F0008614363084008001840A8001840A8001DB
:10030000CB162A3084000800D301D209D20D03187D
:10031000D30AD20D0318D30ADC30D207D20C03184B
:10032000D30A0A30D307D30C08000008A100210823
:10033000843C031CA52921087C3C031CA229031929
:10034000A229A82987139501B7298717A109AC29E4
:100350008713A1097F30A105A10C171203181716E6
:10036000A10C9712031897163F302105950008003D
:100370005808DD00FB2105150000071400000511D9
:1003800000000515000000008514000000000000BA
:100390000830D9000515DD0D031CD0290714D1291B
:1003A00007100511D90BCA29051507148514080073
:1003B000FB210515000007100000051100000000DA
:1003C0000000051500000714851483160714831216
:1003D0000830DA00D8010310D80D05115814071C95
:1003E00058100515DA0BEB29831607108312051533
:1003F00007148514080085145708DC008510DC0DEF
:100400000730DB000515DC0D031C082A0714092A38
:10041000071000000511DB0B022A08000030D7008E
:100420003F30D800B8210B30D700D801B8210800E0
:100430000030D700D8210030D700FE30D805B821D1
:100440000130D804B821023004230800DE01DE0A9E
:1004500000308A005E080520D8005E08D700B82169
:100460001C305E02031D272A0800DF000030D70081
:100470003B30D800B8210930D7005F08D800B82138
:100480000C30D7006030D800B8210530042300308C
:10049000D7003930D800B821FA3010230030D70007
:1004A0003130D800B8218316011787158312080050
:1004B000E0000030D700FB30D800B8210930D70069
:1004C0006008D800B8210C30D7004830D800B821D7
:1004D000053004230030D700F930D800B821FA30B5
:1004E00010230B30D700FF30D800B8210030D700E0
:1004F000F130D800B8210800DF000030D7001130FB
:10050000D800B8210C30D7006030D800B8210930AD
:10051000D7005F08D800B82102300A2332301023F8
:10052000FF30E1000130E2000D30D700D82158182B
:10053000A02AE10B942AE20B942AD8224B1FE82030
:10054000000083160117871583120800E0000B30A6
:10055000D700D801B8210030D700E130D800B82149
:100560000C30D7004830D800B8210930D7006008D7
:10057000D800B82102300A2332301023FF30E100C6
:100580000130E2000D30D700D8215818CE2AE10BF7
:10059000C22AE20BC22AD8224B1FE8200B30D70018
:1005A000FF30D800B8218316011387118312080089
:1005B0000B30D700D801B8210E30D700A630D800B4
:1005C000B8210E30D700D821D81DE32AFF30E10032
:1005D0000130E2000D30D700D8215818F82AE10B7D
:1005E000EA2AE20BEA2A5818F82AE8204B13F92ADB
:1005F0004B170E30D7002630D800B8210B30D7006B
:10060000FF30D800B8210800E5000A300A23E50BC6
:10061000052B0800E40064301023E40B0B2B0800CA
:100620000B11E300E309E30A630A81000B1D162B9B
:020630000800C0
:044000000034003454
:02400E00353744
:00000001FF
