:020000040000FA
:0600000000008A01362811
:08000800A728820700345834D8
:1000100020340034423414349C3402348034443468
:100020001234FF346034103426348E346F34473445
:1000300070340134003400340034003400340034AF
:1000400000340034003408008207AA34AA34AA34E9
:10005000CD344D34003400340734003400340034DF
:10006000003400340034003400340800830133309D
:10007000A000223084008001840AA00B3B28831654
:100080000313CE30810003308E00FF308500FF3037
:100090008600F03087001930990000309800003059
:1000A0008C00831203130608F101940198018B015F
:1000B00085018601870181309F00831644309F00AF
:1000C00083124B1761216B2106307921A720443020
:1000D00088214430CF214B1F77282B224B1F7728B4
:1000E0008130AB218130F9214B1F77282B224B1F08
:1000F000A72080308B00CB16CB1E8628A4010830A9
:10010000A300A7014B12CB12B12000006400061817
:100110008E288F204B1E8E28AB204B127C280C3053
:10012000CA000618A628CA0B912827083A3E840060
:10013000800D031C9D2887159E288711A30BA528D9
:100140004B16A40AA70A0830A3008B100800000071
:10015000CE0ACB1608002708103A031DB028CB168C
:100160000800A701A201A6013A30260784000F303B
:10017000A50000308A00260824208000A207840AF7
:10018000A60AA50BB9288030E320483084001E0859
:100190008000A2078830E320473084001E088000DA
:1001A000A207A1010608861821140619A1148619B0
:1001B00021154630840021088000A20749308400C0
:1001C0002208800008009F0001309F040C30A1002D
:1001D000A10BE8281F151F19EB281E0808000000B6
:1001E000000000000000000000000000000000000F
:1001F00000000000000000000000000000000000FF
:1002000000000000000000000000000000000000EE
:06021000000000000000E8
:0A0216005608DB004E21871400009B
:100220000714000087100000871400000000071565
:100230000000000000000830D7008714DB0D031C0D
:1002400023290714242907108710D70B1D29871489
:100250000714071508004E2187140000071000003E
:100260008710000000000000871400000714071525
:100270008316071483120830D800D6010310D60D58
:1002800087105614071C56108714D80B3E29831666
:10029000071083128714071407150800071555085F
:1002A000DA000711DA0D0730D9008714DA0D031CC4
:1002B0005B2907145C29071000008710D90B55290A
:1002C00008000030D5003F30D6000B210B30D500A0
:1002D000D6010B2108000030D5002B210030D500BD
:1002E000FE30D6050B210130D6040B2102305722F7
:1002F0000800DC01DC0A00308A005C080520D6001A
:100300005C08D5000B211C305C02031D7A29080013
:10031000DD000030D5003B30D6000B210930D50080
:100320005D08D6000B210C30D5006030D6000B21C3
:10033000053057220030D5003930D6000B21FA3075
:1003400063220030D5003130D6000B21831601170F
:10035000871583120800DE000030D500FB30D60080
:100360000B210930D5005E08D6000B210C30D500DA
:100370004830D6000B21053057220030D500F93027
:10038000D6000B21FA3063220B30D500FF30D600A7
:100390000B210030D500F130D6000B210800DD0024
:1003A0000030D5001130D6000B210C30D500603064
:1003B000D6000B210930D5005D08D6000B21023094
:1003C0005D2232306322FF30DF000130E0000D306B
:1003D000D5002B215618F329DF0BE729E00BE7297D
:1003E0002B224B1FA72000008316011787158312AD
:1003F0000800DE000B30D500D6010B210030D500FF
:10040000E130D6000B210C30D5004830D6000B214E
:100410000930D5005E08D6000B2102305D22323053
:100420006322FF30DF000130E0000D30D5002B21CA
:100430005618212ADF0B152AE00B152A2B224B1FF9
:10044000A7200B30D500FF30D6000B2183160113F7
:100450008711831208000B30D500D6010B210E3016
:10046000D500A630D6000B210E30D5002B21D61D8D
:10047000362AFF30DF000130E0000D30D5002B219F
:1004800056184B2ADF0B3D2AE00B3D2A56184B2A03
:10049000A7204B134C2A4B170E30D5002630D60020
:1004A0000B210B30D500FF30D6000B210800E300F4
:1004B0000A305D22E30B582A0800E2006430632210
:1004C000E20B5E2A08000B11E100E109E10A610A72
:0804D00081000B1D692A0800E0
:044000000034003454
:02400E00363F3B
:00000001FF
