:020000040000FA
:040000008A011B282E
:08000800F600030E031383123E
:10001000CC000A08CD000408CE00382B82073F34FC
:1000200006345B344F3466346D347D3407347F34AA
:100030006F343834763403138312640040309930BF
:1000400087300130033040300930603006300030F6
:100050008B00850186018701880189018C018D0152
:100060000F3090002A2433240C30AF001C309F0046
:10007000031383168030910050309F0007309C009E
:1000800061308F0000308C0000308D00C130850061
:1000900000308600073087003E308800FE3089003F
:1000A0008030810003178312A001A101A201173043
:1000B000870080300338880080308804FF309C003F
:1000C0000F309D009E011230850090019101930137
:1000D00094019601970199019A01871703138312DE
:1000E0006030A20085150330F1000230F200F215F5
:1000F0002C170C30BC000130BD000130BA000313D6
:100100008312091044189328AB18932800008B130E
:100110000B1783160D16000000006300000000009E
:100120000D1283120B130D1E9328000009140000FA
:10013000441CAD2000000000000000004C23C6223B
:100140003E302B05031D25212D197F28AB1C67226E
:100150002923A522B4224C237F284418242971196D
:10016000B428F119BB28C228BA0B2429AC14B6084C
:100170000319CE28172905108316051083120510C0
:1001800088172429B60105148316051483128813D1
:1001900024292C1CCE2800302C10E828AC1CD32895
:1001A0007508AC10E828AC1FD8287508AC13EC28EB
:1001B0002C1DDD280A302C11E828AC1DE22875081A
:1001C000AC11E828AC1EE6280030EC282C1F2429AE
:1001D000A0000230B600EF28A0000330B600A00D4A
:1001E000A00DA00DF8302005C2002D184215AC1A44
:1001F000C2142D10AC12FC27A0000F302005BE0445
:10020000FD27BF00FE27C000FF27C1003E12C3012B
:100210003E3084000530A0000008C307840AA00B0C
:100220000C292C1F1729C30A2C13B60117290510F6
:1002300083160510831205103C30A000A00B1E2968
:100240008B170130BA003C2408002B1F34290430DE
:100250002906031D32292B13AB171E30B000AB103B
:1002600071133A2A2B17432AAB199229AB1A122A77
:1002700006302906031D3F292D14AC16432AA91C5C
:100280005329721C3D2AAD193D2AAD152C15F116C6
:100290002D1472150A30F5001E30B300F2154C23F0
:1002A0004C23AB10402A291D8629F2185E297119AA
:1002B0006D29F1197529711A7D293D2A0130B10086
:1002C0003408F5007214F116F2107115F111711263
:1002D000AC142D144722B7017F290330B1007214EA
:1002E000F2107111F11571127F290C30B1007214E6
:1002F000F2107111F11171167F29552281293C30BC
:10030000B200F2154C234C23AB10402AA91E042A3C
:10031000AB150230AE001030A8007114F2154C235A
:100320004C23402A2E08023A03199B292E08033A2F
:100330000319CE293D2AA80BA3290130F10610305C
:10034000A800F2154C236722AB142B18402AAA01EF
:10035000291AAD29A919B729C229A40A24083C3CA5
:10036000031CB5290319B529B629A401BD29A40880
:10037000031DBC293C30A400A403F2152408F52376
:10038000F300402A291D462A71141030A8000330BA
:10039000AE00F2154C234C23F114402AA80BD629A9
:1003A0000230F1061030A800F2154C236722AB147E
:1003B0002B18402AAA01291AE029A919EA29F829A3
:1003C000A50A25082F020318E6290319E929013097
:1003D000A500F2292508013C031CF1290C30A500D9
:1003E000F229A503F114F2152508F523F400402A9B
:1003F000291D462A7114F114AB10AB11AE01A301F3
:10040000F2154C234C23402A721C3D2A2B1B3D2AFB
:10041000AD193D2A291A0E2AA91D3D2AAB16F1163F
:100420000930B500291A172AA9191F2A312A750877
:10043000093C031C1D2AF50A272AF501272A7508FD
:10044000003A0319252AF503272A0A30F500750812
:10045000B4000930B500F2154C234C23AA01A901C0
:10046000402AB50B462AAC142D14AB12AB10472210
:10047000AA01402AF2154C23402AAB10A901AA0177
:100480001E30B000462AAB10A901AA0108000230B4
:10049000A100BF300105A000D030A0070318A10AB9
:1004A0002008B800210AB9000800B10172107212C8
:1004B00086136030A200F112AD117211F2147111A5
:1004C000F11171122C141E30B7002D140800AB105E
:1004D00085110530A000A00B6B2A0808A900291778
:1004E000A91729142B1A832AAB1B832A89187E2A61
:1004F0002B1B832A2B177117F215832A2B1F832A94
:100500002B137113F2152D1E8515FF30A9062B1C18
:10051000942A29082A06031DA32AA60BA42A061733
:100520001E30A700AB14A32A29082A060319A32A00
:100530002B142908AA002B1FA02A4030A600A42AA9
:100540000630A600A42A2B100800721CB32AA20BA6
:10055000B32A721AAF2A721686170930B22A72129B
:1005600086136030A2000800AD1CBF2ABB0BC52A51
:100570001030BB008030F106F2154C23C52A2D1D2A
:10058000C42AF117F215C52AF11308000C1C282BF8
:100590000C10A30AA30AA7080319D42AA70BD12A6F
:1005A000D32AA70BD42A0613721CDC2AB80BDC2A28
:1005B000B90BDC2A4722AC17AB1FE72AB00BE12AA4
:1005C000E32AB00BE72A7117F2152B17AB13230898
:1005D0003B3C031CEC2A282BA301A40AF215B70804
:1005E0000319F52AB70BF52A2C14721C0B2BB20B2E
:1005F0000B2BB10BFC2AFF2A3C30B2000B2BB101B4
:100600007210F112F2147111F11171122C141E30CA
:10061000B7007508B400721D142BB30B142B7211A4
:10062000AD113408F500AC1524083B3C031C192B14
:10063000282BA401A50A25082F020318202B031933
:10064000232B0130A500BC0B282B2C170C30BC0031
:1006500008001F302B05031D372BF21D372B71149B
:100660002408F523F3002508F523F400F11408000D
:100670000B198B1E412B0B11441C412BC8308102DE
:100680008A24031383124E0884004D088A004C0EFE
:100690008300F60E760E09000317831287130313E7
:1006A0000D1203178717F21DF22B0130A206031952
:1006B000F22B871E5E2B8712081EF22BF211A10A65
:1006C00090019101930194019601970199019A017A
:1006D000711C932B00308A0073080F390E20A30081
:1006E00023181014A318131423191614A31919147A
:1006F000231A9614A31A9014231B931400308A0013
:10070000730E0F390E20A30023181015A31813150C
:1007100023191615A3191915231A9615A31A90153E
:10072000231B93151916F11CBD2B00308A00740889
:100730000F390E20A30023181016A318131623191F
:100740001616A3199916231A9616A31A9016231B88
:10075000931600308A00740E0F390E20A300231860
:100760009017A318931723199617A3191917231A6B
:100770001617A31A1017231B1317711DC02B9917D7
:10078000F11DC32B1A14711EC62B9914F11EE32BF5
:100790007508A40075080A3A031DD02B0B30A4007D
:1007A00000308A0024080E20A30023189A14A318EE
:1007B000971423199414A3199114231A1415A31A26
:1007C0001A15231B1715711FE62B1114F11FE92BA6
:1007D0001115721CEC2B1414F21CEF2B9415721DC6
:1007E000F22B1714031383120800A001F63E031C1A
:1007F000FB2BA00AF62B0A3EA00E200408009F1433
:100800009F18002C000085152D1200001E08993C31
:10081000031C1F2C1E08873C031C1A2CBD0803193F
:10082000232C5522F1177110F1102D15AD10F21572
:10083000BD03232CAD142D111030BB00232CF1135C
:10084000AD102D11F2150C30BC0008002D168511CD
:100850001F1408001F308400840A80017F300406C2
:10086000031D2C2C08009F308400840A8001EF3087
:100870000406031D352C0800C5011730CB003E309F
:10088000C8003E08CA000830C9007E24441408008D
:1008900080308806CB0B4F2C0A30CB00C50A932C36
:1008A00000008813CB0B572C3030CB00C50A932C9B
:1008B000000088177024C50A4B0303192624932CC3
:1008C000C4188813C50A4B030319FF23932C000097
:1008D0008813C503C503CB0B6F2C44108324932CC2
:1008E000C410CA0C0318C414C90B7D2CC80A4808CC
:1008F00084000008CA000830C900080038308100B0
:100900000B118B1608008B12441005148316051466
:100910008312080004308A0045088207482C502CB6
:08092000582C602C672C080024
:080FF8000F34ED34CB34A834B2
:021000000000EE
:084000000000010001000000B6
:02400E00E43C90
:00000001FF
